{
	"docs.chain.link/samples/VRF/VRFv2Consumer.sol": {
		"VRFv2Consumer": {
			"abi": [
				{
					"inputs": [
						{
							"internalType": "uint64",
							"name": "subscriptionId",
							"type": "uint64"
						}
					],
					"stateMutability": "nonpayable",
					"type": "constructor"
				},
				{
					"inputs": [
						{
							"internalType": "address",
							"name": "have",
							"type": "address"
						},
						{
							"internalType": "address",
							"name": "want",
							"type": "address"
						}
					],
					"name": "OnlyCoordinatorCanFulfill",
					"type": "error"
				},
				{
					"anonymous": false,
					"inputs": [
						{
							"indexed": true,
							"internalType": "address",
							"name": "from",
							"type": "address"
						},
						{
							"indexed": true,
							"internalType": "address",
							"name": "to",
							"type": "address"
						}
					],
					"name": "OwnershipTransferRequested",
					"type": "event"
				},
				{
					"anonymous": false,
					"inputs": [
						{
							"indexed": true,
							"internalType": "address",
							"name": "from",
							"type": "address"
						},
						{
							"indexed": true,
							"internalType": "address",
							"name": "to",
							"type": "address"
						}
					],
					"name": "OwnershipTransferred",
					"type": "event"
				},
				{
					"anonymous": false,
					"inputs": [
						{
							"indexed": false,
							"internalType": "uint256",
							"name": "requestId",
							"type": "uint256"
						},
						{
							"indexed": false,
							"internalType": "uint256[]",
							"name": "randomWords",
							"type": "uint256[]"
						}
					],
					"name": "RequestFulfilled",
					"type": "event"
				},
				{
					"anonymous": false,
					"inputs": [
						{
							"indexed": false,
							"internalType": "uint256",
							"name": "requestId",
							"type": "uint256"
						},
						{
							"indexed": false,
							"internalType": "uint32",
							"name": "numWords",
							"type": "uint32"
						}
					],
					"name": "RequestSent",
					"type": "event"
				},
				{
					"inputs": [],
					"name": "acceptOwnership",
					"outputs": [],
					"stateMutability": "nonpayable",
					"type": "function"
				},
				{
					"inputs": [
						{
							"internalType": "uint256",
							"name": "_requestId",
							"type": "uint256"
						}
					],
					"name": "getRandomThreeCards",
					"outputs": [
						{
							"internalType": "uint256",
							"name": "card1",
							"type": "uint256"
						},
						{
							"internalType": "uint256",
							"name": "card2",
							"type": "uint256"
						},
						{
							"internalType": "uint256",
							"name": "card3",
							"type": "uint256"
						}
					],
					"stateMutability": "view",
					"type": "function"
				},
				{
					"inputs": [
						{
							"internalType": "uint256",
							"name": "_requestId",
							"type": "uint256"
						}
					],
					"name": "getRequestStatus",
					"outputs": [
						{
							"internalType": "bool",
							"name": "fulfilled",
							"type": "bool"
						},
						{
							"internalType": "uint256[]",
							"name": "randomWords",
							"type": "uint256[]"
						}
					],
					"stateMutability": "view",
					"type": "function"
				},
				{
					"inputs": [],
					"name": "lastRequestId",
					"outputs": [
						{
							"internalType": "uint256",
							"name": "",
							"type": "uint256"
						}
					],
					"stateMutability": "view",
					"type": "function"
				},
				{
					"inputs": [],
					"name": "owner",
					"outputs": [
						{
							"internalType": "address",
							"name": "",
							"type": "address"
						}
					],
					"stateMutability": "view",
					"type": "function"
				},
				{
					"inputs": [
						{
							"internalType": "uint256",
							"name": "requestId",
							"type": "uint256"
						},
						{
							"internalType": "uint256[]",
							"name": "randomWords",
							"type": "uint256[]"
						}
					],
					"name": "rawFulfillRandomWords",
					"outputs": [],
					"stateMutability": "nonpayable",
					"type": "function"
				},
				{
					"inputs": [
						{
							"internalType": "uint256",
							"name": "",
							"type": "uint256"
						}
					],
					"name": "requestIds",
					"outputs": [
						{
							"internalType": "uint256",
							"name": "",
							"type": "uint256"
						}
					],
					"stateMutability": "view",
					"type": "function"
				},
				{
					"inputs": [],
					"name": "requestRandomWords",
					"outputs": [
						{
							"internalType": "uint256",
							"name": "requestId",
							"type": "uint256"
						}
					],
					"stateMutability": "nonpayable",
					"type": "function"
				},
				{
					"inputs": [
						{
							"internalType": "uint256",
							"name": "",
							"type": "uint256"
						}
					],
					"name": "s_requests",
					"outputs": [
						{
							"internalType": "bool",
							"name": "fulfilled",
							"type": "bool"
						},
						{
							"internalType": "bool",
							"name": "exists",
							"type": "bool"
						}
					],
					"stateMutability": "view",
					"type": "function"
				},
				{
					"inputs": [
						{
							"internalType": "address",
							"name": "to",
							"type": "address"
						}
					],
					"name": "transferOwnership",
					"outputs": [],
					"stateMutability": "nonpayable",
					"type": "function"
				}
			],
			"devdoc": {
				"kind": "dev",
				"methods": {},
				"version": 1
			},
			"evm": {
				"assembly": "    /* \"docs.chain.link/samples/VRF/VRFv2Consumer.sol\":260:3076  contract VRFv2Consumer is VRFConsumerBaseV2, ConfirmedOwner {... */\n  mstore(0x40, 0xa0)\n    /* \"docs.chain.link/samples/VRF/VRFv2Consumer.sol\":798:864  0x474e34a077df58807dbe9c96d3c009b23b3c6d0cce433e59bbf5b34f823bc56c */\n  0x474e34a077df58807dbe9c96d3c009b23b3c6d0cce433e59bbf5b34f823bc56c\n    /* \"docs.chain.link/samples/VRF/VRFv2Consumer.sol\":772:864  bytes32 keyHash =... */\n  0x00\n  shl\n  0x06\n  sstore\n    /* \"docs.chain.link/samples/VRF/VRFv2Consumer.sol\":897:903  100000 */\n  0x0186a0\n    /* \"docs.chain.link/samples/VRF/VRFv2Consumer.sol\":871:903  uint32 callbackGasLimit = 100000 */\n  0x07\n  exp(0x0100, 0x00)\n  dup2\n  sload\n  dup2\n  0xffffffff\n  mul\n  not\n  and\n  swap1\n  dup4\n  0xffffffff\n  and\n  mul\n  or\n  swap1\n  sstore\n  pop\n    /* \"docs.chain.link/samples/VRF/VRFv2Consumer.sol\":940:941  3 */\n  0x03\n    /* \"docs.chain.link/samples/VRF/VRFv2Consumer.sol\":910:941  uint16 requestConfirmations = 3 */\n  0x07\n  exp(0x0100, 0x04)\n  dup2\n  sload\n  dup2\n  0xffff\n  mul\n  not\n  and\n  swap1\n  dup4\n  0xffff\n  and\n  mul\n  or\n  swap1\n  sstore\n  pop\n    /* \"docs.chain.link/samples/VRF/VRFv2Consumer.sol\":966:967  3 */\n  0x03\n    /* \"docs.chain.link/samples/VRF/VRFv2Consumer.sol\":948:967  uint32 numWords = 3 */\n  0x07\n  exp(0x0100, 0x06)\n  dup2\n  sload\n  dup2\n  0xffffffff\n  mul\n  not\n  and\n  swap1\n  dup4\n  0xffffffff\n  and\n  mul\n  or\n  swap1\n  sstore\n  pop\n    /* \"docs.chain.link/samples/VRF/VRFv2Consumer.sol\":974:1297  constructor(... */\n  callvalue\n  dup1\n  iszero\n  tag_1\n  jumpi\n  0x00\n  dup1\n  revert\ntag_1:\n  pop\n  mload(0x40)\n  sub(codesize, bytecodeSize)\n  dup1\n  bytecodeSize\n  dup4\n  codecopy\n  dup2\n  dup2\n  add\n  0x40\n  mstore\n  dup2\n  add\n  swap1\n  tag_2\n  swap2\n  swap1\n  tag_3\n  jump\t// in\ntag_2:\n    /* \"docs.chain.link/samples/VRF/VRFv2Consumer.sol\":1116:1126  msg.sender */\n  caller\n    /* \"@chainlink/contracts/src/v0.8/ConfirmedOwner.sol\":327:335  newOwner */\n  dup1\n    /* \"@chainlink/contracts/src/v0.8/ConfirmedOwner.sol\":345:346  0 */\n  0x00\n    /* \"docs.chain.link/samples/VRF/VRFv2Consumer.sol\":1049:1091  0x8103B0A8A00be2DDC778e6e7eaa21791Cd364625 */\n  0x8103b0a8a00be2ddc778e6e7eaa21791cd364625\n    /* \"@chainlink/contracts/src/v0.8/VRFConsumerBaseV2.sol\":5616:5631  _vrfCoordinator */\n  dup1\n    /* \"@chainlink/contracts/src/v0.8/VRFConsumerBaseV2.sol\":5599:5631  vrfCoordinator = _vrfCoordinator */\n  0xffffffffffffffffffffffffffffffffffffffff\n  and\n  0x80\n  dup2\n  0xffffffffffffffffffffffffffffffffffffffff\n  and\n  dup2\n  mstore\n  pop\n  pop\n    /* \"@chainlink/contracts/src/v0.8/VRFConsumerBaseV2.sol\":5556:5636  constructor(address _vrfCoordinator) {... */\n  pop\n    /* \"@chainlink/contracts/src/v0.8/ConfirmedOwnerWithProposal.sol\":572:573  0 */\n  0x00\n    /* \"@chainlink/contracts/src/v0.8/ConfirmedOwnerWithProposal.sol\":552:574  newOwner != address(0) */\n  0xffffffffffffffffffffffffffffffffffffffff\n  and\n    /* \"@chainlink/contracts/src/v0.8/ConfirmedOwnerWithProposal.sol\":552:560  newOwner */\n  dup3\n    /* \"@chainlink/contracts/src/v0.8/ConfirmedOwnerWithProposal.sol\":552:574  newOwner != address(0) */\n  0xffffffffffffffffffffffffffffffffffffffff\n  and\n  sub\n    /* \"@chainlink/contracts/src/v0.8/ConfirmedOwnerWithProposal.sol\":544:603  require(newOwner != address(0), \"Cannot set owner to zero\") */\n  tag_10\n  jumpi\n  mload(0x40)\n  0x08c379a000000000000000000000000000000000000000000000000000000000\n  dup2\n  mstore\n  0x04\n  add\n  tag_11\n  swap1\n  tag_12\n  jump\t// in\ntag_11:\n  mload(0x40)\n  dup1\n  swap2\n  sub\n  swap1\n  revert\ntag_10:\n    /* \"@chainlink/contracts/src/v0.8/ConfirmedOwnerWithProposal.sol\":620:628  newOwner */\n  dup2\n    /* \"@chainlink/contracts/src/v0.8/ConfirmedOwnerWithProposal.sol\":610:617  s_owner */\n  0x00\n  dup1\n    /* \"@chainlink/contracts/src/v0.8/ConfirmedOwnerWithProposal.sol\":610:628  s_owner = newOwner */\n  0x0100\n  exp\n  dup2\n  sload\n  dup2\n  0xffffffffffffffffffffffffffffffffffffffff\n  mul\n  not\n  and\n  swap1\n  dup4\n  0xffffffffffffffffffffffffffffffffffffffff\n  and\n  mul\n  or\n  swap1\n  sstore\n  pop\n    /* \"@chainlink/contracts/src/v0.8/ConfirmedOwnerWithProposal.sol\":662:663  0 */\n  0x00\n    /* \"@chainlink/contracts/src/v0.8/ConfirmedOwnerWithProposal.sol\":638:664  pendingOwner != address(0) */\n  0xffffffffffffffffffffffffffffffffffffffff\n  and\n    /* \"@chainlink/contracts/src/v0.8/ConfirmedOwnerWithProposal.sol\":638:650  pendingOwner */\n  dup2\n    /* \"@chainlink/contracts/src/v0.8/ConfirmedOwnerWithProposal.sol\":638:664  pendingOwner != address(0) */\n  0xffffffffffffffffffffffffffffffffffffffff\n  and\n  eq\n    /* \"@chainlink/contracts/src/v0.8/ConfirmedOwnerWithProposal.sol\":634:713  if (pendingOwner != address(0)) {... */\n  tag_13\n  jumpi\n    /* \"@chainlink/contracts/src/v0.8/ConfirmedOwnerWithProposal.sol\":674:706  _transferOwnership(pendingOwner) */\n  tag_14\n    /* \"@chainlink/contracts/src/v0.8/ConfirmedOwnerWithProposal.sol\":693:705  pendingOwner */\n  dup2\n    /* \"@chainlink/contracts/src/v0.8/ConfirmedOwnerWithProposal.sol\":674:692  _transferOwnership */\n  shl(0x20, tag_15)\n    /* \"@chainlink/contracts/src/v0.8/ConfirmedOwnerWithProposal.sol\":674:706  _transferOwnership(pendingOwner) */\n  0x20\n  shr\n  jump\t// in\ntag_14:\n    /* \"@chainlink/contracts/src/v0.8/ConfirmedOwnerWithProposal.sol\":634:713  if (pendingOwner != address(0)) {... */\ntag_13:\n    /* \"@chainlink/contracts/src/v0.8/ConfirmedOwnerWithProposal.sol\":486:717  constructor(address newOwner, address pendingOwner) {... */\n  pop\n  pop\n    /* \"@chainlink/contracts/src/v0.8/ConfirmedOwner.sol\":270:351  constructor(address newOwner) ConfirmedOwnerWithProposal(newOwner, address(0)) {} */\n  pop\n    /* \"docs.chain.link/samples/VRF/VRFv2Consumer.sol\":1195:1237  0x8103B0A8A00be2DDC778e6e7eaa21791Cd364625 */\n  0x8103b0a8a00be2ddc778e6e7eaa21791cd364625\n    /* \"docs.chain.link/samples/VRF/VRFv2Consumer.sol\":1142:1153  COORDINATOR */\n  0x03\n  0x00\n    /* \"docs.chain.link/samples/VRF/VRFv2Consumer.sol\":1142:1247  COORDINATOR = VRFCoordinatorV2Interface(... */\n  0x0100\n  exp\n  dup2\n  sload\n  dup2\n  0xffffffffffffffffffffffffffffffffffffffff\n  mul\n  not\n  and\n  swap1\n  dup4\n  0xffffffffffffffffffffffffffffffffffffffff\n  and\n  mul\n  or\n  swap1\n  sstore\n  pop\n    /* \"docs.chain.link/samples/VRF/VRFv2Consumer.sol\":1276:1290  subscriptionId */\n  dup1\n    /* \"docs.chain.link/samples/VRF/VRFv2Consumer.sol\":1257:1273  s_subscriptionId */\n  0x03\n  0x14\n    /* \"docs.chain.link/samples/VRF/VRFv2Consumer.sol\":1257:1290  s_subscriptionId = subscriptionId */\n  0x0100\n  exp\n  dup2\n  sload\n  dup2\n  0xffffffffffffffff\n  mul\n  not\n  and\n  swap1\n  dup4\n  0xffffffffffffffff\n  and\n  mul\n  or\n  swap1\n  sstore\n  pop\n    /* \"docs.chain.link/samples/VRF/VRFv2Consumer.sol\":974:1297  constructor(... */\n  pop\n    /* \"docs.chain.link/samples/VRF/VRFv2Consumer.sol\":260:3076  contract VRFv2Consumer is VRFConsumerBaseV2, ConfirmedOwner {... */\n  jump(tag_18)\n    /* \"@chainlink/contracts/src/v0.8/ConfirmedOwnerWithProposal.sol\":1497:1685  function _transferOwnership(address to) private {... */\ntag_15:\n    /* \"@chainlink/contracts/src/v0.8/ConfirmedOwnerWithProposal.sol\":1565:1575  msg.sender */\n  caller\n    /* \"@chainlink/contracts/src/v0.8/ConfirmedOwnerWithProposal.sol\":1559:1575  to != msg.sender */\n  0xffffffffffffffffffffffffffffffffffffffff\n  and\n    /* \"@chainlink/contracts/src/v0.8/ConfirmedOwnerWithProposal.sol\":1559:1561  to */\n  dup2\n    /* \"@chainlink/contracts/src/v0.8/ConfirmedOwnerWithProposal.sol\":1559:1575  to != msg.sender */\n  0xffffffffffffffffffffffffffffffffffffffff\n  and\n  sub\n    /* \"@chainlink/contracts/src/v0.8/ConfirmedOwnerWithProposal.sol\":1551:1603  require(to != msg.sender, \"Cannot transfer to self\") */\n  tag_20\n  jumpi\n  mload(0x40)\n  0x08c379a000000000000000000000000000000000000000000000000000000000\n  dup2\n  mstore\n  0x04\n  add\n  tag_21\n  swap1\n  tag_22\n  jump\t// in\ntag_21:\n  mload(0x40)\n  dup1\n  swap2\n  sub\n  swap1\n  revert\ntag_20:\n    /* \"@chainlink/contracts/src/v0.8/ConfirmedOwnerWithProposal.sol\":1627:1629  to */\n  dup1\n    /* \"@chainlink/contracts/src/v0.8/ConfirmedOwnerWithProposal.sol\":1610:1624  s_pendingOwner */\n  0x01\n  0x00\n    /* \"@chainlink/contracts/src/v0.8/ConfirmedOwnerWithProposal.sol\":1610:1629  s_pendingOwner = to */\n  0x0100\n  exp\n  dup2\n  sload\n  dup2\n  0xffffffffffffffffffffffffffffffffffffffff\n  mul\n  not\n  and\n  swap1\n  dup4\n  0xffffffffffffffffffffffffffffffffffffffff\n  and\n  mul\n  or\n  swap1\n  sstore\n  pop\n    /* \"@chainlink/contracts/src/v0.8/ConfirmedOwnerWithProposal.sol\":1677:1679  to */\n  dup1\n    /* \"@chainlink/contracts/src/v0.8/ConfirmedOwnerWithProposal.sol\":1641:1680  OwnershipTransferRequested(s_owner, to) */\n  0xffffffffffffffffffffffffffffffffffffffff\n  and\n    /* \"@chainlink/contracts/src/v0.8/ConfirmedOwnerWithProposal.sol\":1668:1675  s_owner */\n  0x00\n  dup1\n  sload\n  swap1\n  0x0100\n  exp\n  swap1\n  div\n  0xffffffffffffffffffffffffffffffffffffffff\n  and\n    /* \"@chainlink/contracts/src/v0.8/ConfirmedOwnerWithProposal.sol\":1641:1680  OwnershipTransferRequested(s_owner, to) */\n  0xffffffffffffffffffffffffffffffffffffffff\n  and\n  0xed8889f560326eb138920d842192f0eb3dd22b4f139c87a2c57538e05bae1278\n  mload(0x40)\n  mload(0x40)\n  dup1\n  swap2\n  sub\n  swap1\n  log3\n    /* \"@chainlink/contracts/src/v0.8/ConfirmedOwnerWithProposal.sol\":1497:1685  function _transferOwnership(address to) private {... */\n  pop\n  jump\t// out\n    /* \"#utility.yul\":88:205   */\ntag_24:\n    /* \"#utility.yul\":197:198   */\n  0x00\n    /* \"#utility.yul\":194:195   */\n  dup1\n    /* \"#utility.yul\":187:199   */\n  revert\n    /* \"#utility.yul\":334:435   */\ntag_26:\n    /* \"#utility.yul\":370:377   */\n  0x00\n    /* \"#utility.yul\":410:428   */\n  0xffffffffffffffff\n    /* \"#utility.yul\":403:408   */\n  dup3\n    /* \"#utility.yul\":399:429   */\n  and\n    /* \"#utility.yul\":388:429   */\n  swap1\n  pop\n    /* \"#utility.yul\":334:435   */\n  swap2\n  swap1\n  pop\n  jump\t// out\n    /* \"#utility.yul\":441:561   */\ntag_27:\n    /* \"#utility.yul\":513:536   */\n  tag_40\n    /* \"#utility.yul\":530:535   */\n  dup2\n    /* \"#utility.yul\":513:536   */\n  tag_26\n  jump\t// in\ntag_40:\n    /* \"#utility.yul\":506:511   */\n  dup2\n    /* \"#utility.yul\":503:537   */\n  eq\n    /* \"#utility.yul\":493:555   */\n  tag_41\n  jumpi\n    /* \"#utility.yul\":551:552   */\n  0x00\n    /* \"#utility.yul\":548:549   */\n  dup1\n    /* \"#utility.yul\":541:553   */\n  revert\n    /* \"#utility.yul\":493:555   */\ntag_41:\n    /* \"#utility.yul\":441:561   */\n  pop\n  jump\t// out\n    /* \"#utility.yul\":567:708   */\ntag_28:\n    /* \"#utility.yul\":623:628   */\n  0x00\n    /* \"#utility.yul\":654:660   */\n  dup2\n    /* \"#utility.yul\":648:661   */\n  mload\n    /* \"#utility.yul\":639:661   */\n  swap1\n  pop\n    /* \"#utility.yul\":670:702   */\n  tag_43\n    /* \"#utility.yul\":696:701   */\n  dup2\n    /* \"#utility.yul\":670:702   */\n  tag_27\n  jump\t// in\ntag_43:\n    /* \"#utility.yul\":567:708   */\n  swap3\n  swap2\n  pop\n  pop\n  jump\t// out\n    /* \"#utility.yul\":714:1063   */\ntag_3:\n    /* \"#utility.yul\":783:789   */\n  0x00\n    /* \"#utility.yul\":832:834   */\n  0x20\n    /* \"#utility.yul\":820:829   */\n  dup3\n    /* \"#utility.yul\":811:818   */\n  dup5\n    /* \"#utility.yul\":807:830   */\n  sub\n    /* \"#utility.yul\":803:835   */\n  slt\n    /* \"#utility.yul\":800:919   */\n  iszero\n  tag_45\n  jumpi\n    /* \"#utility.yul\":838:917   */\n  tag_46\n  tag_24\n  jump\t// in\ntag_46:\n    /* \"#utility.yul\":800:919   */\ntag_45:\n    /* \"#utility.yul\":958:959   */\n  0x00\n    /* \"#utility.yul\":983:1046   */\n  tag_47\n    /* \"#utility.yul\":1038:1045   */\n  dup5\n    /* \"#utility.yul\":1029:1035   */\n  dup3\n    /* \"#utility.yul\":1018:1027   */\n  dup6\n    /* \"#utility.yul\":1014:1036   */\n  add\n    /* \"#utility.yul\":983:1046   */\n  tag_28\n  jump\t// in\ntag_47:\n    /* \"#utility.yul\":973:1046   */\n  swap2\n  pop\n    /* \"#utility.yul\":929:1056   */\n  pop\n    /* \"#utility.yul\":714:1063   */\n  swap3\n  swap2\n  pop\n  pop\n  jump\t// out\n    /* \"#utility.yul\":1069:1238   */\ntag_29:\n    /* \"#utility.yul\":1153:1164   */\n  0x00\n    /* \"#utility.yul\":1187:1193   */\n  dup3\n    /* \"#utility.yul\":1182:1185   */\n  dup3\n    /* \"#utility.yul\":1175:1194   */\n  mstore\n    /* \"#utility.yul\":1227:1231   */\n  0x20\n    /* \"#utility.yul\":1222:1225   */\n  dup3\n    /* \"#utility.yul\":1218:1232   */\n  add\n    /* \"#utility.yul\":1203:1232   */\n  swap1\n  pop\n    /* \"#utility.yul\":1069:1238   */\n  swap3\n  swap2\n  pop\n  pop\n  jump\t// out\n    /* \"#utility.yul\":1244:1418   */\ntag_30:\n    /* \"#utility.yul\":1384:1410   */\n  0x43616e6e6f7420736574206f776e657220746f207a65726f0000000000000000\n    /* \"#utility.yul\":1380:1381   */\n  0x00\n    /* \"#utility.yul\":1372:1378   */\n  dup3\n    /* \"#utility.yul\":1368:1382   */\n  add\n    /* \"#utility.yul\":1361:1411   */\n  mstore\n    /* \"#utility.yul\":1244:1418   */\n  pop\n  jump\t// out\n    /* \"#utility.yul\":1424:1790   */\ntag_31:\n    /* \"#utility.yul\":1566:1569   */\n  0x00\n    /* \"#utility.yul\":1587:1654   */\n  tag_51\n    /* \"#utility.yul\":1651:1653   */\n  0x18\n    /* \"#utility.yul\":1646:1649   */\n  dup4\n    /* \"#utility.yul\":1587:1654   */\n  tag_29\n  jump\t// in\ntag_51:\n    /* \"#utility.yul\":1580:1654   */\n  swap2\n  pop\n    /* \"#utility.yul\":1663:1756   */\n  tag_52\n    /* \"#utility.yul\":1752:1755   */\n  dup3\n    /* \"#utility.yul\":1663:1756   */\n  tag_30\n  jump\t// in\ntag_52:\n    /* \"#utility.yul\":1781:1783   */\n  0x20\n    /* \"#utility.yul\":1776:1779   */\n  dup3\n    /* \"#utility.yul\":1772:1784   */\n  add\n    /* \"#utility.yul\":1765:1784   */\n  swap1\n  pop\n    /* \"#utility.yul\":1424:1790   */\n  swap2\n  swap1\n  pop\n  jump\t// out\n    /* \"#utility.yul\":1796:2215   */\ntag_12:\n    /* \"#utility.yul\":1962:1966   */\n  0x00\n    /* \"#utility.yul\":2000:2002   */\n  0x20\n    /* \"#utility.yul\":1989:1998   */\n  dup3\n    /* \"#utility.yul\":1985:2003   */\n  add\n    /* \"#utility.yul\":1977:2003   */\n  swap1\n  pop\n    /* \"#utility.yul\":2049:2058   */\n  dup2\n    /* \"#utility.yul\":2043:2047   */\n  dup2\n    /* \"#utility.yul\":2039:2059   */\n  sub\n    /* \"#utility.yul\":2035:2036   */\n  0x00\n    /* \"#utility.yul\":2024:2033   */\n  dup4\n    /* \"#utility.yul\":2020:2037   */\n  add\n    /* \"#utility.yul\":2013:2060   */\n  mstore\n    /* \"#utility.yul\":2077:2208   */\n  tag_54\n    /* \"#utility.yul\":2203:2207   */\n  dup2\n    /* \"#utility.yul\":2077:2208   */\n  tag_31\n  jump\t// in\ntag_54:\n    /* \"#utility.yul\":2069:2208   */\n  swap1\n  pop\n    /* \"#utility.yul\":1796:2215   */\n  swap2\n  swap1\n  pop\n  jump\t// out\n    /* \"#utility.yul\":2221:2394   */\ntag_32:\n    /* \"#utility.yul\":2361:2386   */\n  0x43616e6e6f74207472616e7366657220746f2073656c66000000000000000000\n    /* \"#utility.yul\":2357:2358   */\n  0x00\n    /* \"#utility.yul\":2349:2355   */\n  dup3\n    /* \"#utility.yul\":2345:2359   */\n  add\n    /* \"#utility.yul\":2338:2387   */\n  mstore\n    /* \"#utility.yul\":2221:2394   */\n  pop\n  jump\t// out\n    /* \"#utility.yul\":2400:2766   */\ntag_33:\n    /* \"#utility.yul\":2542:2545   */\n  0x00\n    /* \"#utility.yul\":2563:2630   */\n  tag_57\n    /* \"#utility.yul\":2627:2629   */\n  0x17\n    /* \"#utility.yul\":2622:2625   */\n  dup4\n    /* \"#utility.yul\":2563:2630   */\n  tag_29\n  jump\t// in\ntag_57:\n    /* \"#utility.yul\":2556:2630   */\n  swap2\n  pop\n    /* \"#utility.yul\":2639:2732   */\n  tag_58\n    /* \"#utility.yul\":2728:2731   */\n  dup3\n    /* \"#utility.yul\":2639:2732   */\n  tag_32\n  jump\t// in\ntag_58:\n    /* \"#utility.yul\":2757:2759   */\n  0x20\n    /* \"#utility.yul\":2752:2755   */\n  dup3\n    /* \"#utility.yul\":2748:2760   */\n  add\n    /* \"#utility.yul\":2741:2760   */\n  swap1\n  pop\n    /* \"#utility.yul\":2400:2766   */\n  swap2\n  swap1\n  pop\n  jump\t// out\n    /* \"#utility.yul\":2772:3191   */\ntag_22:\n    /* \"#utility.yul\":2938:2942   */\n  0x00\n    /* \"#utility.yul\":2976:2978   */\n  0x20\n    /* \"#utility.yul\":2965:2974   */\n  dup3\n    /* \"#utility.yul\":2961:2979   */\n  add\n    /* \"#utility.yul\":2953:2979   */\n  swap1\n  pop\n    /* \"#utility.yul\":3025:3034   */\n  dup2\n    /* \"#utility.yul\":3019:3023   */\n  dup2\n    /* \"#utility.yul\":3015:3035   */\n  sub\n    /* \"#utility.yul\":3011:3012   */\n  0x00\n    /* \"#utility.yul\":3000:3009   */\n  dup4\n    /* \"#utility.yul\":2996:3013   */\n  add\n    /* \"#utility.yul\":2989:3036   */\n  mstore\n    /* \"#utility.yul\":3053:3184   */\n  tag_60\n    /* \"#utility.yul\":3179:3183   */\n  dup2\n    /* \"#utility.yul\":3053:3184   */\n  tag_33\n  jump\t// in\ntag_60:\n    /* \"#utility.yul\":3045:3184   */\n  swap1\n  pop\n    /* \"#utility.yul\":2772:3191   */\n  swap2\n  swap1\n  pop\n  jump\t// out\n    /* \"docs.chain.link/samples/VRF/VRFv2Consumer.sol\":260:3076  contract VRFv2Consumer is VRFConsumerBaseV2, ConfirmedOwner {... */\ntag_18:\n  mload(0x80)\n  codecopy(0x00, dataOffset(sub_0), dataSize(sub_0))\n  0x00\n  assignImmutable(\"0xa75e2cf51d42f4164e4624f425e61448777a748393b6f6a5bcb1d94d1e8e5e98\")\n  return(0x00, dataSize(sub_0))\nstop\n\nsub_0: assembly {\n        /* \"docs.chain.link/samples/VRF/VRFv2Consumer.sol\":260:3076  contract VRFv2Consumer is VRFConsumerBaseV2, ConfirmedOwner {... */\n      mstore(0x40, 0x80)\n      callvalue\n      dup1\n      iszero\n      tag_1\n      jumpi\n      0x00\n      dup1\n      revert\n    tag_1:\n      pop\n      jumpi(tag_2, lt(calldatasize, 0x04))\n      shr(0xe0, calldataload(0x00))\n      dup1\n      0xa168fa89\n      gt\n      tag_13\n      jumpi\n      dup1\n      0xa168fa89\n      eq\n      tag_8\n      jumpi\n      dup1\n      0xd8a4676f\n      eq\n      tag_9\n      jumpi\n      dup1\n      0xe0c86289\n      eq\n      tag_10\n      jumpi\n      dup1\n      0xf2fde38b\n      eq\n      tag_11\n      jumpi\n      dup1\n      0xfc2a88c3\n      eq\n      tag_12\n      jumpi\n      jump(tag_2)\n    tag_13:\n      dup1\n      0x1fe543e3\n      eq\n      tag_3\n      jumpi\n      dup1\n      0x5787838b\n      eq\n      tag_4\n      jumpi\n      dup1\n      0x79ba5097\n      eq\n      tag_5\n      jumpi\n      dup1\n      0x8796ba8c\n      eq\n      tag_6\n      jumpi\n      dup1\n      0x8da5cb5b\n      eq\n      tag_7\n      jumpi\n    tag_2:\n      0x00\n      dup1\n      revert\n        /* \"@chainlink/contracts/src/v0.8/VRFConsumerBaseV2.sol\":6618:6874  function rawFulfillRandomWords(uint256 requestId, uint256[] memory randomWords) external {... */\n    tag_3:\n      tag_14\n      0x04\n      dup1\n      calldatasize\n      sub\n      dup2\n      add\n      swap1\n      tag_15\n      swap2\n      swap1\n      tag_16\n      jump\t// in\n    tag_15:\n      tag_17\n      jump\t// in\n    tag_14:\n      stop\n        /* \"docs.chain.link/samples/VRF/VRFv2Consumer.sol\":2619:3074  function getRandomThreeCards(uint256 _requestId) external view returns(uint256 card1, uint256 card2, uint256 card3){... */\n    tag_4:\n      tag_18\n      0x04\n      dup1\n      calldatasize\n      sub\n      dup2\n      add\n      swap1\n      tag_19\n      swap2\n      swap1\n      tag_20\n      jump\t// in\n    tag_19:\n      tag_21\n      jump\t// in\n    tag_18:\n      mload(0x40)\n      tag_22\n      swap4\n      swap3\n      swap2\n      swap1\n      tag_23\n      jump\t// in\n    tag_22:\n      mload(0x40)\n      dup1\n      swap2\n      sub\n      swap1\n      return\n        /* \"@chainlink/contracts/src/v0.8/ConfirmedOwnerWithProposal.sol\":1016:1281  function acceptOwnership() external override {... */\n    tag_5:\n      tag_24\n      tag_25\n      jump\t// in\n    tag_24:\n      stop\n        /* \"docs.chain.link/samples/VRF/VRFv2Consumer.sol\":704:731  uint256[] public requestIds */\n    tag_6:\n      tag_26\n      0x04\n      dup1\n      calldatasize\n      sub\n      dup2\n      add\n      swap1\n      tag_27\n      swap2\n      swap1\n      tag_20\n      jump\t// in\n    tag_27:\n      tag_28\n      jump\t// in\n    tag_26:\n      mload(0x40)\n      tag_29\n      swap2\n      swap1\n      tag_30\n      jump\t// in\n    tag_29:\n      mload(0x40)\n      dup1\n      swap2\n      sub\n      swap1\n      return\n        /* \"@chainlink/contracts/src/v0.8/ConfirmedOwnerWithProposal.sol\":1332:1413  function owner() public view override returns (address) {... */\n    tag_7:\n      tag_31\n      tag_32\n      jump\t// in\n    tag_31:\n      mload(0x40)\n      tag_33\n      swap2\n      swap1\n      tag_34\n      jump\t// in\n    tag_33:\n      mload(0x40)\n      dup1\n      swap2\n      sub\n      swap1\n      return\n        /* \"docs.chain.link/samples/VRF/VRFv2Consumer.sol\":565:624  mapping(uint256 => RequestStatus)... */\n    tag_8:\n      tag_35\n      0x04\n      dup1\n      calldatasize\n      sub\n      dup2\n      add\n      swap1\n      tag_36\n      swap2\n      swap1\n      tag_20\n      jump\t// in\n    tag_36:\n      tag_37\n      jump\t// in\n    tag_35:\n      mload(0x40)\n      tag_38\n      swap3\n      swap2\n      swap1\n      tag_39\n      jump\t// in\n    tag_38:\n      mload(0x40)\n      dup1\n      swap2\n      sub\n      swap1\n      return\n        /* \"docs.chain.link/samples/VRF/VRFv2Consumer.sol\":2288:2613  function getRequestStatus(... */\n    tag_9:\n      tag_40\n      0x04\n      dup1\n      calldatasize\n      sub\n      dup2\n      add\n      swap1\n      tag_41\n      swap2\n      swap1\n      tag_20\n      jump\t// in\n    tag_41:\n      tag_42\n      jump\t// in\n    tag_40:\n      mload(0x40)\n      tag_43\n      swap3\n      swap2\n      swap1\n      tag_44\n      jump\t// in\n    tag_43:\n      mload(0x40)\n      dup1\n      swap2\n      sub\n      swap1\n      return\n        /* \"docs.chain.link/samples/VRF/VRFv2Consumer.sol\":1303:1916  function requestRandomWords()... */\n    tag_10:\n      tag_45\n      tag_46\n      jump\t// in\n    tag_45:\n      mload(0x40)\n      tag_47\n      swap2\n      swap1\n      tag_30\n      jump\t// in\n    tag_47:\n      mload(0x40)\n      dup1\n      swap2\n      sub\n      swap1\n      return\n        /* \"@chainlink/contracts/src/v0.8/ConfirmedOwnerWithProposal.sol\":826:924  function transferOwnership(address to) public override onlyOwner {... */\n    tag_11:\n      tag_48\n      0x04\n      dup1\n      calldatasize\n      sub\n      dup2\n      add\n      swap1\n      tag_49\n      swap2\n      swap1\n      tag_50\n      jump\t// in\n    tag_49:\n      tag_51\n      jump\t// in\n    tag_48:\n      stop\n        /* \"docs.chain.link/samples/VRF/VRFv2Consumer.sol\":737:765  uint256 public lastRequestId */\n    tag_12:\n      tag_52\n      tag_53\n      jump\t// in\n    tag_52:\n      mload(0x40)\n      tag_54\n      swap2\n      swap1\n      tag_30\n      jump\t// in\n    tag_54:\n      mload(0x40)\n      dup1\n      swap2\n      sub\n      swap1\n      return\n        /* \"@chainlink/contracts/src/v0.8/VRFConsumerBaseV2.sol\":6618:6874  function rawFulfillRandomWords(uint256 requestId, uint256[] memory randomWords) external {... */\n    tag_17:\n        /* \"@chainlink/contracts/src/v0.8/VRFConsumerBaseV2.sol\":6731:6745  vrfCoordinator */\n      immutable(\"0xa75e2cf51d42f4164e4624f425e61448777a748393b6f6a5bcb1d94d1e8e5e98\")\n        /* \"@chainlink/contracts/src/v0.8/VRFConsumerBaseV2.sol\":6717:6745  msg.sender != vrfCoordinator */\n      0xffffffffffffffffffffffffffffffffffffffff\n      and\n        /* \"@chainlink/contracts/src/v0.8/VRFConsumerBaseV2.sol\":6717:6727  msg.sender */\n      caller\n        /* \"@chainlink/contracts/src/v0.8/VRFConsumerBaseV2.sol\":6717:6745  msg.sender != vrfCoordinator */\n      0xffffffffffffffffffffffffffffffffffffffff\n      and\n      eq\n        /* \"@chainlink/contracts/src/v0.8/VRFConsumerBaseV2.sol\":6713:6822  if (msg.sender != vrfCoordinator) {... */\n      tag_56\n      jumpi\n        /* \"@chainlink/contracts/src/v0.8/VRFConsumerBaseV2.sol\":6788:6798  msg.sender */\n      caller\n        /* \"@chainlink/contracts/src/v0.8/VRFConsumerBaseV2.sol\":6800:6814  vrfCoordinator */\n      immutable(\"0xa75e2cf51d42f4164e4624f425e61448777a748393b6f6a5bcb1d94d1e8e5e98\")\n        /* \"@chainlink/contracts/src/v0.8/VRFConsumerBaseV2.sol\":6762:6815  OnlyCoordinatorCanFulfill(msg.sender, vrfCoordinator) */\n      mload(0x40)\n      0x1cf993f400000000000000000000000000000000000000000000000000000000\n      dup2\n      mstore\n      0x04\n      add\n      tag_57\n      swap3\n      swap2\n      swap1\n      tag_58\n      jump\t// in\n    tag_57:\n      mload(0x40)\n      dup1\n      swap2\n      sub\n      swap1\n      revert\n        /* \"@chainlink/contracts/src/v0.8/VRFConsumerBaseV2.sol\":6713:6822  if (msg.sender != vrfCoordinator) {... */\n    tag_56:\n        /* \"@chainlink/contracts/src/v0.8/VRFConsumerBaseV2.sol\":6827:6869  fulfillRandomWords(requestId, randomWords) */\n      tag_59\n        /* \"@chainlink/contracts/src/v0.8/VRFConsumerBaseV2.sol\":6846:6855  requestId */\n      dup3\n        /* \"@chainlink/contracts/src/v0.8/VRFConsumerBaseV2.sol\":6857:6868  randomWords */\n      dup3\n        /* \"@chainlink/contracts/src/v0.8/VRFConsumerBaseV2.sol\":6827:6845  fulfillRandomWords */\n      tag_60\n        /* \"@chainlink/contracts/src/v0.8/VRFConsumerBaseV2.sol\":6827:6869  fulfillRandomWords(requestId, randomWords) */\n      jump\t// in\n    tag_59:\n        /* \"@chainlink/contracts/src/v0.8/VRFConsumerBaseV2.sol\":6618:6874  function rawFulfillRandomWords(uint256 requestId, uint256[] memory randomWords) external {... */\n      pop\n      pop\n      jump\t// out\n        /* \"docs.chain.link/samples/VRF/VRFv2Consumer.sol\":2619:3074  function getRandomThreeCards(uint256 _requestId) external view returns(uint256 card1, uint256 card2, uint256 card3){... */\n    tag_21:\n        /* \"docs.chain.link/samples/VRF/VRFv2Consumer.sol\":2690:2703  uint256 card1 */\n      0x00\n        /* \"docs.chain.link/samples/VRF/VRFv2Consumer.sol\":2705:2718  uint256 card2 */\n      dup1\n        /* \"docs.chain.link/samples/VRF/VRFv2Consumer.sol\":2720:2733  uint256 card3 */\n      0x00\n        /* \"docs.chain.link/samples/VRF/VRFv2Consumer.sol\":2752:2762  s_requests */\n      0x02\n        /* \"docs.chain.link/samples/VRF/VRFv2Consumer.sol\":2752:2774  s_requests[_requestId] */\n      0x00\n        /* \"docs.chain.link/samples/VRF/VRFv2Consumer.sol\":2763:2773  _requestId */\n      dup6\n        /* \"docs.chain.link/samples/VRF/VRFv2Consumer.sol\":2752:2774  s_requests[_requestId] */\n      dup2\n      mstore\n      0x20\n      add\n      swap1\n      dup2\n      mstore\n      0x20\n      add\n      0x00\n      keccak256\n        /* \"docs.chain.link/samples/VRF/VRFv2Consumer.sol\":2752:2781  s_requests[_requestId].exists */\n      0x00\n      add\n      0x01\n      swap1\n      sload\n      swap1\n      0x0100\n      exp\n      swap1\n      div\n      0xff\n      and\n        /* \"docs.chain.link/samples/VRF/VRFv2Consumer.sol\":2744:2803  require(s_requests[_requestId].exists, \"request not found\") */\n      tag_62\n      jumpi\n      mload(0x40)\n      0x08c379a000000000000000000000000000000000000000000000000000000000\n      dup2\n      mstore\n      0x04\n      add\n      tag_63\n      swap1\n      tag_64\n      jump\t// in\n    tag_63:\n      mload(0x40)\n      dup1\n      swap2\n      sub\n      swap1\n      revert\n    tag_62:\n        /* \"docs.chain.link/samples/VRF/VRFv2Consumer.sol\":2821:2831  s_requests */\n      0x02\n        /* \"docs.chain.link/samples/VRF/VRFv2Consumer.sol\":2821:2843  s_requests[_requestId] */\n      0x00\n        /* \"docs.chain.link/samples/VRF/VRFv2Consumer.sol\":2832:2842  _requestId */\n      dup6\n        /* \"docs.chain.link/samples/VRF/VRFv2Consumer.sol\":2821:2843  s_requests[_requestId] */\n      dup2\n      mstore\n      0x20\n      add\n      swap1\n      dup2\n      mstore\n      0x20\n      add\n      0x00\n      keccak256\n        /* \"docs.chain.link/samples/VRF/VRFv2Consumer.sol\":2821:2853  s_requests[_requestId].fulfilled */\n      0x00\n      add\n      0x00\n      swap1\n      sload\n      swap1\n      0x0100\n      exp\n      swap1\n      div\n      0xff\n      and\n        /* \"docs.chain.link/samples/VRF/VRFv2Consumer.sol\":2813:2874  require(s_requests[_requestId].fulfilled,\"Not yet fulfilled\") */\n      tag_65\n      jumpi\n      mload(0x40)\n      0x08c379a000000000000000000000000000000000000000000000000000000000\n      dup2\n      mstore\n      0x04\n      add\n      tag_66\n      swap1\n      tag_67\n      jump\t// in\n    tag_66:\n      mload(0x40)\n      dup1\n      swap2\n      sub\n      swap1\n      revert\n    tag_65:\n        /* \"docs.chain.link/samples/VRF/VRFv2Consumer.sol\":2943:2945  13 */\n      0x0d\n        /* \"docs.chain.link/samples/VRF/VRFv2Consumer.sol\":2905:2915  s_requests */\n      0x02\n        /* \"docs.chain.link/samples/VRF/VRFv2Consumer.sol\":2905:2927  s_requests[_requestId] */\n      0x00\n        /* \"docs.chain.link/samples/VRF/VRFv2Consumer.sol\":2916:2926  _requestId */\n      dup7\n        /* \"docs.chain.link/samples/VRF/VRFv2Consumer.sol\":2905:2927  s_requests[_requestId] */\n      dup2\n      mstore\n      0x20\n      add\n      swap1\n      dup2\n      mstore\n      0x20\n      add\n      0x00\n      keccak256\n        /* \"docs.chain.link/samples/VRF/VRFv2Consumer.sol\":2905:2939  s_requests[_requestId].randomWords */\n      0x01\n      add\n        /* \"docs.chain.link/samples/VRF/VRFv2Consumer.sol\":2940:2941  0 */\n      0x00\n        /* \"docs.chain.link/samples/VRF/VRFv2Consumer.sol\":2905:2942  s_requests[_requestId].randomWords[0] */\n      dup2\n      sload\n      dup2\n      lt\n      tag_68\n      jumpi\n      tag_69\n      tag_70\n      jump\t// in\n    tag_69:\n    tag_68:\n      swap1\n      0x00\n      mstore\n      keccak256(0x00, 0x20)\n      add\n      sload\n        /* \"docs.chain.link/samples/VRF/VRFv2Consumer.sol\":2905:2945  s_requests[_requestId].randomWords[0]%13 */\n      tag_72\n      swap2\n      swap1\n      tag_73\n      jump\t// in\n    tag_72:\n        /* \"docs.chain.link/samples/VRF/VRFv2Consumer.sol\":2997:2999  13 */\n      0x0d\n        /* \"docs.chain.link/samples/VRF/VRFv2Consumer.sol\":2959:2969  s_requests */\n      0x02\n        /* \"docs.chain.link/samples/VRF/VRFv2Consumer.sol\":2959:2981  s_requests[_requestId] */\n      0x00\n        /* \"docs.chain.link/samples/VRF/VRFv2Consumer.sol\":2970:2980  _requestId */\n      dup8\n        /* \"docs.chain.link/samples/VRF/VRFv2Consumer.sol\":2959:2981  s_requests[_requestId] */\n      dup2\n      mstore\n      0x20\n      add\n      swap1\n      dup2\n      mstore\n      0x20\n      add\n      0x00\n      keccak256\n        /* \"docs.chain.link/samples/VRF/VRFv2Consumer.sol\":2959:2993  s_requests[_requestId].randomWords */\n      0x01\n      add\n        /* \"docs.chain.link/samples/VRF/VRFv2Consumer.sol\":2994:2995  0 */\n      0x00\n        /* \"docs.chain.link/samples/VRF/VRFv2Consumer.sol\":2959:2996  s_requests[_requestId].randomWords[0] */\n      dup2\n      sload\n      dup2\n      lt\n      tag_74\n      jumpi\n      tag_75\n      tag_70\n      jump\t// in\n    tag_75:\n    tag_74:\n      swap1\n      0x00\n      mstore\n      keccak256(0x00, 0x20)\n      add\n      sload\n        /* \"docs.chain.link/samples/VRF/VRFv2Consumer.sol\":2959:2999  s_requests[_requestId].randomWords[0]%13 */\n      tag_77\n      swap2\n      swap1\n      tag_73\n      jump\t// in\n    tag_77:\n        /* \"docs.chain.link/samples/VRF/VRFv2Consumer.sol\":3051:3053  13 */\n      0x0d\n        /* \"docs.chain.link/samples/VRF/VRFv2Consumer.sol\":3013:3023  s_requests */\n      0x02\n        /* \"docs.chain.link/samples/VRF/VRFv2Consumer.sol\":3013:3035  s_requests[_requestId] */\n      0x00\n        /* \"docs.chain.link/samples/VRF/VRFv2Consumer.sol\":3024:3034  _requestId */\n      dup9\n        /* \"docs.chain.link/samples/VRF/VRFv2Consumer.sol\":3013:3035  s_requests[_requestId] */\n      dup2\n      mstore\n      0x20\n      add\n      swap1\n      dup2\n      mstore\n      0x20\n      add\n      0x00\n      keccak256\n        /* \"docs.chain.link/samples/VRF/VRFv2Consumer.sol\":3013:3047  s_requests[_requestId].randomWords */\n      0x01\n      add\n        /* \"docs.chain.link/samples/VRF/VRFv2Consumer.sol\":3048:3049  0 */\n      0x00\n        /* \"docs.chain.link/samples/VRF/VRFv2Consumer.sol\":3013:3050  s_requests[_requestId].randomWords[0] */\n      dup2\n      sload\n      dup2\n      lt\n      tag_78\n      jumpi\n      tag_79\n      tag_70\n      jump\t// in\n    tag_79:\n    tag_78:\n      swap1\n      0x00\n      mstore\n      keccak256(0x00, 0x20)\n      add\n      sload\n        /* \"docs.chain.link/samples/VRF/VRFv2Consumer.sol\":3013:3053  s_requests[_requestId].randomWords[0]%13 */\n      tag_81\n      swap2\n      swap1\n      tag_73\n      jump\t// in\n    tag_81:\n        /* \"docs.chain.link/samples/VRF/VRFv2Consumer.sol\":2884:3067  return (... */\n      swap3\n      pop\n      swap3\n      pop\n      swap3\n      pop\n        /* \"docs.chain.link/samples/VRF/VRFv2Consumer.sol\":2619:3074  function getRandomThreeCards(uint256 _requestId) external view returns(uint256 card1, uint256 card2, uint256 card3){... */\n      swap2\n      swap4\n      swap1\n      swap3\n      pop\n      jump\t// out\n        /* \"@chainlink/contracts/src/v0.8/ConfirmedOwnerWithProposal.sol\":1016:1281  function acceptOwnership() external override {... */\n    tag_25:\n        /* \"@chainlink/contracts/src/v0.8/ConfirmedOwnerWithProposal.sol\":1089:1103  s_pendingOwner */\n      0x01\n      0x00\n      swap1\n      sload\n      swap1\n      0x0100\n      exp\n      swap1\n      div\n      0xffffffffffffffffffffffffffffffffffffffff\n      and\n        /* \"@chainlink/contracts/src/v0.8/ConfirmedOwnerWithProposal.sol\":1075:1103  msg.sender == s_pendingOwner */\n      0xffffffffffffffffffffffffffffffffffffffff\n      and\n        /* \"@chainlink/contracts/src/v0.8/ConfirmedOwnerWithProposal.sol\":1075:1085  msg.sender */\n      caller\n        /* \"@chainlink/contracts/src/v0.8/ConfirmedOwnerWithProposal.sol\":1075:1103  msg.sender == s_pendingOwner */\n      0xffffffffffffffffffffffffffffffffffffffff\n      and\n      eq\n        /* \"@chainlink/contracts/src/v0.8/ConfirmedOwnerWithProposal.sol\":1067:1130  require(msg.sender == s_pendingOwner, \"Must be proposed owner\") */\n      tag_83\n      jumpi\n      mload(0x40)\n      0x08c379a000000000000000000000000000000000000000000000000000000000\n      dup2\n      mstore\n      0x04\n      add\n      tag_84\n      swap1\n      tag_85\n      jump\t// in\n    tag_84:\n      mload(0x40)\n      dup1\n      swap2\n      sub\n      swap1\n      revert\n    tag_83:\n        /* \"@chainlink/contracts/src/v0.8/ConfirmedOwnerWithProposal.sol\":1137:1153  address oldOwner */\n      0x00\n        /* \"@chainlink/contracts/src/v0.8/ConfirmedOwnerWithProposal.sol\":1156:1163  s_owner */\n      dup1\n      0x00\n      swap1\n      sload\n      swap1\n      0x0100\n      exp\n      swap1\n      div\n      0xffffffffffffffffffffffffffffffffffffffff\n      and\n        /* \"@chainlink/contracts/src/v0.8/ConfirmedOwnerWithProposal.sol\":1137:1163  address oldOwner = s_owner */\n      swap1\n      pop\n        /* \"@chainlink/contracts/src/v0.8/ConfirmedOwnerWithProposal.sol\":1179:1189  msg.sender */\n      caller\n        /* \"@chainlink/contracts/src/v0.8/ConfirmedOwnerWithProposal.sol\":1169:1176  s_owner */\n      0x00\n      dup1\n        /* \"@chainlink/contracts/src/v0.8/ConfirmedOwnerWithProposal.sol\":1169:1189  s_owner = msg.sender */\n      0x0100\n      exp\n      dup2\n      sload\n      dup2\n      0xffffffffffffffffffffffffffffffffffffffff\n      mul\n      not\n      and\n      swap1\n      dup4\n      0xffffffffffffffffffffffffffffffffffffffff\n      and\n      mul\n      or\n      swap1\n      sstore\n      pop\n        /* \"@chainlink/contracts/src/v0.8/ConfirmedOwnerWithProposal.sol\":1220:1221  0 */\n      0x00\n        /* \"@chainlink/contracts/src/v0.8/ConfirmedOwnerWithProposal.sol\":1195:1209  s_pendingOwner */\n      0x01\n      0x00\n        /* \"@chainlink/contracts/src/v0.8/ConfirmedOwnerWithProposal.sol\":1195:1222  s_pendingOwner = address(0) */\n      0x0100\n      exp\n      dup2\n      sload\n      dup2\n      0xffffffffffffffffffffffffffffffffffffffff\n      mul\n      not\n      and\n      swap1\n      dup4\n      0xffffffffffffffffffffffffffffffffffffffff\n      and\n      mul\n      or\n      swap1\n      sstore\n      pop\n        /* \"@chainlink/contracts/src/v0.8/ConfirmedOwnerWithProposal.sol\":1265:1275  msg.sender */\n      caller\n        /* \"@chainlink/contracts/src/v0.8/ConfirmedOwnerWithProposal.sol\":1234:1276  OwnershipTransferred(oldOwner, msg.sender) */\n      0xffffffffffffffffffffffffffffffffffffffff\n      and\n        /* \"@chainlink/contracts/src/v0.8/ConfirmedOwnerWithProposal.sol\":1255:1263  oldOwner */\n      dup2\n        /* \"@chainlink/contracts/src/v0.8/ConfirmedOwnerWithProposal.sol\":1234:1276  OwnershipTransferred(oldOwner, msg.sender) */\n      0xffffffffffffffffffffffffffffffffffffffff\n      and\n      0x8be0079c531659141344cd1fd0a4f28419497f9722a3daafe3b4186f6b6457e0\n      mload(0x40)\n      mload(0x40)\n      dup1\n      swap2\n      sub\n      swap1\n      log3\n        /* \"@chainlink/contracts/src/v0.8/ConfirmedOwnerWithProposal.sol\":1061:1281  {... */\n      pop\n        /* \"@chainlink/contracts/src/v0.8/ConfirmedOwnerWithProposal.sol\":1016:1281  function acceptOwnership() external override {... */\n      jump\t// out\n        /* \"docs.chain.link/samples/VRF/VRFv2Consumer.sol\":704:731  uint256[] public requestIds */\n    tag_28:\n      0x04\n      dup2\n      dup2\n      sload\n      dup2\n      lt\n      tag_86\n      jumpi\n      0x00\n      dup1\n      revert\n    tag_86:\n      swap1\n      0x00\n      mstore\n      keccak256(0x00, 0x20)\n      add\n      0x00\n      swap2\n      pop\n      swap1\n      pop\n      sload\n      dup2\n      jump\t// out\n        /* \"@chainlink/contracts/src/v0.8/ConfirmedOwnerWithProposal.sol\":1332:1413  function owner() public view override returns (address) {... */\n    tag_32:\n        /* \"@chainlink/contracts/src/v0.8/ConfirmedOwnerWithProposal.sol\":1379:1386  address */\n      0x00\n        /* \"@chainlink/contracts/src/v0.8/ConfirmedOwnerWithProposal.sol\":1401:1408  s_owner */\n      dup1\n      0x00\n      swap1\n      sload\n      swap1\n      0x0100\n      exp\n      swap1\n      div\n      0xffffffffffffffffffffffffffffffffffffffff\n      and\n        /* \"@chainlink/contracts/src/v0.8/ConfirmedOwnerWithProposal.sol\":1394:1408  return s_owner */\n      swap1\n      pop\n        /* \"@chainlink/contracts/src/v0.8/ConfirmedOwnerWithProposal.sol\":1332:1413  function owner() public view override returns (address) {... */\n      swap1\n      jump\t// out\n        /* \"docs.chain.link/samples/VRF/VRFv2Consumer.sol\":565:624  mapping(uint256 => RequestStatus)... */\n    tag_37:\n      mstore(0x20, 0x02)\n      dup1\n      0x00\n      mstore\n      keccak256(0x00, 0x40)\n      0x00\n      swap2\n      pop\n      swap1\n      pop\n      dup1\n      0x00\n      add\n      0x00\n      swap1\n      sload\n      swap1\n      0x0100\n      exp\n      swap1\n      div\n      0xff\n      and\n      swap1\n      dup1\n      0x00\n      add\n      0x01\n      swap1\n      sload\n      swap1\n      0x0100\n      exp\n      swap1\n      div\n      0xff\n      and\n      swap1\n      pop\n      dup3\n      jump\t// out\n        /* \"docs.chain.link/samples/VRF/VRFv2Consumer.sol\":2288:2613  function getRequestStatus(... */\n    tag_42:\n        /* \"docs.chain.link/samples/VRF/VRFv2Consumer.sol\":2371:2385  bool fulfilled */\n      0x00\n        /* \"docs.chain.link/samples/VRF/VRFv2Consumer.sol\":2387:2415  uint256[] memory randomWords */\n      0x60\n        /* \"docs.chain.link/samples/VRF/VRFv2Consumer.sol\":2435:2445  s_requests */\n      0x02\n        /* \"docs.chain.link/samples/VRF/VRFv2Consumer.sol\":2435:2457  s_requests[_requestId] */\n      0x00\n        /* \"docs.chain.link/samples/VRF/VRFv2Consumer.sol\":2446:2456  _requestId */\n      dup5\n        /* \"docs.chain.link/samples/VRF/VRFv2Consumer.sol\":2435:2457  s_requests[_requestId] */\n      dup2\n      mstore\n      0x20\n      add\n      swap1\n      dup2\n      mstore\n      0x20\n      add\n      0x00\n      keccak256\n        /* \"docs.chain.link/samples/VRF/VRFv2Consumer.sol\":2435:2464  s_requests[_requestId].exists */\n      0x00\n      add\n      0x01\n      swap1\n      sload\n      swap1\n      0x0100\n      exp\n      swap1\n      div\n      0xff\n      and\n        /* \"docs.chain.link/samples/VRF/VRFv2Consumer.sol\":2427:2486  require(s_requests[_requestId].exists, \"request not found\") */\n      tag_90\n      jumpi\n      mload(0x40)\n      0x08c379a000000000000000000000000000000000000000000000000000000000\n      dup2\n      mstore\n      0x04\n      add\n      tag_91\n      swap1\n      tag_64\n      jump\t// in\n    tag_91:\n      mload(0x40)\n      dup1\n      swap2\n      sub\n      swap1\n      revert\n    tag_90:\n        /* \"docs.chain.link/samples/VRF/VRFv2Consumer.sol\":2496:2524  RequestStatus memory request */\n      0x00\n        /* \"docs.chain.link/samples/VRF/VRFv2Consumer.sol\":2527:2537  s_requests */\n      0x02\n        /* \"docs.chain.link/samples/VRF/VRFv2Consumer.sol\":2527:2549  s_requests[_requestId] */\n      0x00\n        /* \"docs.chain.link/samples/VRF/VRFv2Consumer.sol\":2538:2548  _requestId */\n      dup6\n        /* \"docs.chain.link/samples/VRF/VRFv2Consumer.sol\":2527:2549  s_requests[_requestId] */\n      dup2\n      mstore\n      0x20\n      add\n      swap1\n      dup2\n      mstore\n      0x20\n      add\n      0x00\n      keccak256\n        /* \"docs.chain.link/samples/VRF/VRFv2Consumer.sol\":2496:2549  RequestStatus memory request = s_requests[_requestId] */\n      mload(0x40)\n      dup1\n      0x60\n      add\n      0x40\n      mstore\n      swap1\n      dup2\n      0x00\n      dup3\n      add\n      0x00\n      swap1\n      sload\n      swap1\n      0x0100\n      exp\n      swap1\n      div\n      0xff\n      and\n      iszero\n      iszero\n      iszero\n      iszero\n      dup2\n      mstore\n      0x20\n      add\n      0x00\n      dup3\n      add\n      0x01\n      swap1\n      sload\n      swap1\n      0x0100\n      exp\n      swap1\n      div\n      0xff\n      and\n      iszero\n      iszero\n      iszero\n      iszero\n      dup2\n      mstore\n      0x20\n      add\n      0x01\n      dup3\n      add\n      dup1\n      sload\n      dup1\n      0x20\n      mul\n      0x20\n      add\n      mload(0x40)\n      swap1\n      dup2\n      add\n      0x40\n      mstore\n      dup1\n      swap3\n      swap2\n      swap1\n      dup2\n      dup2\n      mstore\n      0x20\n      add\n      dup3\n      dup1\n      sload\n      dup1\n      iszero\n      tag_92\n      jumpi\n      0x20\n      mul\n      dup3\n      add\n      swap2\n      swap1\n      0x00\n      mstore\n      keccak256(0x00, 0x20)\n      swap1\n    tag_93:\n      dup2\n      sload\n      dup2\n      mstore\n      0x20\n      add\n      swap1\n      0x01\n      add\n      swap1\n      dup1\n      dup4\n      gt\n      tag_93\n      jumpi\n    tag_92:\n      pop\n      pop\n      pop\n      pop\n      pop\n      dup2\n      mstore\n      pop\n      pop\n      swap1\n      pop\n        /* \"docs.chain.link/samples/VRF/VRFv2Consumer.sol\":2567:2574  request */\n      dup1\n        /* \"docs.chain.link/samples/VRF/VRFv2Consumer.sol\":2567:2584  request.fulfilled */\n      0x00\n      add\n      mload\n        /* \"docs.chain.link/samples/VRF/VRFv2Consumer.sol\":2586:2593  request */\n      dup2\n        /* \"docs.chain.link/samples/VRF/VRFv2Consumer.sol\":2586:2605  request.randomWords */\n      0x40\n      add\n      mload\n        /* \"docs.chain.link/samples/VRF/VRFv2Consumer.sol\":2559:2606  return (request.fulfilled, request.randomWords) */\n      swap3\n      pop\n      swap3\n      pop\n      pop\n        /* \"docs.chain.link/samples/VRF/VRFv2Consumer.sol\":2288:2613  function getRequestStatus(... */\n      swap2\n      pop\n      swap2\n      jump\t// out\n        /* \"docs.chain.link/samples/VRF/VRFv2Consumer.sol\":1303:1916  function requestRandomWords()... */\n    tag_46:\n        /* \"docs.chain.link/samples/VRF/VRFv2Consumer.sol\":1385:1402  uint256 requestId */\n      0x00\n        /* \"@chainlink/contracts/src/v0.8/ConfirmedOwnerWithProposal.sol\":1956:1976  _validateOwnership() */\n      tag_95\n        /* \"@chainlink/contracts/src/v0.8/ConfirmedOwnerWithProposal.sol\":1956:1974  _validateOwnership */\n      tag_96\n        /* \"@chainlink/contracts/src/v0.8/ConfirmedOwnerWithProposal.sol\":1956:1976  _validateOwnership() */\n      jump\t// in\n    tag_95:\n        /* \"docs.chain.link/samples/VRF/VRFv2Consumer.sol\":1430:1441  COORDINATOR */\n      0x03\n      0x00\n      swap1\n      sload\n      swap1\n      0x0100\n      exp\n      swap1\n      div\n      0xffffffffffffffffffffffffffffffffffffffff\n      and\n        /* \"docs.chain.link/samples/VRF/VRFv2Consumer.sol\":1430:1460  COORDINATOR.requestRandomWords */\n      0xffffffffffffffffffffffffffffffffffffffff\n      and\n      0x5d3b1d30\n        /* \"docs.chain.link/samples/VRF/VRFv2Consumer.sol\":1474:1481  keyHash */\n      sload(0x06)\n        /* \"docs.chain.link/samples/VRF/VRFv2Consumer.sol\":1495:1511  s_subscriptionId */\n      0x03\n      0x14\n      swap1\n      sload\n      swap1\n      0x0100\n      exp\n      swap1\n      div\n      0xffffffffffffffff\n      and\n        /* \"docs.chain.link/samples/VRF/VRFv2Consumer.sol\":1525:1545  requestConfirmations */\n      0x07\n      0x04\n      swap1\n      sload\n      swap1\n      0x0100\n      exp\n      swap1\n      div\n      0xffff\n      and\n        /* \"docs.chain.link/samples/VRF/VRFv2Consumer.sol\":1559:1575  callbackGasLimit */\n      0x07\n      0x00\n      swap1\n      sload\n      swap1\n      0x0100\n      exp\n      swap1\n      div\n      0xffffffff\n      and\n        /* \"docs.chain.link/samples/VRF/VRFv2Consumer.sol\":1589:1597  numWords */\n      0x07\n      0x06\n      swap1\n      sload\n      swap1\n      0x0100\n      exp\n      swap1\n      div\n      0xffffffff\n      and\n        /* \"docs.chain.link/samples/VRF/VRFv2Consumer.sol\":1430:1607  COORDINATOR.requestRandomWords(... */\n      mload(0x40)\n      dup7\n      0xffffffff\n      and\n      0xe0\n      shl\n      dup2\n      mstore\n      0x04\n      add\n      tag_98\n      swap6\n      swap5\n      swap4\n      swap3\n      swap2\n      swap1\n      tag_99\n      jump\t// in\n    tag_98:\n      0x20\n      mload(0x40)\n      dup1\n      dup4\n      sub\n      dup2\n      0x00\n      dup8\n      gas\n      call\n      iszero\n      dup1\n      iszero\n      tag_101\n      jumpi\n      returndatasize\n      0x00\n      dup1\n      returndatacopy\n      revert(0x00, returndatasize)\n    tag_101:\n      pop\n      pop\n      pop\n      pop\n      mload(0x40)\n      returndatasize\n      not(0x1f)\n      0x1f\n      dup3\n      add\n      and\n      dup3\n      add\n      dup1\n      0x40\n      mstore\n      pop\n      dup2\n      add\n      swap1\n      tag_102\n      swap2\n      swap1\n      tag_103\n      jump\t// in\n    tag_102:\n        /* \"docs.chain.link/samples/VRF/VRFv2Consumer.sol\":1418:1607  requestId = COORDINATOR.requestRandomWords(... */\n      swap1\n      pop\n        /* \"docs.chain.link/samples/VRF/VRFv2Consumer.sol\":1641:1765  RequestStatus({... */\n      mload(0x40)\n      dup1\n      0x60\n      add\n      0x40\n      mstore\n      dup1\n        /* \"docs.chain.link/samples/VRF/VRFv2Consumer.sol\":1749:1754  false */\n      0x00\n        /* \"docs.chain.link/samples/VRF/VRFv2Consumer.sol\":1641:1765  RequestStatus({... */\n      iszero\n      iszero\n      dup2\n      mstore\n      0x20\n      add\n        /* \"docs.chain.link/samples/VRF/VRFv2Consumer.sol\":1720:1724  true */\n      0x01\n        /* \"docs.chain.link/samples/VRF/VRFv2Consumer.sol\":1641:1765  RequestStatus({... */\n      iszero\n      iszero\n      dup2\n      mstore\n      0x20\n      add\n        /* \"docs.chain.link/samples/VRF/VRFv2Consumer.sol\":1696:1697  0 */\n      0x00\n        /* \"docs.chain.link/samples/VRF/VRFv2Consumer.sol\":1682:1698  new uint256[](0) */\n      0xffffffffffffffff\n      dup2\n      gt\n      iszero\n      tag_104\n      jumpi\n      tag_105\n      tag_106\n      jump\t// in\n    tag_105:\n    tag_104:\n      mload(0x40)\n      swap1\n      dup1\n      dup3\n      mstore\n      dup1\n      0x20\n      mul\n      0x20\n      add\n      dup3\n      add\n      0x40\n      mstore\n      dup1\n      iszero\n      tag_107\n      jumpi\n      dup2\n      0x20\n      add\n      0x20\n      dup3\n      mul\n      dup1\n      calldatasize\n      dup4\n      calldatacopy\n      dup1\n      dup3\n      add\n      swap2\n      pop\n      pop\n      swap1\n      pop\n    tag_107:\n      pop\n        /* \"docs.chain.link/samples/VRF/VRFv2Consumer.sol\":1641:1765  RequestStatus({... */\n      dup2\n      mstore\n      pop\n        /* \"docs.chain.link/samples/VRF/VRFv2Consumer.sol\":1617:1627  s_requests */\n      0x02\n        /* \"docs.chain.link/samples/VRF/VRFv2Consumer.sol\":1617:1638  s_requests[requestId] */\n      0x00\n        /* \"docs.chain.link/samples/VRF/VRFv2Consumer.sol\":1628:1637  requestId */\n      dup4\n        /* \"docs.chain.link/samples/VRF/VRFv2Consumer.sol\":1617:1638  s_requests[requestId] */\n      dup2\n      mstore\n      0x20\n      add\n      swap1\n      dup2\n      mstore\n      0x20\n      add\n      0x00\n      keccak256\n        /* \"docs.chain.link/samples/VRF/VRFv2Consumer.sol\":1617:1765  s_requests[requestId] = RequestStatus({... */\n      0x00\n      dup3\n      add\n      mload\n      dup2\n      0x00\n      add\n      exp(0x0100, 0x00)\n      dup2\n      sload\n      dup2\n      0xff\n      mul\n      not\n      and\n      swap1\n      dup4\n      iszero\n      iszero\n      mul\n      or\n      swap1\n      sstore\n      pop\n      0x20\n      dup3\n      add\n      mload\n      dup2\n      0x00\n      add\n      exp(0x0100, 0x01)\n      dup2\n      sload\n      dup2\n      0xff\n      mul\n      not\n      and\n      swap1\n      dup4\n      iszero\n      iszero\n      mul\n      or\n      swap1\n      sstore\n      pop\n      0x40\n      dup3\n      add\n      mload\n      dup2\n      0x01\n      add\n      swap1\n      dup1\n      mload\n      swap1\n      0x20\n      add\n      swap1\n      tag_108\n      swap3\n      swap2\n      swap1\n      tag_109\n      jump\t// in\n    tag_108:\n      pop\n      swap1\n      pop\n      pop\n        /* \"docs.chain.link/samples/VRF/VRFv2Consumer.sol\":1775:1785  requestIds */\n      0x04\n        /* \"docs.chain.link/samples/VRF/VRFv2Consumer.sol\":1791:1800  requestId */\n      dup2\n        /* \"docs.chain.link/samples/VRF/VRFv2Consumer.sol\":1775:1801  requestIds.push(requestId) */\n      swap1\n      dup1\n      0x01\n      dup2\n      sload\n      add\n      dup1\n      dup3\n      sstore\n      dup1\n      swap2\n      pop\n      pop\n      0x01\n      swap1\n      sub\n      swap1\n      0x00\n      mstore\n      keccak256(0x00, 0x20)\n      add\n      0x00\n      swap1\n      swap2\n      swap1\n      swap2\n      swap1\n      swap2\n      pop\n      sstore\n        /* \"docs.chain.link/samples/VRF/VRFv2Consumer.sol\":1827:1836  requestId */\n      dup1\n        /* \"docs.chain.link/samples/VRF/VRFv2Consumer.sol\":1811:1824  lastRequestId */\n      0x05\n        /* \"docs.chain.link/samples/VRF/VRFv2Consumer.sol\":1811:1836  lastRequestId = requestId */\n      dup2\n      swap1\n      sstore\n      pop\n        /* \"docs.chain.link/samples/VRF/VRFv2Consumer.sol\":1851:1883  RequestSent(requestId, numWords) */\n      0xcc58b13ad3eab50626c6a6300b1d139cd6ebb1688a7cced9461c2f7e762665ee\n        /* \"docs.chain.link/samples/VRF/VRFv2Consumer.sol\":1863:1872  requestId */\n      dup2\n        /* \"docs.chain.link/samples/VRF/VRFv2Consumer.sol\":1874:1882  numWords */\n      0x07\n      0x06\n      swap1\n      sload\n      swap1\n      0x0100\n      exp\n      swap1\n      div\n      0xffffffff\n      and\n        /* \"docs.chain.link/samples/VRF/VRFv2Consumer.sol\":1851:1883  RequestSent(requestId, numWords) */\n      mload(0x40)\n      tag_111\n      swap3\n      swap2\n      swap1\n      tag_112\n      jump\t// in\n    tag_111:\n      mload(0x40)\n      dup1\n      swap2\n      sub\n      swap1\n      log1\n        /* \"docs.chain.link/samples/VRF/VRFv2Consumer.sol\":1303:1916  function requestRandomWords()... */\n      swap1\n      jump\t// out\n        /* \"@chainlink/contracts/src/v0.8/ConfirmedOwnerWithProposal.sol\":826:924  function transferOwnership(address to) public override onlyOwner {... */\n    tag_51:\n        /* \"@chainlink/contracts/src/v0.8/ConfirmedOwnerWithProposal.sol\":1956:1976  _validateOwnership() */\n      tag_114\n        /* \"@chainlink/contracts/src/v0.8/ConfirmedOwnerWithProposal.sol\":1956:1974  _validateOwnership */\n      tag_96\n        /* \"@chainlink/contracts/src/v0.8/ConfirmedOwnerWithProposal.sol\":1956:1976  _validateOwnership() */\n      jump\t// in\n    tag_114:\n        /* \"@chainlink/contracts/src/v0.8/ConfirmedOwnerWithProposal.sol\":897:919  _transferOwnership(to) */\n      tag_116\n        /* \"@chainlink/contracts/src/v0.8/ConfirmedOwnerWithProposal.sol\":916:918  to */\n      dup2\n        /* \"@chainlink/contracts/src/v0.8/ConfirmedOwnerWithProposal.sol\":897:915  _transferOwnership */\n      tag_117\n        /* \"@chainlink/contracts/src/v0.8/ConfirmedOwnerWithProposal.sol\":897:919  _transferOwnership(to) */\n      jump\t// in\n    tag_116:\n        /* \"@chainlink/contracts/src/v0.8/ConfirmedOwnerWithProposal.sol\":826:924  function transferOwnership(address to) public override onlyOwner {... */\n      pop\n      jump\t// out\n        /* \"docs.chain.link/samples/VRF/VRFv2Consumer.sol\":737:765  uint256 public lastRequestId */\n    tag_53:\n      sload(0x05)\n      dup2\n      jump\t// out\n        /* \"docs.chain.link/samples/VRF/VRFv2Consumer.sol\":1922:2282  function fulfillRandomWords(... */\n    tag_60:\n        /* \"docs.chain.link/samples/VRF/VRFv2Consumer.sol\":2059:2069  s_requests */\n      0x02\n        /* \"docs.chain.link/samples/VRF/VRFv2Consumer.sol\":2059:2081  s_requests[_requestId] */\n      0x00\n        /* \"docs.chain.link/samples/VRF/VRFv2Consumer.sol\":2070:2080  _requestId */\n      dup4\n        /* \"docs.chain.link/samples/VRF/VRFv2Consumer.sol\":2059:2081  s_requests[_requestId] */\n      dup2\n      mstore\n      0x20\n      add\n      swap1\n      dup2\n      mstore\n      0x20\n      add\n      0x00\n      keccak256\n        /* \"docs.chain.link/samples/VRF/VRFv2Consumer.sol\":2059:2088  s_requests[_requestId].exists */\n      0x00\n      add\n      0x01\n      swap1\n      sload\n      swap1\n      0x0100\n      exp\n      swap1\n      div\n      0xff\n      and\n        /* \"docs.chain.link/samples/VRF/VRFv2Consumer.sol\":2051:2110  require(s_requests[_requestId].exists, \"request not found\") */\n      tag_119\n      jumpi\n      mload(0x40)\n      0x08c379a000000000000000000000000000000000000000000000000000000000\n      dup2\n      mstore\n      0x04\n      add\n      tag_120\n      swap1\n      tag_64\n      jump\t// in\n    tag_120:\n      mload(0x40)\n      dup1\n      swap2\n      sub\n      swap1\n      revert\n    tag_119:\n        /* \"docs.chain.link/samples/VRF/VRFv2Consumer.sol\":2155:2159  true */\n      0x01\n        /* \"docs.chain.link/samples/VRF/VRFv2Consumer.sol\":2120:2130  s_requests */\n      0x02\n        /* \"docs.chain.link/samples/VRF/VRFv2Consumer.sol\":2120:2142  s_requests[_requestId] */\n      0x00\n        /* \"docs.chain.link/samples/VRF/VRFv2Consumer.sol\":2131:2141  _requestId */\n      dup5\n        /* \"docs.chain.link/samples/VRF/VRFv2Consumer.sol\":2120:2142  s_requests[_requestId] */\n      dup2\n      mstore\n      0x20\n      add\n      swap1\n      dup2\n      mstore\n      0x20\n      add\n      0x00\n      keccak256\n        /* \"docs.chain.link/samples/VRF/VRFv2Consumer.sol\":2120:2152  s_requests[_requestId].fulfilled */\n      0x00\n      add\n      0x00\n        /* \"docs.chain.link/samples/VRF/VRFv2Consumer.sol\":2120:2159  s_requests[_requestId].fulfilled = true */\n      0x0100\n      exp\n      dup2\n      sload\n      dup2\n      0xff\n      mul\n      not\n      and\n      swap1\n      dup4\n      iszero\n      iszero\n      mul\n      or\n      swap1\n      sstore\n      pop\n        /* \"docs.chain.link/samples/VRF/VRFv2Consumer.sol\":2206:2218  _randomWords */\n      dup1\n        /* \"docs.chain.link/samples/VRF/VRFv2Consumer.sol\":2169:2179  s_requests */\n      0x02\n        /* \"docs.chain.link/samples/VRF/VRFv2Consumer.sol\":2169:2191  s_requests[_requestId] */\n      0x00\n        /* \"docs.chain.link/samples/VRF/VRFv2Consumer.sol\":2180:2190  _requestId */\n      dup5\n        /* \"docs.chain.link/samples/VRF/VRFv2Consumer.sol\":2169:2191  s_requests[_requestId] */\n      dup2\n      mstore\n      0x20\n      add\n      swap1\n      dup2\n      mstore\n      0x20\n      add\n      0x00\n      keccak256\n        /* \"docs.chain.link/samples/VRF/VRFv2Consumer.sol\":2169:2203  s_requests[_requestId].randomWords */\n      0x01\n      add\n        /* \"docs.chain.link/samples/VRF/VRFv2Consumer.sol\":2169:2218  s_requests[_requestId].randomWords = _randomWords */\n      swap1\n      dup1\n      mload\n      swap1\n      0x20\n      add\n      swap1\n      tag_121\n      swap3\n      swap2\n      swap1\n      tag_109\n      jump\t// in\n    tag_121:\n      pop\n        /* \"docs.chain.link/samples/VRF/VRFv2Consumer.sol\":2233:2275  RequestFulfilled(_requestId, _randomWords) */\n      0xfe2e2d779dba245964d4e3ef9b994be63856fd568bf7d3ca9e224755cb1bd54d\n        /* \"docs.chain.link/samples/VRF/VRFv2Consumer.sol\":2250:2260  _requestId */\n      dup3\n        /* \"docs.chain.link/samples/VRF/VRFv2Consumer.sol\":2262:2274  _randomWords */\n      dup3\n        /* \"docs.chain.link/samples/VRF/VRFv2Consumer.sol\":2233:2275  RequestFulfilled(_requestId, _randomWords) */\n      mload(0x40)\n      tag_122\n      swap3\n      swap2\n      swap1\n      tag_123\n      jump\t// in\n    tag_122:\n      mload(0x40)\n      dup1\n      swap2\n      sub\n      swap1\n      log1\n        /* \"docs.chain.link/samples/VRF/VRFv2Consumer.sol\":1922:2282  function fulfillRandomWords(... */\n      pop\n      pop\n      jump\t// out\n        /* \"@chainlink/contracts/src/v0.8/ConfirmedOwnerWithProposal.sol\":1730:1841  function _validateOwnership() internal view {... */\n    tag_96:\n        /* \"@chainlink/contracts/src/v0.8/ConfirmedOwnerWithProposal.sol\":1802:1809  s_owner */\n      0x00\n      dup1\n      sload\n      swap1\n      0x0100\n      exp\n      swap1\n      div\n      0xffffffffffffffffffffffffffffffffffffffff\n      and\n        /* \"@chainlink/contracts/src/v0.8/ConfirmedOwnerWithProposal.sol\":1788:1809  msg.sender == s_owner */\n      0xffffffffffffffffffffffffffffffffffffffff\n      and\n        /* \"@chainlink/contracts/src/v0.8/ConfirmedOwnerWithProposal.sol\":1788:1798  msg.sender */\n      caller\n        /* \"@chainlink/contracts/src/v0.8/ConfirmedOwnerWithProposal.sol\":1788:1809  msg.sender == s_owner */\n      0xffffffffffffffffffffffffffffffffffffffff\n      and\n      eq\n        /* \"@chainlink/contracts/src/v0.8/ConfirmedOwnerWithProposal.sol\":1780:1836  require(msg.sender == s_owner, \"Only callable by owner\") */\n      tag_125\n      jumpi\n      mload(0x40)\n      0x08c379a000000000000000000000000000000000000000000000000000000000\n      dup2\n      mstore\n      0x04\n      add\n      tag_126\n      swap1\n      tag_127\n      jump\t// in\n    tag_126:\n      mload(0x40)\n      dup1\n      swap2\n      sub\n      swap1\n      revert\n    tag_125:\n        /* \"@chainlink/contracts/src/v0.8/ConfirmedOwnerWithProposal.sol\":1730:1841  function _validateOwnership() internal view {... */\n      jump\t// out\n        /* \"@chainlink/contracts/src/v0.8/ConfirmedOwnerWithProposal.sol\":1497:1685  function _transferOwnership(address to) private {... */\n    tag_117:\n        /* \"@chainlink/contracts/src/v0.8/ConfirmedOwnerWithProposal.sol\":1565:1575  msg.sender */\n      caller\n        /* \"@chainlink/contracts/src/v0.8/ConfirmedOwnerWithProposal.sol\":1559:1575  to != msg.sender */\n      0xffffffffffffffffffffffffffffffffffffffff\n      and\n        /* \"@chainlink/contracts/src/v0.8/ConfirmedOwnerWithProposal.sol\":1559:1561  to */\n      dup2\n        /* \"@chainlink/contracts/src/v0.8/ConfirmedOwnerWithProposal.sol\":1559:1575  to != msg.sender */\n      0xffffffffffffffffffffffffffffffffffffffff\n      and\n      sub\n        /* \"@chainlink/contracts/src/v0.8/ConfirmedOwnerWithProposal.sol\":1551:1603  require(to != msg.sender, \"Cannot transfer to self\") */\n      tag_129\n      jumpi\n      mload(0x40)\n      0x08c379a000000000000000000000000000000000000000000000000000000000\n      dup2\n      mstore\n      0x04\n      add\n      tag_130\n      swap1\n      tag_131\n      jump\t// in\n    tag_130:\n      mload(0x40)\n      dup1\n      swap2\n      sub\n      swap1\n      revert\n    tag_129:\n        /* \"@chainlink/contracts/src/v0.8/ConfirmedOwnerWithProposal.sol\":1627:1629  to */\n      dup1\n        /* \"@chainlink/contracts/src/v0.8/ConfirmedOwnerWithProposal.sol\":1610:1624  s_pendingOwner */\n      0x01\n      0x00\n        /* \"@chainlink/contracts/src/v0.8/ConfirmedOwnerWithProposal.sol\":1610:1629  s_pendingOwner = to */\n      0x0100\n      exp\n      dup2\n      sload\n      dup2\n      0xffffffffffffffffffffffffffffffffffffffff\n      mul\n      not\n      and\n      swap1\n      dup4\n      0xffffffffffffffffffffffffffffffffffffffff\n      and\n      mul\n      or\n      swap1\n      sstore\n      pop\n        /* \"@chainlink/contracts/src/v0.8/ConfirmedOwnerWithProposal.sol\":1677:1679  to */\n      dup1\n        /* \"@chainlink/contracts/src/v0.8/ConfirmedOwnerWithProposal.sol\":1641:1680  OwnershipTransferRequested(s_owner, to) */\n      0xffffffffffffffffffffffffffffffffffffffff\n      and\n        /* \"@chainlink/contracts/src/v0.8/ConfirmedOwnerWithProposal.sol\":1668:1675  s_owner */\n      0x00\n      dup1\n      sload\n      swap1\n      0x0100\n      exp\n      swap1\n      div\n      0xffffffffffffffffffffffffffffffffffffffff\n      and\n        /* \"@chainlink/contracts/src/v0.8/ConfirmedOwnerWithProposal.sol\":1641:1680  OwnershipTransferRequested(s_owner, to) */\n      0xffffffffffffffffffffffffffffffffffffffff\n      and\n      0xed8889f560326eb138920d842192f0eb3dd22b4f139c87a2c57538e05bae1278\n      mload(0x40)\n      mload(0x40)\n      dup1\n      swap2\n      sub\n      swap1\n      log3\n        /* \"@chainlink/contracts/src/v0.8/ConfirmedOwnerWithProposal.sol\":1497:1685  function _transferOwnership(address to) private {... */\n      pop\n      jump\t// out\n    tag_109:\n      dup3\n      dup1\n      sload\n      dup3\n      dup3\n      sstore\n      swap1\n      0x00\n      mstore\n      keccak256(0x00, 0x20)\n      swap1\n      dup2\n      add\n      swap3\n      dup3\n      iszero\n      tag_132\n      jumpi\n      swap2\n      0x20\n      mul\n      dup3\n      add\n    tag_133:\n      dup3\n      dup2\n      gt\n      iszero\n      tag_134\n      jumpi\n      dup3\n      mload\n      dup3\n      sstore\n      swap2\n      0x20\n      add\n      swap2\n      swap1\n      0x01\n      add\n      swap1\n      jump(tag_133)\n    tag_134:\n    tag_132:\n      pop\n      swap1\n      pop\n      tag_135\n      swap2\n      swap1\n      tag_136\n      jump\t// in\n    tag_135:\n      pop\n      swap1\n      jump\t// out\n    tag_136:\n    tag_137:\n      dup1\n      dup3\n      gt\n      iszero\n      tag_138\n      jumpi\n      0x00\n      dup2\n      0x00\n      swap1\n      sstore\n      pop\n      0x01\n      add\n      jump(tag_137)\n    tag_138:\n      pop\n      swap1\n      jump\t// out\n        /* \"#utility.yul\":7:82   */\n    tag_139:\n        /* \"#utility.yul\":40:46   */\n      0x00\n        /* \"#utility.yul\":73:75   */\n      0x40\n        /* \"#utility.yul\":67:76   */\n      mload\n        /* \"#utility.yul\":57:76   */\n      swap1\n      pop\n        /* \"#utility.yul\":7:82   */\n      swap1\n      jump\t// out\n        /* \"#utility.yul\":88:205   */\n    tag_140:\n        /* \"#utility.yul\":197:198   */\n      0x00\n        /* \"#utility.yul\":194:195   */\n      dup1\n        /* \"#utility.yul\":187:199   */\n      revert\n        /* \"#utility.yul\":211:328   */\n    tag_141:\n        /* \"#utility.yul\":320:321   */\n      0x00\n        /* \"#utility.yul\":317:318   */\n      dup1\n        /* \"#utility.yul\":310:322   */\n      revert\n        /* \"#utility.yul\":334:411   */\n    tag_142:\n        /* \"#utility.yul\":371:378   */\n      0x00\n        /* \"#utility.yul\":400:405   */\n      dup2\n        /* \"#utility.yul\":389:405   */\n      swap1\n      pop\n        /* \"#utility.yul\":334:411   */\n      swap2\n      swap1\n      pop\n      jump\t// out\n        /* \"#utility.yul\":417:539   */\n    tag_143:\n        /* \"#utility.yul\":490:514   */\n      tag_195\n        /* \"#utility.yul\":508:513   */\n      dup2\n        /* \"#utility.yul\":490:514   */\n      tag_142\n      jump\t// in\n    tag_195:\n        /* \"#utility.yul\":483:488   */\n      dup2\n        /* \"#utility.yul\":480:515   */\n      eq\n        /* \"#utility.yul\":470:533   */\n      tag_196\n      jumpi\n        /* \"#utility.yul\":529:530   */\n      0x00\n        /* \"#utility.yul\":526:527   */\n      dup1\n        /* \"#utility.yul\":519:531   */\n      revert\n        /* \"#utility.yul\":470:533   */\n    tag_196:\n        /* \"#utility.yul\":417:539   */\n      pop\n      jump\t// out\n        /* \"#utility.yul\":545:684   */\n    tag_144:\n        /* \"#utility.yul\":591:596   */\n      0x00\n        /* \"#utility.yul\":629:635   */\n      dup2\n        /* \"#utility.yul\":616:636   */\n      calldataload\n        /* \"#utility.yul\":607:636   */\n      swap1\n      pop\n        /* \"#utility.yul\":645:678   */\n      tag_198\n        /* \"#utility.yul\":672:677   */\n      dup2\n        /* \"#utility.yul\":645:678   */\n      tag_143\n      jump\t// in\n    tag_198:\n        /* \"#utility.yul\":545:684   */\n      swap3\n      swap2\n      pop\n      pop\n      jump\t// out\n        /* \"#utility.yul\":690:807   */\n    tag_145:\n        /* \"#utility.yul\":799:800   */\n      0x00\n        /* \"#utility.yul\":796:797   */\n      dup1\n        /* \"#utility.yul\":789:801   */\n      revert\n        /* \"#utility.yul\":813:915   */\n    tag_146:\n        /* \"#utility.yul\":854:860   */\n      0x00\n        /* \"#utility.yul\":905:907   */\n      0x1f\n        /* \"#utility.yul\":901:908   */\n      not\n        /* \"#utility.yul\":896:898   */\n      0x1f\n        /* \"#utility.yul\":889:894   */\n      dup4\n        /* \"#utility.yul\":885:899   */\n      add\n        /* \"#utility.yul\":881:909   */\n      and\n        /* \"#utility.yul\":871:909   */\n      swap1\n      pop\n        /* \"#utility.yul\":813:915   */\n      swap2\n      swap1\n      pop\n      jump\t// out\n        /* \"#utility.yul\":921:1101   */\n    tag_106:\n        /* \"#utility.yul\":969:1046   */\n      0x4e487b7100000000000000000000000000000000000000000000000000000000\n        /* \"#utility.yul\":966:967   */\n      0x00\n        /* \"#utility.yul\":959:1047   */\n      mstore\n        /* \"#utility.yul\":1066:1070   */\n      0x41\n        /* \"#utility.yul\":1063:1064   */\n      0x04\n        /* \"#utility.yul\":1056:1071   */\n      mstore\n        /* \"#utility.yul\":1090:1094   */\n      0x24\n        /* \"#utility.yul\":1087:1088   */\n      0x00\n        /* \"#utility.yul\":1080:1095   */\n      revert\n        /* \"#utility.yul\":1107:1388   */\n    tag_147:\n        /* \"#utility.yul\":1190:1217   */\n      tag_203\n        /* \"#utility.yul\":1212:1216   */\n      dup3\n        /* \"#utility.yul\":1190:1217   */\n      tag_146\n      jump\t// in\n    tag_203:\n        /* \"#utility.yul\":1182:1188   */\n      dup2\n        /* \"#utility.yul\":1178:1218   */\n      add\n        /* \"#utility.yul\":1320:1326   */\n      dup2\n        /* \"#utility.yul\":1308:1318   */\n      dup2\n        /* \"#utility.yul\":1305:1327   */\n      lt\n        /* \"#utility.yul\":1284:1302   */\n      0xffffffffffffffff\n        /* \"#utility.yul\":1272:1282   */\n      dup3\n        /* \"#utility.yul\":1269:1303   */\n      gt\n        /* \"#utility.yul\":1266:1328   */\n      or\n        /* \"#utility.yul\":1263:1351   */\n      iszero\n      tag_204\n      jumpi\n        /* \"#utility.yul\":1331:1349   */\n      tag_205\n      tag_106\n      jump\t// in\n    tag_205:\n        /* \"#utility.yul\":1263:1351   */\n    tag_204:\n        /* \"#utility.yul\":1371:1381   */\n      dup1\n        /* \"#utility.yul\":1367:1369   */\n      0x40\n        /* \"#utility.yul\":1360:1382   */\n      mstore\n        /* \"#utility.yul\":1150:1388   */\n      pop\n        /* \"#utility.yul\":1107:1388   */\n      pop\n      pop\n      jump\t// out\n        /* \"#utility.yul\":1394:1523   */\n    tag_148:\n        /* \"#utility.yul\":1428:1434   */\n      0x00\n        /* \"#utility.yul\":1455:1475   */\n      tag_207\n      tag_139\n      jump\t// in\n    tag_207:\n        /* \"#utility.yul\":1445:1475   */\n      swap1\n      pop\n        /* \"#utility.yul\":1484:1517   */\n      tag_208\n        /* \"#utility.yul\":1512:1516   */\n      dup3\n        /* \"#utility.yul\":1504:1510   */\n      dup3\n        /* \"#utility.yul\":1484:1517   */\n      tag_147\n      jump\t// in\n    tag_208:\n        /* \"#utility.yul\":1394:1523   */\n      swap2\n      swap1\n      pop\n      jump\t// out\n        /* \"#utility.yul\":1529:1840   */\n    tag_149:\n        /* \"#utility.yul\":1606:1610   */\n      0x00\n        /* \"#utility.yul\":1696:1714   */\n      0xffffffffffffffff\n        /* \"#utility.yul\":1688:1694   */\n      dup3\n        /* \"#utility.yul\":1685:1715   */\n      gt\n        /* \"#utility.yul\":1682:1738   */\n      iszero\n      tag_210\n      jumpi\n        /* \"#utility.yul\":1718:1736   */\n      tag_211\n      tag_106\n      jump\t// in\n    tag_211:\n        /* \"#utility.yul\":1682:1738   */\n    tag_210:\n        /* \"#utility.yul\":1768:1772   */\n      0x20\n        /* \"#utility.yul\":1760:1766   */\n      dup3\n        /* \"#utility.yul\":1756:1773   */\n      mul\n        /* \"#utility.yul\":1748:1773   */\n      swap1\n      pop\n        /* \"#utility.yul\":1828:1832   */\n      0x20\n        /* \"#utility.yul\":1822:1826   */\n      dup2\n        /* \"#utility.yul\":1818:1833   */\n      add\n        /* \"#utility.yul\":1810:1833   */\n      swap1\n      pop\n        /* \"#utility.yul\":1529:1840   */\n      swap2\n      swap1\n      pop\n      jump\t// out\n        /* \"#utility.yul\":1846:1963   */\n    tag_150:\n        /* \"#utility.yul\":1955:1956   */\n      0x00\n        /* \"#utility.yul\":1952:1953   */\n      dup1\n        /* \"#utility.yul\":1945:1957   */\n      revert\n        /* \"#utility.yul\":1986:2696   */\n    tag_151:\n        /* \"#utility.yul\":2082:2087   */\n      0x00\n        /* \"#utility.yul\":2107:2188   */\n      tag_214\n        /* \"#utility.yul\":2123:2187   */\n      tag_215\n        /* \"#utility.yul\":2180:2186   */\n      dup5\n        /* \"#utility.yul\":2123:2187   */\n      tag_149\n      jump\t// in\n    tag_215:\n        /* \"#utility.yul\":2107:2188   */\n      tag_148\n      jump\t// in\n    tag_214:\n        /* \"#utility.yul\":2098:2188   */\n      swap1\n      pop\n        /* \"#utility.yul\":2208:2213   */\n      dup1\n        /* \"#utility.yul\":2237:2243   */\n      dup4\n        /* \"#utility.yul\":2230:2235   */\n      dup3\n        /* \"#utility.yul\":2223:2244   */\n      mstore\n        /* \"#utility.yul\":2271:2275   */\n      0x20\n        /* \"#utility.yul\":2264:2269   */\n      dup3\n        /* \"#utility.yul\":2260:2276   */\n      add\n        /* \"#utility.yul\":2253:2276   */\n      swap1\n      pop\n        /* \"#utility.yul\":2324:2328   */\n      0x20\n        /* \"#utility.yul\":2316:2322   */\n      dup5\n        /* \"#utility.yul\":2312:2329   */\n      mul\n        /* \"#utility.yul\":2304:2310   */\n      dup4\n        /* \"#utility.yul\":2300:2330   */\n      add\n        /* \"#utility.yul\":2353:2356   */\n      dup6\n        /* \"#utility.yul\":2345:2351   */\n      dup2\n        /* \"#utility.yul\":2342:2357   */\n      gt\n        /* \"#utility.yul\":2339:2461   */\n      iszero\n      tag_216\n      jumpi\n        /* \"#utility.yul\":2372:2451   */\n      tag_217\n      tag_150\n      jump\t// in\n    tag_217:\n        /* \"#utility.yul\":2339:2461   */\n    tag_216:\n        /* \"#utility.yul\":2487:2493   */\n      dup4\n        /* \"#utility.yul\":2470:2690   */\n    tag_218:\n        /* \"#utility.yul\":2504:2510   */\n      dup2\n        /* \"#utility.yul\":2499:2502   */\n      dup2\n        /* \"#utility.yul\":2496:2511   */\n      lt\n        /* \"#utility.yul\":2470:2690   */\n      iszero\n      tag_220\n      jumpi\n        /* \"#utility.yul\":2579:2582   */\n      dup1\n        /* \"#utility.yul\":2608:2645   */\n      tag_221\n        /* \"#utility.yul\":2641:2644   */\n      dup9\n        /* \"#utility.yul\":2629:2639   */\n      dup3\n        /* \"#utility.yul\":2608:2645   */\n      tag_144\n      jump\t// in\n    tag_221:\n        /* \"#utility.yul\":2603:2606   */\n      dup5\n        /* \"#utility.yul\":2596:2646   */\n      mstore\n        /* \"#utility.yul\":2675:2679   */\n      0x20\n        /* \"#utility.yul\":2670:2673   */\n      dup5\n        /* \"#utility.yul\":2666:2680   */\n      add\n        /* \"#utility.yul\":2659:2680   */\n      swap4\n      pop\n        /* \"#utility.yul\":2546:2690   */\n      pop\n        /* \"#utility.yul\":2530:2534   */\n      0x20\n        /* \"#utility.yul\":2525:2528   */\n      dup2\n        /* \"#utility.yul\":2521:2535   */\n      add\n        /* \"#utility.yul\":2514:2535   */\n      swap1\n      pop\n        /* \"#utility.yul\":2470:2690   */\n      jump(tag_218)\n    tag_220:\n        /* \"#utility.yul\":2474:2495   */\n      pop\n        /* \"#utility.yul\":2088:2696   */\n      pop\n      pop\n        /* \"#utility.yul\":1986:2696   */\n      swap4\n      swap3\n      pop\n      pop\n      pop\n      jump\t// out\n        /* \"#utility.yul\":2719:3089   */\n    tag_152:\n        /* \"#utility.yul\":2790:2795   */\n      0x00\n        /* \"#utility.yul\":2839:2842   */\n      dup3\n        /* \"#utility.yul\":2832:2836   */\n      0x1f\n        /* \"#utility.yul\":2824:2830   */\n      dup4\n        /* \"#utility.yul\":2820:2837   */\n      add\n        /* \"#utility.yul\":2816:2843   */\n      slt\n        /* \"#utility.yul\":2806:2928   */\n      tag_223\n      jumpi\n        /* \"#utility.yul\":2847:2926   */\n      tag_224\n      tag_145\n      jump\t// in\n    tag_224:\n        /* \"#utility.yul\":2806:2928   */\n    tag_223:\n        /* \"#utility.yul\":2964:2970   */\n      dup2\n        /* \"#utility.yul\":2951:2971   */\n      calldataload\n        /* \"#utility.yul\":2989:3083   */\n      tag_225\n        /* \"#utility.yul\":3079:3082   */\n      dup5\n        /* \"#utility.yul\":3071:3077   */\n      dup3\n        /* \"#utility.yul\":3064:3068   */\n      0x20\n        /* \"#utility.yul\":3056:3062   */\n      dup7\n        /* \"#utility.yul\":3052:3069   */\n      add\n        /* \"#utility.yul\":2989:3083   */\n      tag_151\n      jump\t// in\n    tag_225:\n        /* \"#utility.yul\":2980:3083   */\n      swap2\n      pop\n        /* \"#utility.yul\":2796:3089   */\n      pop\n        /* \"#utility.yul\":2719:3089   */\n      swap3\n      swap2\n      pop\n      pop\n      jump\t// out\n        /* \"#utility.yul\":3095:3779   */\n    tag_16:\n        /* \"#utility.yul\":3188:3194   */\n      0x00\n        /* \"#utility.yul\":3196:3202   */\n      dup1\n        /* \"#utility.yul\":3245:3247   */\n      0x40\n        /* \"#utility.yul\":3233:3242   */\n      dup4\n        /* \"#utility.yul\":3224:3231   */\n      dup6\n        /* \"#utility.yul\":3220:3243   */\n      sub\n        /* \"#utility.yul\":3216:3248   */\n      slt\n        /* \"#utility.yul\":3213:3332   */\n      iszero\n      tag_227\n      jumpi\n        /* \"#utility.yul\":3251:3330   */\n      tag_228\n      tag_140\n      jump\t// in\n    tag_228:\n        /* \"#utility.yul\":3213:3332   */\n    tag_227:\n        /* \"#utility.yul\":3371:3372   */\n      0x00\n        /* \"#utility.yul\":3396:3449   */\n      tag_229\n        /* \"#utility.yul\":3441:3448   */\n      dup6\n        /* \"#utility.yul\":3432:3438   */\n      dup3\n        /* \"#utility.yul\":3421:3430   */\n      dup7\n        /* \"#utility.yul\":3417:3439   */\n      add\n        /* \"#utility.yul\":3396:3449   */\n      tag_144\n      jump\t// in\n    tag_229:\n        /* \"#utility.yul\":3386:3449   */\n      swap3\n      pop\n        /* \"#utility.yul\":3342:3459   */\n      pop\n        /* \"#utility.yul\":3526:3528   */\n      0x20\n        /* \"#utility.yul\":3515:3524   */\n      dup4\n        /* \"#utility.yul\":3511:3529   */\n      add\n        /* \"#utility.yul\":3498:3530   */\n      calldataload\n        /* \"#utility.yul\":3557:3575   */\n      0xffffffffffffffff\n        /* \"#utility.yul\":3549:3555   */\n      dup2\n        /* \"#utility.yul\":3546:3576   */\n      gt\n        /* \"#utility.yul\":3543:3660   */\n      iszero\n      tag_230\n      jumpi\n        /* \"#utility.yul\":3579:3658   */\n      tag_231\n      tag_141\n      jump\t// in\n    tag_231:\n        /* \"#utility.yul\":3543:3660   */\n    tag_230:\n        /* \"#utility.yul\":3684:3762   */\n      tag_232\n        /* \"#utility.yul\":3754:3761   */\n      dup6\n        /* \"#utility.yul\":3745:3751   */\n      dup3\n        /* \"#utility.yul\":3734:3743   */\n      dup7\n        /* \"#utility.yul\":3730:3752   */\n      add\n        /* \"#utility.yul\":3684:3762   */\n      tag_152\n      jump\t// in\n    tag_232:\n        /* \"#utility.yul\":3674:3762   */\n      swap2\n      pop\n        /* \"#utility.yul\":3469:3772   */\n      pop\n        /* \"#utility.yul\":3095:3779   */\n      swap3\n      pop\n      swap3\n      swap1\n      pop\n      jump\t// out\n        /* \"#utility.yul\":3785:4114   */\n    tag_20:\n        /* \"#utility.yul\":3844:3850   */\n      0x00\n        /* \"#utility.yul\":3893:3895   */\n      0x20\n        /* \"#utility.yul\":3881:3890   */\n      dup3\n        /* \"#utility.yul\":3872:3879   */\n      dup5\n        /* \"#utility.yul\":3868:3891   */\n      sub\n        /* \"#utility.yul\":3864:3896   */\n      slt\n        /* \"#utility.yul\":3861:3980   */\n      iszero\n      tag_234\n      jumpi\n        /* \"#utility.yul\":3899:3978   */\n      tag_235\n      tag_140\n      jump\t// in\n    tag_235:\n        /* \"#utility.yul\":3861:3980   */\n    tag_234:\n        /* \"#utility.yul\":4019:4020   */\n      0x00\n        /* \"#utility.yul\":4044:4097   */\n      tag_236\n        /* \"#utility.yul\":4089:4096   */\n      dup5\n        /* \"#utility.yul\":4080:4086   */\n      dup3\n        /* \"#utility.yul\":4069:4078   */\n      dup6\n        /* \"#utility.yul\":4065:4087   */\n      add\n        /* \"#utility.yul\":4044:4097   */\n      tag_144\n      jump\t// in\n    tag_236:\n        /* \"#utility.yul\":4034:4097   */\n      swap2\n      pop\n        /* \"#utility.yul\":3990:4107   */\n      pop\n        /* \"#utility.yul\":3785:4114   */\n      swap3\n      swap2\n      pop\n      pop\n      jump\t// out\n        /* \"#utility.yul\":4120:4238   */\n    tag_153:\n        /* \"#utility.yul\":4207:4231   */\n      tag_238\n        /* \"#utility.yul\":4225:4230   */\n      dup2\n        /* \"#utility.yul\":4207:4231   */\n      tag_142\n      jump\t// in\n    tag_238:\n        /* \"#utility.yul\":4202:4205   */\n      dup3\n        /* \"#utility.yul\":4195:4232   */\n      mstore\n        /* \"#utility.yul\":4120:4238   */\n      pop\n      pop\n      jump\t// out\n        /* \"#utility.yul\":4244:4686   */\n    tag_23:\n        /* \"#utility.yul\":4393:4397   */\n      0x00\n        /* \"#utility.yul\":4431:4433   */\n      0x60\n        /* \"#utility.yul\":4420:4429   */\n      dup3\n        /* \"#utility.yul\":4416:4434   */\n      add\n        /* \"#utility.yul\":4408:4434   */\n      swap1\n      pop\n        /* \"#utility.yul\":4444:4515   */\n      tag_240\n        /* \"#utility.yul\":4512:4513   */\n      0x00\n        /* \"#utility.yul\":4501:4510   */\n      dup4\n        /* \"#utility.yul\":4497:4514   */\n      add\n        /* \"#utility.yul\":4488:4494   */\n      dup7\n        /* \"#utility.yul\":4444:4515   */\n      tag_153\n      jump\t// in\n    tag_240:\n        /* \"#utility.yul\":4525:4597   */\n      tag_241\n        /* \"#utility.yul\":4593:4595   */\n      0x20\n        /* \"#utility.yul\":4582:4591   */\n      dup4\n        /* \"#utility.yul\":4578:4596   */\n      add\n        /* \"#utility.yul\":4569:4575   */\n      dup6\n        /* \"#utility.yul\":4525:4597   */\n      tag_153\n      jump\t// in\n    tag_241:\n        /* \"#utility.yul\":4607:4679   */\n      tag_242\n        /* \"#utility.yul\":4675:4677   */\n      0x40\n        /* \"#utility.yul\":4664:4673   */\n      dup4\n        /* \"#utility.yul\":4660:4678   */\n      add\n        /* \"#utility.yul\":4651:4657   */\n      dup5\n        /* \"#utility.yul\":4607:4679   */\n      tag_153\n      jump\t// in\n    tag_242:\n        /* \"#utility.yul\":4244:4686   */\n      swap5\n      swap4\n      pop\n      pop\n      pop\n      pop\n      jump\t// out\n        /* \"#utility.yul\":4692:4914   */\n    tag_30:\n        /* \"#utility.yul\":4785:4789   */\n      0x00\n        /* \"#utility.yul\":4823:4825   */\n      0x20\n        /* \"#utility.yul\":4812:4821   */\n      dup3\n        /* \"#utility.yul\":4808:4826   */\n      add\n        /* \"#utility.yul\":4800:4826   */\n      swap1\n      pop\n        /* \"#utility.yul\":4836:4907   */\n      tag_244\n        /* \"#utility.yul\":4904:4905   */\n      0x00\n        /* \"#utility.yul\":4893:4902   */\n      dup4\n        /* \"#utility.yul\":4889:4906   */\n      add\n        /* \"#utility.yul\":4880:4886   */\n      dup5\n        /* \"#utility.yul\":4836:4907   */\n      tag_153\n      jump\t// in\n    tag_244:\n        /* \"#utility.yul\":4692:4914   */\n      swap3\n      swap2\n      pop\n      pop\n      jump\t// out\n        /* \"#utility.yul\":4920:5046   */\n    tag_154:\n        /* \"#utility.yul\":4957:4964   */\n      0x00\n        /* \"#utility.yul\":4997:5039   */\n      0xffffffffffffffffffffffffffffffffffffffff\n        /* \"#utility.yul\":4990:4995   */\n      dup3\n        /* \"#utility.yul\":4986:5040   */\n      and\n        /* \"#utility.yul\":4975:5040   */\n      swap1\n      pop\n        /* \"#utility.yul\":4920:5046   */\n      swap2\n      swap1\n      pop\n      jump\t// out\n        /* \"#utility.yul\":5052:5148   */\n    tag_155:\n        /* \"#utility.yul\":5089:5096   */\n      0x00\n        /* \"#utility.yul\":5118:5142   */\n      tag_247\n        /* \"#utility.yul\":5136:5141   */\n      dup3\n        /* \"#utility.yul\":5118:5142   */\n      tag_154\n      jump\t// in\n    tag_247:\n        /* \"#utility.yul\":5107:5142   */\n      swap1\n      pop\n        /* \"#utility.yul\":5052:5148   */\n      swap2\n      swap1\n      pop\n      jump\t// out\n        /* \"#utility.yul\":5154:5272   */\n    tag_156:\n        /* \"#utility.yul\":5241:5265   */\n      tag_249\n        /* \"#utility.yul\":5259:5264   */\n      dup2\n        /* \"#utility.yul\":5241:5265   */\n      tag_155\n      jump\t// in\n    tag_249:\n        /* \"#utility.yul\":5236:5239   */\n      dup3\n        /* \"#utility.yul\":5229:5266   */\n      mstore\n        /* \"#utility.yul\":5154:5272   */\n      pop\n      pop\n      jump\t// out\n        /* \"#utility.yul\":5278:5500   */\n    tag_34:\n        /* \"#utility.yul\":5371:5375   */\n      0x00\n        /* \"#utility.yul\":5409:5411   */\n      0x20\n        /* \"#utility.yul\":5398:5407   */\n      dup3\n        /* \"#utility.yul\":5394:5412   */\n      add\n        /* \"#utility.yul\":5386:5412   */\n      swap1\n      pop\n        /* \"#utility.yul\":5422:5493   */\n      tag_251\n        /* \"#utility.yul\":5490:5491   */\n      0x00\n        /* \"#utility.yul\":5479:5488   */\n      dup4\n        /* \"#utility.yul\":5475:5492   */\n      add\n        /* \"#utility.yul\":5466:5472   */\n      dup5\n        /* \"#utility.yul\":5422:5493   */\n      tag_156\n      jump\t// in\n    tag_251:\n        /* \"#utility.yul\":5278:5500   */\n      swap3\n      swap2\n      pop\n      pop\n      jump\t// out\n        /* \"#utility.yul\":5506:5596   */\n    tag_157:\n        /* \"#utility.yul\":5540:5547   */\n      0x00\n        /* \"#utility.yul\":5583:5588   */\n      dup2\n        /* \"#utility.yul\":5576:5589   */\n      iszero\n        /* \"#utility.yul\":5569:5590   */\n      iszero\n        /* \"#utility.yul\":5558:5590   */\n      swap1\n      pop\n        /* \"#utility.yul\":5506:5596   */\n      swap2\n      swap1\n      pop\n      jump\t// out\n        /* \"#utility.yul\":5602:5711   */\n    tag_158:\n        /* \"#utility.yul\":5683:5704   */\n      tag_254\n        /* \"#utility.yul\":5698:5703   */\n      dup2\n        /* \"#utility.yul\":5683:5704   */\n      tag_157\n      jump\t// in\n    tag_254:\n        /* \"#utility.yul\":5678:5681   */\n      dup3\n        /* \"#utility.yul\":5671:5705   */\n      mstore\n        /* \"#utility.yul\":5602:5711   */\n      pop\n      pop\n      jump\t// out\n        /* \"#utility.yul\":5717:6025   */\n    tag_39:\n        /* \"#utility.yul\":5826:5830   */\n      0x00\n        /* \"#utility.yul\":5864:5866   */\n      0x40\n        /* \"#utility.yul\":5853:5862   */\n      dup3\n        /* \"#utility.yul\":5849:5867   */\n      add\n        /* \"#utility.yul\":5841:5867   */\n      swap1\n      pop\n        /* \"#utility.yul\":5877:5942   */\n      tag_256\n        /* \"#utility.yul\":5939:5940   */\n      0x00\n        /* \"#utility.yul\":5928:5937   */\n      dup4\n        /* \"#utility.yul\":5924:5941   */\n      add\n        /* \"#utility.yul\":5915:5921   */\n      dup6\n        /* \"#utility.yul\":5877:5942   */\n      tag_158\n      jump\t// in\n    tag_256:\n        /* \"#utility.yul\":5952:6018   */\n      tag_257\n        /* \"#utility.yul\":6014:6016   */\n      0x20\n        /* \"#utility.yul\":6003:6012   */\n      dup4\n        /* \"#utility.yul\":5999:6017   */\n      add\n        /* \"#utility.yul\":5990:5996   */\n      dup5\n        /* \"#utility.yul\":5952:6018   */\n      tag_158\n      jump\t// in\n    tag_257:\n        /* \"#utility.yul\":5717:6025   */\n      swap4\n      swap3\n      pop\n      pop\n      pop\n      jump\t// out\n        /* \"#utility.yul\":6031:6145   */\n    tag_159:\n        /* \"#utility.yul\":6098:6104   */\n      0x00\n        /* \"#utility.yul\":6132:6137   */\n      dup2\n        /* \"#utility.yul\":6126:6138   */\n      mload\n        /* \"#utility.yul\":6116:6138   */\n      swap1\n      pop\n        /* \"#utility.yul\":6031:6145   */\n      swap2\n      swap1\n      pop\n      jump\t// out\n        /* \"#utility.yul\":6151:6335   */\n    tag_160:\n        /* \"#utility.yul\":6250:6261   */\n      0x00\n        /* \"#utility.yul\":6284:6290   */\n      dup3\n        /* \"#utility.yul\":6279:6282   */\n      dup3\n        /* \"#utility.yul\":6272:6291   */\n      mstore\n        /* \"#utility.yul\":6324:6328   */\n      0x20\n        /* \"#utility.yul\":6319:6322   */\n      dup3\n        /* \"#utility.yul\":6315:6329   */\n      add\n        /* \"#utility.yul\":6300:6329   */\n      swap1\n      pop\n        /* \"#utility.yul\":6151:6335   */\n      swap3\n      swap2\n      pop\n      pop\n      jump\t// out\n        /* \"#utility.yul\":6341:6473   */\n    tag_161:\n        /* \"#utility.yul\":6408:6412   */\n      0x00\n        /* \"#utility.yul\":6431:6434   */\n      dup2\n        /* \"#utility.yul\":6423:6434   */\n      swap1\n      pop\n        /* \"#utility.yul\":6461:6465   */\n      0x20\n        /* \"#utility.yul\":6456:6459   */\n      dup3\n        /* \"#utility.yul\":6452:6466   */\n      add\n        /* \"#utility.yul\":6444:6466   */\n      swap1\n      pop\n        /* \"#utility.yul\":6341:6473   */\n      swap2\n      swap1\n      pop\n      jump\t// out\n        /* \"#utility.yul\":6479:6587   */\n    tag_162:\n        /* \"#utility.yul\":6556:6580   */\n      tag_262\n        /* \"#utility.yul\":6574:6579   */\n      dup2\n        /* \"#utility.yul\":6556:6580   */\n      tag_142\n      jump\t// in\n    tag_262:\n        /* \"#utility.yul\":6551:6554   */\n      dup3\n        /* \"#utility.yul\":6544:6581   */\n      mstore\n        /* \"#utility.yul\":6479:6587   */\n      pop\n      pop\n      jump\t// out\n        /* \"#utility.yul\":6593:6772   */\n    tag_163:\n        /* \"#utility.yul\":6662:6672   */\n      0x00\n        /* \"#utility.yul\":6683:6729   */\n      tag_264\n        /* \"#utility.yul\":6725:6728   */\n      dup4\n        /* \"#utility.yul\":6717:6723   */\n      dup4\n        /* \"#utility.yul\":6683:6729   */\n      tag_162\n      jump\t// in\n    tag_264:\n        /* \"#utility.yul\":6761:6765   */\n      0x20\n        /* \"#utility.yul\":6756:6759   */\n      dup4\n        /* \"#utility.yul\":6752:6766   */\n      add\n        /* \"#utility.yul\":6738:6766   */\n      swap1\n      pop\n        /* \"#utility.yul\":6593:6772   */\n      swap3\n      swap2\n      pop\n      pop\n      jump\t// out\n        /* \"#utility.yul\":6778:6891   */\n    tag_164:\n        /* \"#utility.yul\":6848:6852   */\n      0x00\n        /* \"#utility.yul\":6880:6884   */\n      0x20\n        /* \"#utility.yul\":6875:6878   */\n      dup3\n        /* \"#utility.yul\":6871:6885   */\n      add\n        /* \"#utility.yul\":6863:6885   */\n      swap1\n      pop\n        /* \"#utility.yul\":6778:6891   */\n      swap2\n      swap1\n      pop\n      jump\t// out\n        /* \"#utility.yul\":6927:7659   */\n    tag_165:\n        /* \"#utility.yul\":7046:7049   */\n      0x00\n        /* \"#utility.yul\":7075:7129   */\n      tag_267\n        /* \"#utility.yul\":7123:7128   */\n      dup3\n        /* \"#utility.yul\":7075:7129   */\n      tag_159\n      jump\t// in\n    tag_267:\n        /* \"#utility.yul\":7145:7231   */\n      tag_268\n        /* \"#utility.yul\":7224:7230   */\n      dup2\n        /* \"#utility.yul\":7219:7222   */\n      dup6\n        /* \"#utility.yul\":7145:7231   */\n      tag_160\n      jump\t// in\n    tag_268:\n        /* \"#utility.yul\":7138:7231   */\n      swap4\n      pop\n        /* \"#utility.yul\":7255:7311   */\n      tag_269\n        /* \"#utility.yul\":7305:7310   */\n      dup4\n        /* \"#utility.yul\":7255:7311   */\n      tag_161\n      jump\t// in\n    tag_269:\n        /* \"#utility.yul\":7334:7341   */\n      dup1\n        /* \"#utility.yul\":7365:7366   */\n      0x00\n        /* \"#utility.yul\":7350:7634   */\n    tag_270:\n        /* \"#utility.yul\":7375:7381   */\n      dup4\n        /* \"#utility.yul\":7372:7373   */\n      dup2\n        /* \"#utility.yul\":7369:7382   */\n      lt\n        /* \"#utility.yul\":7350:7634   */\n      iszero\n      tag_272\n      jumpi\n        /* \"#utility.yul\":7451:7457   */\n      dup2\n        /* \"#utility.yul\":7445:7458   */\n      mload\n        /* \"#utility.yul\":7478:7541   */\n      tag_273\n        /* \"#utility.yul\":7537:7540   */\n      dup9\n        /* \"#utility.yul\":7522:7535   */\n      dup3\n        /* \"#utility.yul\":7478:7541   */\n      tag_163\n      jump\t// in\n    tag_273:\n        /* \"#utility.yul\":7471:7541   */\n      swap8\n      pop\n        /* \"#utility.yul\":7564:7624   */\n      tag_274\n        /* \"#utility.yul\":7617:7623   */\n      dup4\n        /* \"#utility.yul\":7564:7624   */\n      tag_164\n      jump\t// in\n    tag_274:\n        /* \"#utility.yul\":7554:7624   */\n      swap3\n      pop\n        /* \"#utility.yul\":7410:7634   */\n      pop\n        /* \"#utility.yul\":7397:7398   */\n      0x01\n        /* \"#utility.yul\":7394:7395   */\n      dup2\n        /* \"#utility.yul\":7390:7399   */\n      add\n        /* \"#utility.yul\":7385:7399   */\n      swap1\n      pop\n        /* \"#utility.yul\":7350:7634   */\n      jump(tag_270)\n    tag_272:\n        /* \"#utility.yul\":7354:7368   */\n      pop\n        /* \"#utility.yul\":7650:7653   */\n      dup6\n        /* \"#utility.yul\":7643:7653   */\n      swap4\n      pop\n        /* \"#utility.yul\":7051:7659   */\n      pop\n      pop\n      pop\n        /* \"#utility.yul\":6927:7659   */\n      swap3\n      swap2\n      pop\n      pop\n      jump\t// out\n        /* \"#utility.yul\":7665:8136   */\n    tag_44:\n        /* \"#utility.yul\":7830:7834   */\n      0x00\n        /* \"#utility.yul\":7868:7870   */\n      0x40\n        /* \"#utility.yul\":7857:7866   */\n      dup3\n        /* \"#utility.yul\":7853:7871   */\n      add\n        /* \"#utility.yul\":7845:7871   */\n      swap1\n      pop\n        /* \"#utility.yul\":7881:7946   */\n      tag_276\n        /* \"#utility.yul\":7943:7944   */\n      0x00\n        /* \"#utility.yul\":7932:7941   */\n      dup4\n        /* \"#utility.yul\":7928:7945   */\n      add\n        /* \"#utility.yul\":7919:7925   */\n      dup6\n        /* \"#utility.yul\":7881:7946   */\n      tag_158\n      jump\t// in\n    tag_276:\n        /* \"#utility.yul\":7993:8002   */\n      dup2\n        /* \"#utility.yul\":7987:7991   */\n      dup2\n        /* \"#utility.yul\":7983:8003   */\n      sub\n        /* \"#utility.yul\":7978:7980   */\n      0x20\n        /* \"#utility.yul\":7967:7976   */\n      dup4\n        /* \"#utility.yul\":7963:7981   */\n      add\n        /* \"#utility.yul\":7956:8004   */\n      mstore\n        /* \"#utility.yul\":8021:8129   */\n      tag_277\n        /* \"#utility.yul\":8124:8128   */\n      dup2\n        /* \"#utility.yul\":8115:8121   */\n      dup5\n        /* \"#utility.yul\":8021:8129   */\n      tag_165\n      jump\t// in\n    tag_277:\n        /* \"#utility.yul\":8013:8129   */\n      swap1\n      pop\n        /* \"#utility.yul\":7665:8136   */\n      swap4\n      swap3\n      pop\n      pop\n      pop\n      jump\t// out\n        /* \"#utility.yul\":8142:8264   */\n    tag_166:\n        /* \"#utility.yul\":8215:8239   */\n      tag_279\n        /* \"#utility.yul\":8233:8238   */\n      dup2\n        /* \"#utility.yul\":8215:8239   */\n      tag_155\n      jump\t// in\n    tag_279:\n        /* \"#utility.yul\":8208:8213   */\n      dup2\n        /* \"#utility.yul\":8205:8240   */\n      eq\n        /* \"#utility.yul\":8195:8258   */\n      tag_280\n      jumpi\n        /* \"#utility.yul\":8254:8255   */\n      0x00\n        /* \"#utility.yul\":8251:8252   */\n      dup1\n        /* \"#utility.yul\":8244:8256   */\n      revert\n        /* \"#utility.yul\":8195:8258   */\n    tag_280:\n        /* \"#utility.yul\":8142:8264   */\n      pop\n      jump\t// out\n        /* \"#utility.yul\":8270:8409   */\n    tag_167:\n        /* \"#utility.yul\":8316:8321   */\n      0x00\n        /* \"#utility.yul\":8354:8360   */\n      dup2\n        /* \"#utility.yul\":8341:8361   */\n      calldataload\n        /* \"#utility.yul\":8332:8361   */\n      swap1\n      pop\n        /* \"#utility.yul\":8370:8403   */\n      tag_282\n        /* \"#utility.yul\":8397:8402   */\n      dup2\n        /* \"#utility.yul\":8370:8403   */\n      tag_166\n      jump\t// in\n    tag_282:\n        /* \"#utility.yul\":8270:8409   */\n      swap3\n      swap2\n      pop\n      pop\n      jump\t// out\n        /* \"#utility.yul\":8415:8744   */\n    tag_50:\n        /* \"#utility.yul\":8474:8480   */\n      0x00\n        /* \"#utility.yul\":8523:8525   */\n      0x20\n        /* \"#utility.yul\":8511:8520   */\n      dup3\n        /* \"#utility.yul\":8502:8509   */\n      dup5\n        /* \"#utility.yul\":8498:8521   */\n      sub\n        /* \"#utility.yul\":8494:8526   */\n      slt\n        /* \"#utility.yul\":8491:8610   */\n      iszero\n      tag_284\n      jumpi\n        /* \"#utility.yul\":8529:8608   */\n      tag_285\n      tag_140\n      jump\t// in\n    tag_285:\n        /* \"#utility.yul\":8491:8610   */\n    tag_284:\n        /* \"#utility.yul\":8649:8650   */\n      0x00\n        /* \"#utility.yul\":8674:8727   */\n      tag_286\n        /* \"#utility.yul\":8719:8726   */\n      dup5\n        /* \"#utility.yul\":8710:8716   */\n      dup3\n        /* \"#utility.yul\":8699:8708   */\n      dup6\n        /* \"#utility.yul\":8695:8717   */\n      add\n        /* \"#utility.yul\":8674:8727   */\n      tag_167\n      jump\t// in\n    tag_286:\n        /* \"#utility.yul\":8664:8727   */\n      swap2\n      pop\n        /* \"#utility.yul\":8620:8737   */\n      pop\n        /* \"#utility.yul\":8415:8744   */\n      swap3\n      swap2\n      pop\n      pop\n      jump\t// out\n        /* \"#utility.yul\":8750:9082   */\n    tag_58:\n        /* \"#utility.yul\":8871:8875   */\n      0x00\n        /* \"#utility.yul\":8909:8911   */\n      0x40\n        /* \"#utility.yul\":8898:8907   */\n      dup3\n        /* \"#utility.yul\":8894:8912   */\n      add\n        /* \"#utility.yul\":8886:8912   */\n      swap1\n      pop\n        /* \"#utility.yul\":8922:8993   */\n      tag_288\n        /* \"#utility.yul\":8990:8991   */\n      0x00\n        /* \"#utility.yul\":8979:8988   */\n      dup4\n        /* \"#utility.yul\":8975:8992   */\n      add\n        /* \"#utility.yul\":8966:8972   */\n      dup6\n        /* \"#utility.yul\":8922:8993   */\n      tag_156\n      jump\t// in\n    tag_288:\n        /* \"#utility.yul\":9003:9075   */\n      tag_289\n        /* \"#utility.yul\":9071:9073   */\n      0x20\n        /* \"#utility.yul\":9060:9069   */\n      dup4\n        /* \"#utility.yul\":9056:9074   */\n      add\n        /* \"#utility.yul\":9047:9053   */\n      dup5\n        /* \"#utility.yul\":9003:9075   */\n      tag_156\n      jump\t// in\n    tag_289:\n        /* \"#utility.yul\":8750:9082   */\n      swap4\n      swap3\n      pop\n      pop\n      pop\n      jump\t// out\n        /* \"#utility.yul\":9088:9257   */\n    tag_168:\n        /* \"#utility.yul\":9172:9183   */\n      0x00\n        /* \"#utility.yul\":9206:9212   */\n      dup3\n        /* \"#utility.yul\":9201:9204   */\n      dup3\n        /* \"#utility.yul\":9194:9213   */\n      mstore\n        /* \"#utility.yul\":9246:9250   */\n      0x20\n        /* \"#utility.yul\":9241:9244   */\n      dup3\n        /* \"#utility.yul\":9237:9251   */\n      add\n        /* \"#utility.yul\":9222:9251   */\n      swap1\n      pop\n        /* \"#utility.yul\":9088:9257   */\n      swap3\n      swap2\n      pop\n      pop\n      jump\t// out\n        /* \"#utility.yul\":9263:9430   */\n    tag_169:\n        /* \"#utility.yul\":9403:9422   */\n      0x72657175657374206e6f7420666f756e64000000000000000000000000000000\n        /* \"#utility.yul\":9399:9400   */\n      0x00\n        /* \"#utility.yul\":9391:9397   */\n      dup3\n        /* \"#utility.yul\":9387:9401   */\n      add\n        /* \"#utility.yul\":9380:9423   */\n      mstore\n        /* \"#utility.yul\":9263:9430   */\n      pop\n      jump\t// out\n        /* \"#utility.yul\":9436:9802   */\n    tag_170:\n        /* \"#utility.yul\":9578:9581   */\n      0x00\n        /* \"#utility.yul\":9599:9666   */\n      tag_293\n        /* \"#utility.yul\":9663:9665   */\n      0x11\n        /* \"#utility.yul\":9658:9661   */\n      dup4\n        /* \"#utility.yul\":9599:9666   */\n      tag_168\n      jump\t// in\n    tag_293:\n        /* \"#utility.yul\":9592:9666   */\n      swap2\n      pop\n        /* \"#utility.yul\":9675:9768   */\n      tag_294\n        /* \"#utility.yul\":9764:9767   */\n      dup3\n        /* \"#utility.yul\":9675:9768   */\n      tag_169\n      jump\t// in\n    tag_294:\n        /* \"#utility.yul\":9793:9795   */\n      0x20\n        /* \"#utility.yul\":9788:9791   */\n      dup3\n        /* \"#utility.yul\":9784:9796   */\n      add\n        /* \"#utility.yul\":9777:9796   */\n      swap1\n      pop\n        /* \"#utility.yul\":9436:9802   */\n      swap2\n      swap1\n      pop\n      jump\t// out\n        /* \"#utility.yul\":9808:10227   */\n    tag_64:\n        /* \"#utility.yul\":9974:9978   */\n      0x00\n        /* \"#utility.yul\":10012:10014   */\n      0x20\n        /* \"#utility.yul\":10001:10010   */\n      dup3\n        /* \"#utility.yul\":9997:10015   */\n      add\n        /* \"#utility.yul\":9989:10015   */\n      swap1\n      pop\n        /* \"#utility.yul\":10061:10070   */\n      dup2\n        /* \"#utility.yul\":10055:10059   */\n      dup2\n        /* \"#utility.yul\":10051:10071   */\n      sub\n        /* \"#utility.yul\":10047:10048   */\n      0x00\n        /* \"#utility.yul\":10036:10045   */\n      dup4\n        /* \"#utility.yul\":10032:10049   */\n      add\n        /* \"#utility.yul\":10025:10072   */\n      mstore\n        /* \"#utility.yul\":10089:10220   */\n      tag_296\n        /* \"#utility.yul\":10215:10219   */\n      dup2\n        /* \"#utility.yul\":10089:10220   */\n      tag_170\n      jump\t// in\n    tag_296:\n        /* \"#utility.yul\":10081:10220   */\n      swap1\n      pop\n        /* \"#utility.yul\":9808:10227   */\n      swap2\n      swap1\n      pop\n      jump\t// out\n        /* \"#utility.yul\":10233:10400   */\n    tag_171:\n        /* \"#utility.yul\":10373:10392   */\n      0x4e6f74207965742066756c66696c6c6564000000000000000000000000000000\n        /* \"#utility.yul\":10369:10370   */\n      0x00\n        /* \"#utility.yul\":10361:10367   */\n      dup3\n        /* \"#utility.yul\":10357:10371   */\n      add\n        /* \"#utility.yul\":10350:10393   */\n      mstore\n        /* \"#utility.yul\":10233:10400   */\n      pop\n      jump\t// out\n        /* \"#utility.yul\":10406:10772   */\n    tag_172:\n        /* \"#utility.yul\":10548:10551   */\n      0x00\n        /* \"#utility.yul\":10569:10636   */\n      tag_299\n        /* \"#utility.yul\":10633:10635   */\n      0x11\n        /* \"#utility.yul\":10628:10631   */\n      dup4\n        /* \"#utility.yul\":10569:10636   */\n      tag_168\n      jump\t// in\n    tag_299:\n        /* \"#utility.yul\":10562:10636   */\n      swap2\n      pop\n        /* \"#utility.yul\":10645:10738   */\n      tag_300\n        /* \"#utility.yul\":10734:10737   */\n      dup3\n        /* \"#utility.yul\":10645:10738   */\n      tag_171\n      jump\t// in\n    tag_300:\n        /* \"#utility.yul\":10763:10765   */\n      0x20\n        /* \"#utility.yul\":10758:10761   */\n      dup3\n        /* \"#utility.yul\":10754:10766   */\n      add\n        /* \"#utility.yul\":10747:10766   */\n      swap1\n      pop\n        /* \"#utility.yul\":10406:10772   */\n      swap2\n      swap1\n      pop\n      jump\t// out\n        /* \"#utility.yul\":10778:11197   */\n    tag_67:\n        /* \"#utility.yul\":10944:10948   */\n      0x00\n        /* \"#utility.yul\":10982:10984   */\n      0x20\n        /* \"#utility.yul\":10971:10980   */\n      dup3\n        /* \"#utility.yul\":10967:10985   */\n      add\n        /* \"#utility.yul\":10959:10985   */\n      swap1\n      pop\n        /* \"#utility.yul\":11031:11040   */\n      dup2\n        /* \"#utility.yul\":11025:11029   */\n      dup2\n        /* \"#utility.yul\":11021:11041   */\n      sub\n        /* \"#utility.yul\":11017:11018   */\n      0x00\n        /* \"#utility.yul\":11006:11015   */\n      dup4\n        /* \"#utility.yul\":11002:11019   */\n      add\n        /* \"#utility.yul\":10995:11042   */\n      mstore\n        /* \"#utility.yul\":11059:11190   */\n      tag_302\n        /* \"#utility.yul\":11185:11189   */\n      dup2\n        /* \"#utility.yul\":11059:11190   */\n      tag_172\n      jump\t// in\n    tag_302:\n        /* \"#utility.yul\":11051:11190   */\n      swap1\n      pop\n        /* \"#utility.yul\":10778:11197   */\n      swap2\n      swap1\n      pop\n      jump\t// out\n        /* \"#utility.yul\":11203:11383   */\n    tag_70:\n        /* \"#utility.yul\":11251:11328   */\n      0x4e487b7100000000000000000000000000000000000000000000000000000000\n        /* \"#utility.yul\":11248:11249   */\n      0x00\n        /* \"#utility.yul\":11241:11329   */\n      mstore\n        /* \"#utility.yul\":11348:11352   */\n      0x32\n        /* \"#utility.yul\":11345:11346   */\n      0x04\n        /* \"#utility.yul\":11338:11353   */\n      mstore\n        /* \"#utility.yul\":11372:11376   */\n      0x24\n        /* \"#utility.yul\":11369:11370   */\n      0x00\n        /* \"#utility.yul\":11362:11377   */\n      revert\n        /* \"#utility.yul\":11389:11569   */\n    tag_173:\n        /* \"#utility.yul\":11437:11514   */\n      0x4e487b7100000000000000000000000000000000000000000000000000000000\n        /* \"#utility.yul\":11434:11435   */\n      0x00\n        /* \"#utility.yul\":11427:11515   */\n      mstore\n        /* \"#utility.yul\":11534:11538   */\n      0x12\n        /* \"#utility.yul\":11531:11532   */\n      0x04\n        /* \"#utility.yul\":11524:11539   */\n      mstore\n        /* \"#utility.yul\":11558:11562   */\n      0x24\n        /* \"#utility.yul\":11555:11556   */\n      0x00\n        /* \"#utility.yul\":11548:11563   */\n      revert\n        /* \"#utility.yul\":11575:11751   */\n    tag_73:\n        /* \"#utility.yul\":11607:11608   */\n      0x00\n        /* \"#utility.yul\":11624:11644   */\n      tag_306\n        /* \"#utility.yul\":11642:11643   */\n      dup3\n        /* \"#utility.yul\":11624:11644   */\n      tag_142\n      jump\t// in\n    tag_306:\n        /* \"#utility.yul\":11619:11644   */\n      swap2\n      pop\n        /* \"#utility.yul\":11658:11678   */\n      tag_307\n        /* \"#utility.yul\":11676:11677   */\n      dup4\n        /* \"#utility.yul\":11658:11678   */\n      tag_142\n      jump\t// in\n    tag_307:\n        /* \"#utility.yul\":11653:11678   */\n      swap3\n      pop\n        /* \"#utility.yul\":11697:11698   */\n      dup3\n        /* \"#utility.yul\":11687:11722   */\n      tag_308\n      jumpi\n        /* \"#utility.yul\":11702:11720   */\n      tag_309\n      tag_173\n      jump\t// in\n    tag_309:\n        /* \"#utility.yul\":11687:11722   */\n    tag_308:\n        /* \"#utility.yul\":11743:11744   */\n      dup3\n        /* \"#utility.yul\":11740:11741   */\n      dup3\n        /* \"#utility.yul\":11736:11745   */\n      mod\n        /* \"#utility.yul\":11731:11745   */\n      swap1\n      pop\n        /* \"#utility.yul\":11575:11751   */\n      swap3\n      swap2\n      pop\n      pop\n      jump\t// out\n        /* \"#utility.yul\":11757:11929   */\n    tag_174:\n        /* \"#utility.yul\":11897:11921   */\n      0x4d7573742062652070726f706f736564206f776e657200000000000000000000\n        /* \"#utility.yul\":11893:11894   */\n      0x00\n        /* \"#utility.yul\":11885:11891   */\n      dup3\n        /* \"#utility.yul\":11881:11895   */\n      add\n        /* \"#utility.yul\":11874:11922   */\n      mstore\n        /* \"#utility.yul\":11757:11929   */\n      pop\n      jump\t// out\n        /* \"#utility.yul\":11935:12301   */\n    tag_175:\n        /* \"#utility.yul\":12077:12080   */\n      0x00\n        /* \"#utility.yul\":12098:12165   */\n      tag_312\n        /* \"#utility.yul\":12162:12164   */\n      0x16\n        /* \"#utility.yul\":12157:12160   */\n      dup4\n        /* \"#utility.yul\":12098:12165   */\n      tag_168\n      jump\t// in\n    tag_312:\n        /* \"#utility.yul\":12091:12165   */\n      swap2\n      pop\n        /* \"#utility.yul\":12174:12267   */\n      tag_313\n        /* \"#utility.yul\":12263:12266   */\n      dup3\n        /* \"#utility.yul\":12174:12267   */\n      tag_174\n      jump\t// in\n    tag_313:\n        /* \"#utility.yul\":12292:12294   */\n      0x20\n        /* \"#utility.yul\":12287:12290   */\n      dup3\n        /* \"#utility.yul\":12283:12295   */\n      add\n        /* \"#utility.yul\":12276:12295   */\n      swap1\n      pop\n        /* \"#utility.yul\":11935:12301   */\n      swap2\n      swap1\n      pop\n      jump\t// out\n        /* \"#utility.yul\":12307:12726   */\n    tag_85:\n        /* \"#utility.yul\":12473:12477   */\n      0x00\n        /* \"#utility.yul\":12511:12513   */\n      0x20\n        /* \"#utility.yul\":12500:12509   */\n      dup3\n        /* \"#utility.yul\":12496:12514   */\n      add\n        /* \"#utility.yul\":12488:12514   */\n      swap1\n      pop\n        /* \"#utility.yul\":12560:12569   */\n      dup2\n        /* \"#utility.yul\":12554:12558   */\n      dup2\n        /* \"#utility.yul\":12550:12570   */\n      sub\n        /* \"#utility.yul\":12546:12547   */\n      0x00\n        /* \"#utility.yul\":12535:12544   */\n      dup4\n        /* \"#utility.yul\":12531:12548   */\n      add\n        /* \"#utility.yul\":12524:12571   */\n      mstore\n        /* \"#utility.yul\":12588:12719   */\n      tag_315\n        /* \"#utility.yul\":12714:12718   */\n      dup2\n        /* \"#utility.yul\":12588:12719   */\n      tag_175\n      jump\t// in\n    tag_315:\n        /* \"#utility.yul\":12580:12719   */\n      swap1\n      pop\n        /* \"#utility.yul\":12307:12726   */\n      swap2\n      swap1\n      pop\n      jump\t// out\n        /* \"#utility.yul\":12732:12809   */\n    tag_176:\n        /* \"#utility.yul\":12769:12776   */\n      0x00\n        /* \"#utility.yul\":12798:12803   */\n      dup2\n        /* \"#utility.yul\":12787:12803   */\n      swap1\n      pop\n        /* \"#utility.yul\":12732:12809   */\n      swap2\n      swap1\n      pop\n      jump\t// out\n        /* \"#utility.yul\":12815:12933   */\n    tag_177:\n        /* \"#utility.yul\":12902:12926   */\n      tag_318\n        /* \"#utility.yul\":12920:12925   */\n      dup2\n        /* \"#utility.yul\":12902:12926   */\n      tag_176\n      jump\t// in\n    tag_318:\n        /* \"#utility.yul\":12897:12900   */\n      dup3\n        /* \"#utility.yul\":12890:12927   */\n      mstore\n        /* \"#utility.yul\":12815:12933   */\n      pop\n      pop\n      jump\t// out\n        /* \"#utility.yul\":12939:13040   */\n    tag_178:\n        /* \"#utility.yul\":12975:12982   */\n      0x00\n        /* \"#utility.yul\":13015:13033   */\n      0xffffffffffffffff\n        /* \"#utility.yul\":13008:13013   */\n      dup3\n        /* \"#utility.yul\":13004:13034   */\n      and\n        /* \"#utility.yul\":12993:13034   */\n      swap1\n      pop\n        /* \"#utility.yul\":12939:13040   */\n      swap2\n      swap1\n      pop\n      jump\t// out\n        /* \"#utility.yul\":13046:13161   */\n    tag_179:\n        /* \"#utility.yul\":13131:13154   */\n      tag_321\n        /* \"#utility.yul\":13148:13153   */\n      dup2\n        /* \"#utility.yul\":13131:13154   */\n      tag_178\n      jump\t// in\n    tag_321:\n        /* \"#utility.yul\":13126:13129   */\n      dup3\n        /* \"#utility.yul\":13119:13155   */\n      mstore\n        /* \"#utility.yul\":13046:13161   */\n      pop\n      pop\n      jump\t// out\n        /* \"#utility.yul\":13167:13256   */\n    tag_180:\n        /* \"#utility.yul\":13203:13210   */\n      0x00\n        /* \"#utility.yul\":13243:13249   */\n      0xffff\n        /* \"#utility.yul\":13236:13241   */\n      dup3\n        /* \"#utility.yul\":13232:13250   */\n      and\n        /* \"#utility.yul\":13221:13250   */\n      swap1\n      pop\n        /* \"#utility.yul\":13167:13256   */\n      swap2\n      swap1\n      pop\n      jump\t// out\n        /* \"#utility.yul\":13262:13377   */\n    tag_181:\n        /* \"#utility.yul\":13347:13370   */\n      tag_324\n        /* \"#utility.yul\":13364:13369   */\n      dup2\n        /* \"#utility.yul\":13347:13370   */\n      tag_180\n      jump\t// in\n    tag_324:\n        /* \"#utility.yul\":13342:13345   */\n      dup3\n        /* \"#utility.yul\":13335:13371   */\n      mstore\n        /* \"#utility.yul\":13262:13377   */\n      pop\n      pop\n      jump\t// out\n        /* \"#utility.yul\":13383:13476   */\n    tag_182:\n        /* \"#utility.yul\":13419:13426   */\n      0x00\n        /* \"#utility.yul\":13459:13469   */\n      0xffffffff\n        /* \"#utility.yul\":13452:13457   */\n      dup3\n        /* \"#utility.yul\":13448:13470   */\n      and\n        /* \"#utility.yul\":13437:13470   */\n      swap1\n      pop\n        /* \"#utility.yul\":13383:13476   */\n      swap2\n      swap1\n      pop\n      jump\t// out\n        /* \"#utility.yul\":13482:13597   */\n    tag_183:\n        /* \"#utility.yul\":13567:13590   */\n      tag_327\n        /* \"#utility.yul\":13584:13589   */\n      dup2\n        /* \"#utility.yul\":13567:13590   */\n      tag_182\n      jump\t// in\n    tag_327:\n        /* \"#utility.yul\":13562:13565   */\n      dup3\n        /* \"#utility.yul\":13555:13591   */\n      mstore\n        /* \"#utility.yul\":13482:13597   */\n      pop\n      pop\n      jump\t// out\n        /* \"#utility.yul\":13603:14251   */\n    tag_99:\n        /* \"#utility.yul\":13800:13804   */\n      0x00\n        /* \"#utility.yul\":13838:13841   */\n      0xa0\n        /* \"#utility.yul\":13827:13836   */\n      dup3\n        /* \"#utility.yul\":13823:13842   */\n      add\n        /* \"#utility.yul\":13815:13842   */\n      swap1\n      pop\n        /* \"#utility.yul\":13852:13923   */\n      tag_329\n        /* \"#utility.yul\":13920:13921   */\n      0x00\n        /* \"#utility.yul\":13909:13918   */\n      dup4\n        /* \"#utility.yul\":13905:13922   */\n      add\n        /* \"#utility.yul\":13896:13902   */\n      dup9\n        /* \"#utility.yul\":13852:13923   */\n      tag_177\n      jump\t// in\n    tag_329:\n        /* \"#utility.yul\":13933:14003   */\n      tag_330\n        /* \"#utility.yul\":13999:14001   */\n      0x20\n        /* \"#utility.yul\":13988:13997   */\n      dup4\n        /* \"#utility.yul\":13984:14002   */\n      add\n        /* \"#utility.yul\":13975:13981   */\n      dup8\n        /* \"#utility.yul\":13933:14003   */\n      tag_179\n      jump\t// in\n    tag_330:\n        /* \"#utility.yul\":14013:14083   */\n      tag_331\n        /* \"#utility.yul\":14079:14081   */\n      0x40\n        /* \"#utility.yul\":14068:14077   */\n      dup4\n        /* \"#utility.yul\":14064:14082   */\n      add\n        /* \"#utility.yul\":14055:14061   */\n      dup7\n        /* \"#utility.yul\":14013:14083   */\n      tag_181\n      jump\t// in\n    tag_331:\n        /* \"#utility.yul\":14093:14163   */\n      tag_332\n        /* \"#utility.yul\":14159:14161   */\n      0x60\n        /* \"#utility.yul\":14148:14157   */\n      dup4\n        /* \"#utility.yul\":14144:14162   */\n      add\n        /* \"#utility.yul\":14135:14141   */\n      dup6\n        /* \"#utility.yul\":14093:14163   */\n      tag_183\n      jump\t// in\n    tag_332:\n        /* \"#utility.yul\":14173:14244   */\n      tag_333\n        /* \"#utility.yul\":14239:14242   */\n      0x80\n        /* \"#utility.yul\":14228:14237   */\n      dup4\n        /* \"#utility.yul\":14224:14243   */\n      add\n        /* \"#utility.yul\":14215:14221   */\n      dup5\n        /* \"#utility.yul\":14173:14244   */\n      tag_183\n      jump\t// in\n    tag_333:\n        /* \"#utility.yul\":13603:14251   */\n      swap7\n      swap6\n      pop\n      pop\n      pop\n      pop\n      pop\n      pop\n      jump\t// out\n        /* \"#utility.yul\":14257:14400   */\n    tag_184:\n        /* \"#utility.yul\":14314:14319   */\n      0x00\n        /* \"#utility.yul\":14345:14351   */\n      dup2\n        /* \"#utility.yul\":14339:14352   */\n      mload\n        /* \"#utility.yul\":14330:14352   */\n      swap1\n      pop\n        /* \"#utility.yul\":14361:14394   */\n      tag_335\n        /* \"#utility.yul\":14388:14393   */\n      dup2\n        /* \"#utility.yul\":14361:14394   */\n      tag_143\n      jump\t// in\n    tag_335:\n        /* \"#utility.yul\":14257:14400   */\n      swap3\n      swap2\n      pop\n      pop\n      jump\t// out\n        /* \"#utility.yul\":14406:14757   */\n    tag_103:\n        /* \"#utility.yul\":14476:14482   */\n      0x00\n        /* \"#utility.yul\":14525:14527   */\n      0x20\n        /* \"#utility.yul\":14513:14522   */\n      dup3\n        /* \"#utility.yul\":14504:14511   */\n      dup5\n        /* \"#utility.yul\":14500:14523   */\n      sub\n        /* \"#utility.yul\":14496:14528   */\n      slt\n        /* \"#utility.yul\":14493:14612   */\n      iszero\n      tag_337\n      jumpi\n        /* \"#utility.yul\":14531:14610   */\n      tag_338\n      tag_140\n      jump\t// in\n    tag_338:\n        /* \"#utility.yul\":14493:14612   */\n    tag_337:\n        /* \"#utility.yul\":14651:14652   */\n      0x00\n        /* \"#utility.yul\":14676:14740   */\n      tag_339\n        /* \"#utility.yul\":14732:14739   */\n      dup5\n        /* \"#utility.yul\":14723:14729   */\n      dup3\n        /* \"#utility.yul\":14712:14721   */\n      dup6\n        /* \"#utility.yul\":14708:14730   */\n      add\n        /* \"#utility.yul\":14676:14740   */\n      tag_184\n      jump\t// in\n    tag_339:\n        /* \"#utility.yul\":14666:14740   */\n      swap2\n      pop\n        /* \"#utility.yul\":14622:14750   */\n      pop\n        /* \"#utility.yul\":14406:14757   */\n      swap3\n      swap2\n      pop\n      pop\n      jump\t// out\n        /* \"#utility.yul\":14763:15091   */\n    tag_112:\n        /* \"#utility.yul\":14882:14886   */\n      0x00\n        /* \"#utility.yul\":14920:14922   */\n      0x40\n        /* \"#utility.yul\":14909:14918   */\n      dup3\n        /* \"#utility.yul\":14905:14923   */\n      add\n        /* \"#utility.yul\":14897:14923   */\n      swap1\n      pop\n        /* \"#utility.yul\":14933:15004   */\n      tag_341\n        /* \"#utility.yul\":15001:15002   */\n      0x00\n        /* \"#utility.yul\":14990:14999   */\n      dup4\n        /* \"#utility.yul\":14986:15003   */\n      add\n        /* \"#utility.yul\":14977:14983   */\n      dup6\n        /* \"#utility.yul\":14933:15004   */\n      tag_153\n      jump\t// in\n    tag_341:\n        /* \"#utility.yul\":15014:15084   */\n      tag_342\n        /* \"#utility.yul\":15080:15082   */\n      0x20\n        /* \"#utility.yul\":15069:15078   */\n      dup4\n        /* \"#utility.yul\":15065:15083   */\n      add\n        /* \"#utility.yul\":15056:15062   */\n      dup5\n        /* \"#utility.yul\":15014:15084   */\n      tag_183\n      jump\t// in\n    tag_342:\n        /* \"#utility.yul\":14763:15091   */\n      swap4\n      swap3\n      pop\n      pop\n      pop\n      jump\t// out\n        /* \"#utility.yul\":15097:15580   */\n    tag_123:\n        /* \"#utility.yul\":15268:15272   */\n      0x00\n        /* \"#utility.yul\":15306:15308   */\n      0x40\n        /* \"#utility.yul\":15295:15304   */\n      dup3\n        /* \"#utility.yul\":15291:15309   */\n      add\n        /* \"#utility.yul\":15283:15309   */\n      swap1\n      pop\n        /* \"#utility.yul\":15319:15390   */\n      tag_344\n        /* \"#utility.yul\":15387:15388   */\n      0x00\n        /* \"#utility.yul\":15376:15385   */\n      dup4\n        /* \"#utility.yul\":15372:15389   */\n      add\n        /* \"#utility.yul\":15363:15369   */\n      dup6\n        /* \"#utility.yul\":15319:15390   */\n      tag_153\n      jump\t// in\n    tag_344:\n        /* \"#utility.yul\":15437:15446   */\n      dup2\n        /* \"#utility.yul\":15431:15435   */\n      dup2\n        /* \"#utility.yul\":15427:15447   */\n      sub\n        /* \"#utility.yul\":15422:15424   */\n      0x20\n        /* \"#utility.yul\":15411:15420   */\n      dup4\n        /* \"#utility.yul\":15407:15425   */\n      add\n        /* \"#utility.yul\":15400:15448   */\n      mstore\n        /* \"#utility.yul\":15465:15573   */\n      tag_345\n        /* \"#utility.yul\":15568:15572   */\n      dup2\n        /* \"#utility.yul\":15559:15565   */\n      dup5\n        /* \"#utility.yul\":15465:15573   */\n      tag_165\n      jump\t// in\n    tag_345:\n        /* \"#utility.yul\":15457:15573   */\n      swap1\n      pop\n        /* \"#utility.yul\":15097:15580   */\n      swap4\n      swap3\n      pop\n      pop\n      pop\n      jump\t// out\n        /* \"#utility.yul\":15586:15758   */\n    tag_185:\n        /* \"#utility.yul\":15726:15750   */\n      0x4f6e6c792063616c6c61626c65206279206f776e657200000000000000000000\n        /* \"#utility.yul\":15722:15723   */\n      0x00\n        /* \"#utility.yul\":15714:15720   */\n      dup3\n        /* \"#utility.yul\":15710:15724   */\n      add\n        /* \"#utility.yul\":15703:15751   */\n      mstore\n        /* \"#utility.yul\":15586:15758   */\n      pop\n      jump\t// out\n        /* \"#utility.yul\":15764:16130   */\n    tag_186:\n        /* \"#utility.yul\":15906:15909   */\n      0x00\n        /* \"#utility.yul\":15927:15994   */\n      tag_348\n        /* \"#utility.yul\":15991:15993   */\n      0x16\n        /* \"#utility.yul\":15986:15989   */\n      dup4\n        /* \"#utility.yul\":15927:15994   */\n      tag_168\n      jump\t// in\n    tag_348:\n        /* \"#utility.yul\":15920:15994   */\n      swap2\n      pop\n        /* \"#utility.yul\":16003:16096   */\n      tag_349\n        /* \"#utility.yul\":16092:16095   */\n      dup3\n        /* \"#utility.yul\":16003:16096   */\n      tag_185\n      jump\t// in\n    tag_349:\n        /* \"#utility.yul\":16121:16123   */\n      0x20\n        /* \"#utility.yul\":16116:16119   */\n      dup3\n        /* \"#utility.yul\":16112:16124   */\n      add\n        /* \"#utility.yul\":16105:16124   */\n      swap1\n      pop\n        /* \"#utility.yul\":15764:16130   */\n      swap2\n      swap1\n      pop\n      jump\t// out\n        /* \"#utility.yul\":16136:16555   */\n    tag_127:\n        /* \"#utility.yul\":16302:16306   */\n      0x00\n        /* \"#utility.yul\":16340:16342   */\n      0x20\n        /* \"#utility.yul\":16329:16338   */\n      dup3\n        /* \"#utility.yul\":16325:16343   */\n      add\n        /* \"#utility.yul\":16317:16343   */\n      swap1\n      pop\n        /* \"#utility.yul\":16389:16398   */\n      dup2\n        /* \"#utility.yul\":16383:16387   */\n      dup2\n        /* \"#utility.yul\":16379:16399   */\n      sub\n        /* \"#utility.yul\":16375:16376   */\n      0x00\n        /* \"#utility.yul\":16364:16373   */\n      dup4\n        /* \"#utility.yul\":16360:16377   */\n      add\n        /* \"#utility.yul\":16353:16400   */\n      mstore\n        /* \"#utility.yul\":16417:16548   */\n      tag_351\n        /* \"#utility.yul\":16543:16547   */\n      dup2\n        /* \"#utility.yul\":16417:16548   */\n      tag_186\n      jump\t// in\n    tag_351:\n        /* \"#utility.yul\":16409:16548   */\n      swap1\n      pop\n        /* \"#utility.yul\":16136:16555   */\n      swap2\n      swap1\n      pop\n      jump\t// out\n        /* \"#utility.yul\":16561:16734   */\n    tag_187:\n        /* \"#utility.yul\":16701:16726   */\n      0x43616e6e6f74207472616e7366657220746f2073656c66000000000000000000\n        /* \"#utility.yul\":16697:16698   */\n      0x00\n        /* \"#utility.yul\":16689:16695   */\n      dup3\n        /* \"#utility.yul\":16685:16699   */\n      add\n        /* \"#utility.yul\":16678:16727   */\n      mstore\n        /* \"#utility.yul\":16561:16734   */\n      pop\n      jump\t// out\n        /* \"#utility.yul\":16740:17106   */\n    tag_188:\n        /* \"#utility.yul\":16882:16885   */\n      0x00\n        /* \"#utility.yul\":16903:16970   */\n      tag_354\n        /* \"#utility.yul\":16967:16969   */\n      0x17\n        /* \"#utility.yul\":16962:16965   */\n      dup4\n        /* \"#utility.yul\":16903:16970   */\n      tag_168\n      jump\t// in\n    tag_354:\n        /* \"#utility.yul\":16896:16970   */\n      swap2\n      pop\n        /* \"#utility.yul\":16979:17072   */\n      tag_355\n        /* \"#utility.yul\":17068:17071   */\n      dup3\n        /* \"#utility.yul\":16979:17072   */\n      tag_187\n      jump\t// in\n    tag_355:\n        /* \"#utility.yul\":17097:17099   */\n      0x20\n        /* \"#utility.yul\":17092:17095   */\n      dup3\n        /* \"#utility.yul\":17088:17100   */\n      add\n        /* \"#utility.yul\":17081:17100   */\n      swap1\n      pop\n        /* \"#utility.yul\":16740:17106   */\n      swap2\n      swap1\n      pop\n      jump\t// out\n        /* \"#utility.yul\":17112:17531   */\n    tag_131:\n        /* \"#utility.yul\":17278:17282   */\n      0x00\n        /* \"#utility.yul\":17316:17318   */\n      0x20\n        /* \"#utility.yul\":17305:17314   */\n      dup3\n        /* \"#utility.yul\":17301:17319   */\n      add\n        /* \"#utility.yul\":17293:17319   */\n      swap1\n      pop\n        /* \"#utility.yul\":17365:17374   */\n      dup2\n        /* \"#utility.yul\":17359:17363   */\n      dup2\n        /* \"#utility.yul\":17355:17375   */\n      sub\n        /* \"#utility.yul\":17351:17352   */\n      0x00\n        /* \"#utility.yul\":17340:17349   */\n      dup4\n        /* \"#utility.yul\":17336:17353   */\n      add\n        /* \"#utility.yul\":17329:17376   */\n      mstore\n        /* \"#utility.yul\":17393:17524   */\n      tag_357\n        /* \"#utility.yul\":17519:17523   */\n      dup2\n        /* \"#utility.yul\":17393:17524   */\n      tag_188\n      jump\t// in\n    tag_357:\n        /* \"#utility.yul\":17385:17524   */\n      swap1\n      pop\n        /* \"#utility.yul\":17112:17531   */\n      swap2\n      swap1\n      pop\n      jump\t// out\n\n    auxdata: 0xa26469706673582212206f1916706231bef2301130c2d7cc2c1b9469cb81b1fc3731003ab4bbe415796564736f6c63430008120033\n}\n",
				"bytecode": {
					"linkReferences": {},
					"object": "60a06040527f474e34a077df58807dbe9c96d3c009b23b3c6d0cce433e59bbf5b34f823bc56c60001b600655620186a0600760006101000a81548163ffffffff021916908363ffffffff1602179055506003600760046101000a81548161ffff021916908361ffff1602179055506003600760066101000a81548163ffffffff021916908363ffffffff1602179055503480156200009c57600080fd5b5060405162001b8238038062001b828339818101604052810190620000c291906200040a565b33806000738103b0a8a00be2ddc778e6e7eaa21791cd3646258073ffffffffffffffffffffffffffffffffffffffff1660808173ffffffffffffffffffffffffffffffffffffffff168152505050600073ffffffffffffffffffffffffffffffffffffffff168273ffffffffffffffffffffffffffffffffffffffff160362000182576040517f08c379a000000000000000000000000000000000000000000000000000000000815260040162000179906200049d565b60405180910390fd5b816000806101000a81548173ffffffffffffffffffffffffffffffffffffffff021916908373ffffffffffffffffffffffffffffffffffffffff160217905550600073ffffffffffffffffffffffffffffffffffffffff168173ffffffffffffffffffffffffffffffffffffffff1614620002095762000208816200029160201b60201c565b5b505050738103b0a8a00be2ddc778e6e7eaa21791cd364625600360006101000a81548173ffffffffffffffffffffffffffffffffffffffff021916908373ffffffffffffffffffffffffffffffffffffffff16021790555080600360146101000a81548167ffffffffffffffff021916908367ffffffffffffffff1602179055505062000531565b3373ffffffffffffffffffffffffffffffffffffffff168173ffffffffffffffffffffffffffffffffffffffff160362000302576040517f08c379a0000000000000000000000000000000000000000000000000000000008152600401620002f9906200050f565b60405180910390fd5b80600160006101000a81548173ffffffffffffffffffffffffffffffffffffffff021916908373ffffffffffffffffffffffffffffffffffffffff1602179055508073ffffffffffffffffffffffffffffffffffffffff1660008054906101000a900473ffffffffffffffffffffffffffffffffffffffff1673ffffffffffffffffffffffffffffffffffffffff167fed8889f560326eb138920d842192f0eb3dd22b4f139c87a2c57538e05bae127860405160405180910390a350565b600080fd5b600067ffffffffffffffff82169050919050565b620003e481620003c5565b8114620003f057600080fd5b50565b6000815190506200040481620003d9565b92915050565b600060208284031215620004235762000422620003c0565b5b60006200043384828501620003f3565b91505092915050565b600082825260208201905092915050565b7f43616e6e6f7420736574206f776e657220746f207a65726f0000000000000000600082015250565b6000620004856018836200043c565b915062000492826200044d565b602082019050919050565b60006020820190508181036000830152620004b88162000476565b9050919050565b7f43616e6e6f74207472616e7366657220746f2073656c66000000000000000000600082015250565b6000620004f76017836200043c565b91506200050482620004bf565b602082019050919050565b600060208201905081810360008301526200052a81620004e8565b9050919050565b60805161162e62000554600039600081816102050152610259015261162e6000f3fe608060405234801561001057600080fd5b506004361061009e5760003560e01c8063a168fa8911610066578063a168fa8914610149578063d8a4676f1461017a578063e0c86289146101ab578063f2fde38b146101c9578063fc2a88c3146101e55761009e565b80631fe543e3146100a35780635787838b146100bf57806379ba5097146100f15780638796ba8c146100fb5780638da5cb5b1461012b575b600080fd5b6100bd60048036038101906100b89190610edc565b610203565b005b6100d960048036038101906100d49190610f38565b6102c3565b6040516100e893929190610f74565b60405180910390f35b6100f961045b565b005b61011560048036038101906101109190610f38565b6105f0565b6040516101229190610fab565b60405180910390f35b610133610614565b6040516101409190611007565b60405180910390f35b610163600480360381019061015e9190610f38565b61063d565b60405161017192919061103d565b60405180910390f35b610194600480360381019061018f9190610f38565b61067b565b6040516101a2929190611124565b60405180910390f35b6101b36107a6565b6040516101c09190610fab565b60405180910390f35b6101e360048036038101906101de9190611180565b6109ff565b005b6101ed610a13565b6040516101fa9190610fab565b60405180910390f35b7f000000000000000000000000000000000000000000000000000000000000000073ffffffffffffffffffffffffffffffffffffffff163373ffffffffffffffffffffffffffffffffffffffff16146102b557337f00000000000000000000000000000000000000000000000000000000000000006040517f1cf993f40000000000000000000000000000000000000000000000000000000081526004016102ac9291906111ad565b60405180910390fd5b6102bf8282610a19565b5050565b60008060006002600085815260200190815260200160002060000160019054906101000a900460ff1661032b576040517f08c379a000000000000000000000000000000000000000000000000000000000815260040161032290611233565b60405180910390fd5b6002600085815260200190815260200160002060000160009054906101000a900460ff1661038e576040517f08c379a00000000000000000000000000000000000000000000000000000000081526004016103859061129f565b60405180910390fd5b600d600260008681526020019081526020016000206001016000815481106103b9576103b86112bf565b5b90600052602060002001546103ce919061131d565b600d600260008781526020019081526020016000206001016000815481106103f9576103f86112bf565b5b906000526020600020015461040e919061131d565b600d60026000888152602001908152602001600020600101600081548110610439576104386112bf565b5b906000526020600020015461044e919061131d565b9250925092509193909250565b600160009054906101000a900473ffffffffffffffffffffffffffffffffffffffff1673ffffffffffffffffffffffffffffffffffffffff163373ffffffffffffffffffffffffffffffffffffffff16146104eb576040517f08c379a00000000000000000000000000000000000000000000000000000000081526004016104e29061139a565b60405180910390fd5b60008060009054906101000a900473ffffffffffffffffffffffffffffffffffffffff169050336000806101000a81548173ffffffffffffffffffffffffffffffffffffffff021916908373ffffffffffffffffffffffffffffffffffffffff1602179055506000600160006101000a81548173ffffffffffffffffffffffffffffffffffffffff021916908373ffffffffffffffffffffffffffffffffffffffff1602179055503373ffffffffffffffffffffffffffffffffffffffff168173ffffffffffffffffffffffffffffffffffffffff167f8be0079c531659141344cd1fd0a4f28419497f9722a3daafe3b4186f6b6457e060405160405180910390a350565b6004818154811061060057600080fd5b906000526020600020016000915090505481565b60008060009054906101000a900473ffffffffffffffffffffffffffffffffffffffff16905090565b60026020528060005260406000206000915090508060000160009054906101000a900460ff16908060000160019054906101000a900460ff16905082565b600060606002600084815260200190815260200160002060000160019054906101000a900460ff166106e2576040517f08c379a00000000000000000000000000000000000000000000000000000000081526004016106d990611233565b60405180910390fd5b6000600260008581526020019081526020016000206040518060600160405290816000820160009054906101000a900460ff161515151581526020016000820160019054906101000a900460ff161515151581526020016001820180548060200260200160405190810160405280929190818152602001828054801561078757602002820191906000526020600020905b815481526020019060010190808311610773575b5050505050815250509050806000015181604001519250925050915091565b60006107b0610b13565b600360009054906101000a900473ffffffffffffffffffffffffffffffffffffffff1673ffffffffffffffffffffffffffffffffffffffff16635d3b1d30600654600360149054906101000a900467ffffffffffffffff16600760049054906101000a900461ffff16600760009054906101000a900463ffffffff16600760069054906101000a900463ffffffff166040518663ffffffff1660e01b815260040161085f959493929190611432565b6020604051808303816000875af115801561087e573d6000803e3d6000fd5b505050506040513d601f19601f820116820180604052508101906108a2919061149a565b90506040518060600160405280600015158152602001600115158152602001600067ffffffffffffffff8111156108dc576108db610d99565b5b60405190808252806020026020018201604052801561090a5781602001602082028036833780820191505090505b508152506002600083815260200190815260200160002060008201518160000160006101000a81548160ff02191690831515021790555060208201518160000160016101000a81548160ff021916908315150217905550604082015181600101908051906020019061097d929190610ccf565b509050506004819080600181540180825580915050600190039060005260206000200160009091909190915055806005819055507fcc58b13ad3eab50626c6a6300b1d139cd6ebb1688a7cced9461c2f7e762665ee81600760069054906101000a900463ffffffff166040516109f49291906114c7565b60405180910390a190565b610a07610b13565b610a1081610ba3565b50565b60055481565b6002600083815260200190815260200160002060000160019054906101000a900460ff16610a7c576040517f08c379a0000000000000000000000000000000000000000000000000000000008152600401610a7390611233565b60405180910390fd5b60016002600084815260200190815260200160002060000160006101000a81548160ff02191690831515021790555080600260008481526020019081526020016000206001019080519060200190610ad5929190610ccf565b507ffe2e2d779dba245964d4e3ef9b994be63856fd568bf7d3ca9e224755cb1bd54d8282604051610b079291906114f0565b60405180910390a15050565b60008054906101000a900473ffffffffffffffffffffffffffffffffffffffff1673ffffffffffffffffffffffffffffffffffffffff163373ffffffffffffffffffffffffffffffffffffffff1614610ba1576040517f08c379a0000000000000000000000000000000000000000000000000000000008152600401610b989061156c565b60405180910390fd5b565b3373ffffffffffffffffffffffffffffffffffffffff168173ffffffffffffffffffffffffffffffffffffffff1603610c11576040517f08c379a0000000000000000000000000000000000000000000000000000000008152600401610c08906115d8565b60405180910390fd5b80600160006101000a81548173ffffffffffffffffffffffffffffffffffffffff021916908373ffffffffffffffffffffffffffffffffffffffff1602179055508073ffffffffffffffffffffffffffffffffffffffff1660008054906101000a900473ffffffffffffffffffffffffffffffffffffffff1673ffffffffffffffffffffffffffffffffffffffff167fed8889f560326eb138920d842192f0eb3dd22b4f139c87a2c57538e05bae127860405160405180910390a350565b828054828255906000526020600020908101928215610d0b579160200282015b82811115610d0a578251825591602001919060010190610cef565b5b509050610d189190610d1c565b5090565b5b80821115610d35576000816000905550600101610d1d565b5090565b6000604051905090565b600080fd5b600080fd5b6000819050919050565b610d6081610d4d565b8114610d6b57600080fd5b50565b600081359050610d7d81610d57565b92915050565b600080fd5b6000601f19601f8301169050919050565b7f4e487b7100000000000000000000000000000000000000000000000000000000600052604160045260246000fd5b610dd182610d88565b810181811067ffffffffffffffff82111715610df057610def610d99565b5b80604052505050565b6000610e03610d39565b9050610e0f8282610dc8565b919050565b600067ffffffffffffffff821115610e2f57610e2e610d99565b5b602082029050602081019050919050565b600080fd5b6000610e58610e5384610e14565b610df9565b90508083825260208201905060208402830185811115610e7b57610e7a610e40565b5b835b81811015610ea45780610e908882610d6e565b845260208401935050602081019050610e7d565b5050509392505050565b600082601f830112610ec357610ec2610d83565b5b8135610ed3848260208601610e45565b91505092915050565b60008060408385031215610ef357610ef2610d43565b5b6000610f0185828601610d6e565b925050602083013567ffffffffffffffff811115610f2257610f21610d48565b5b610f2e85828601610eae565b9150509250929050565b600060208284031215610f4e57610f4d610d43565b5b6000610f5c84828501610d6e565b91505092915050565b610f6e81610d4d565b82525050565b6000606082019050610f896000830186610f65565b610f966020830185610f65565b610fa36040830184610f65565b949350505050565b6000602082019050610fc06000830184610f65565b92915050565b600073ffffffffffffffffffffffffffffffffffffffff82169050919050565b6000610ff182610fc6565b9050919050565b61100181610fe6565b82525050565b600060208201905061101c6000830184610ff8565b92915050565b60008115159050919050565b61103781611022565b82525050565b6000604082019050611052600083018561102e565b61105f602083018461102e565b9392505050565b600081519050919050565b600082825260208201905092915050565b6000819050602082019050919050565b61109b81610d4d565b82525050565b60006110ad8383611092565b60208301905092915050565b6000602082019050919050565b60006110d182611066565b6110db8185611071565b93506110e683611082565b8060005b838110156111175781516110fe88826110a1565b9750611109836110b9565b9250506001810190506110ea565b5085935050505092915050565b6000604082019050611139600083018561102e565b818103602083015261114b81846110c6565b90509392505050565b61115d81610fe6565b811461116857600080fd5b50565b60008135905061117a81611154565b92915050565b60006020828403121561119657611195610d43565b5b60006111a48482850161116b565b91505092915050565b60006040820190506111c26000830185610ff8565b6111cf6020830184610ff8565b9392505050565b600082825260208201905092915050565b7f72657175657374206e6f7420666f756e64000000000000000000000000000000600082015250565b600061121d6011836111d6565b9150611228826111e7565b602082019050919050565b6000602082019050818103600083015261124c81611210565b9050919050565b7f4e6f74207965742066756c66696c6c6564000000000000000000000000000000600082015250565b60006112896011836111d6565b915061129482611253565b602082019050919050565b600060208201905081810360008301526112b88161127c565b9050919050565b7f4e487b7100000000000000000000000000000000000000000000000000000000600052603260045260246000fd5b7f4e487b7100000000000000000000000000000000000000000000000000000000600052601260045260246000fd5b600061132882610d4d565b915061133383610d4d565b925082611343576113426112ee565b5b828206905092915050565b7f4d7573742062652070726f706f736564206f776e657200000000000000000000600082015250565b60006113846016836111d6565b915061138f8261134e565b602082019050919050565b600060208201905081810360008301526113b381611377565b9050919050565b6000819050919050565b6113cd816113ba565b82525050565b600067ffffffffffffffff82169050919050565b6113f0816113d3565b82525050565b600061ffff82169050919050565b61140d816113f6565b82525050565b600063ffffffff82169050919050565b61142c81611413565b82525050565b600060a08201905061144760008301886113c4565b61145460208301876113e7565b6114616040830186611404565b61146e6060830185611423565b61147b6080830184611423565b9695505050505050565b60008151905061149481610d57565b92915050565b6000602082840312156114b0576114af610d43565b5b60006114be84828501611485565b91505092915050565b60006040820190506114dc6000830185610f65565b6114e96020830184611423565b9392505050565b60006040820190506115056000830185610f65565b818103602083015261151781846110c6565b90509392505050565b7f4f6e6c792063616c6c61626c65206279206f776e657200000000000000000000600082015250565b60006115566016836111d6565b915061156182611520565b602082019050919050565b6000602082019050818103600083015261158581611549565b9050919050565b7f43616e6e6f74207472616e7366657220746f2073656c66000000000000000000600082015250565b60006115c26017836111d6565b91506115cd8261158c565b602082019050919050565b600060208201905081810360008301526115f1816115b5565b905091905056fea26469706673582212206f1916706231bef2301130c2d7cc2c1b9469cb81b1fc3731003ab4bbe415796564736f6c63430008120033",
					"opcodes": "PUSH1 0xA0 PUSH1 0x40 MSTORE PUSH32 0x474E34A077DF58807DBE9C96D3C009B23B3C6D0CCE433E59BBF5B34F823BC56C PUSH1 0x0 SHL PUSH1 0x6 SSTORE PUSH3 0x186A0 PUSH1 0x7 PUSH1 0x0 PUSH2 0x100 EXP DUP2 SLOAD DUP2 PUSH4 0xFFFFFFFF MUL NOT AND SWAP1 DUP4 PUSH4 0xFFFFFFFF AND MUL OR SWAP1 SSTORE POP PUSH1 0x3 PUSH1 0x7 PUSH1 0x4 PUSH2 0x100 EXP DUP2 SLOAD DUP2 PUSH2 0xFFFF MUL NOT AND SWAP1 DUP4 PUSH2 0xFFFF AND MUL OR SWAP1 SSTORE POP PUSH1 0x3 PUSH1 0x7 PUSH1 0x6 PUSH2 0x100 EXP DUP2 SLOAD DUP2 PUSH4 0xFFFFFFFF MUL NOT AND SWAP1 DUP4 PUSH4 0xFFFFFFFF AND MUL OR SWAP1 SSTORE POP CALLVALUE DUP1 ISZERO PUSH3 0x9C JUMPI PUSH1 0x0 DUP1 REVERT JUMPDEST POP PUSH1 0x40 MLOAD PUSH3 0x1B82 CODESIZE SUB DUP1 PUSH3 0x1B82 DUP4 CODECOPY DUP2 DUP2 ADD PUSH1 0x40 MSTORE DUP2 ADD SWAP1 PUSH3 0xC2 SWAP2 SWAP1 PUSH3 0x40A JUMP JUMPDEST CALLER DUP1 PUSH1 0x0 PUSH20 0x8103B0A8A00BE2DDC778E6E7EAA21791CD364625 DUP1 PUSH20 0xFFFFFFFFFFFFFFFFFFFFFFFFFFFFFFFFFFFFFFFF AND PUSH1 0x80 DUP2 PUSH20 0xFFFFFFFFFFFFFFFFFFFFFFFFFFFFFFFFFFFFFFFF AND DUP2 MSTORE POP POP POP PUSH1 0x0 PUSH20 0xFFFFFFFFFFFFFFFFFFFFFFFFFFFFFFFFFFFFFFFF AND DUP3 PUSH20 0xFFFFFFFFFFFFFFFFFFFFFFFFFFFFFFFFFFFFFFFF AND SUB PUSH3 0x182 JUMPI PUSH1 0x40 MLOAD PUSH32 0x8C379A000000000000000000000000000000000000000000000000000000000 DUP2 MSTORE PUSH1 0x4 ADD PUSH3 0x179 SWAP1 PUSH3 0x49D JUMP JUMPDEST PUSH1 0x40 MLOAD DUP1 SWAP2 SUB SWAP1 REVERT JUMPDEST DUP2 PUSH1 0x0 DUP1 PUSH2 0x100 EXP DUP2 SLOAD DUP2 PUSH20 0xFFFFFFFFFFFFFFFFFFFFFFFFFFFFFFFFFFFFFFFF MUL NOT AND SWAP1 DUP4 PUSH20 0xFFFFFFFFFFFFFFFFFFFFFFFFFFFFFFFFFFFFFFFF AND MUL OR SWAP1 SSTORE POP PUSH1 0x0 PUSH20 0xFFFFFFFFFFFFFFFFFFFFFFFFFFFFFFFFFFFFFFFF AND DUP2 PUSH20 0xFFFFFFFFFFFFFFFFFFFFFFFFFFFFFFFFFFFFFFFF AND EQ PUSH3 0x209 JUMPI PUSH3 0x208 DUP2 PUSH3 0x291 PUSH1 0x20 SHL PUSH1 0x20 SHR JUMP JUMPDEST JUMPDEST POP POP POP PUSH20 0x8103B0A8A00BE2DDC778E6E7EAA21791CD364625 PUSH1 0x3 PUSH1 0x0 PUSH2 0x100 EXP DUP2 SLOAD DUP2 PUSH20 0xFFFFFFFFFFFFFFFFFFFFFFFFFFFFFFFFFFFFFFFF MUL NOT AND SWAP1 DUP4 PUSH20 0xFFFFFFFFFFFFFFFFFFFFFFFFFFFFFFFFFFFFFFFF AND MUL OR SWAP1 SSTORE POP DUP1 PUSH1 0x3 PUSH1 0x14 PUSH2 0x100 EXP DUP2 SLOAD DUP2 PUSH8 0xFFFFFFFFFFFFFFFF MUL NOT AND SWAP1 DUP4 PUSH8 0xFFFFFFFFFFFFFFFF AND MUL OR SWAP1 SSTORE POP POP PUSH3 0x531 JUMP JUMPDEST CALLER PUSH20 0xFFFFFFFFFFFFFFFFFFFFFFFFFFFFFFFFFFFFFFFF AND DUP2 PUSH20 0xFFFFFFFFFFFFFFFFFFFFFFFFFFFFFFFFFFFFFFFF AND SUB PUSH3 0x302 JUMPI PUSH1 0x40 MLOAD PUSH32 0x8C379A000000000000000000000000000000000000000000000000000000000 DUP2 MSTORE PUSH1 0x4 ADD PUSH3 0x2F9 SWAP1 PUSH3 0x50F JUMP JUMPDEST PUSH1 0x40 MLOAD DUP1 SWAP2 SUB SWAP1 REVERT JUMPDEST DUP1 PUSH1 0x1 PUSH1 0x0 PUSH2 0x100 EXP DUP2 SLOAD DUP2 PUSH20 0xFFFFFFFFFFFFFFFFFFFFFFFFFFFFFFFFFFFFFFFF MUL NOT AND SWAP1 DUP4 PUSH20 0xFFFFFFFFFFFFFFFFFFFFFFFFFFFFFFFFFFFFFFFF AND MUL OR SWAP1 SSTORE POP DUP1 PUSH20 0xFFFFFFFFFFFFFFFFFFFFFFFFFFFFFFFFFFFFFFFF AND PUSH1 0x0 DUP1 SLOAD SWAP1 PUSH2 0x100 EXP SWAP1 DIV PUSH20 0xFFFFFFFFFFFFFFFFFFFFFFFFFFFFFFFFFFFFFFFF AND PUSH20 0xFFFFFFFFFFFFFFFFFFFFFFFFFFFFFFFFFFFFFFFF AND PUSH32 0xED8889F560326EB138920D842192F0EB3DD22B4F139C87A2C57538E05BAE1278 PUSH1 0x40 MLOAD PUSH1 0x40 MLOAD DUP1 SWAP2 SUB SWAP1 LOG3 POP JUMP JUMPDEST PUSH1 0x0 DUP1 REVERT JUMPDEST PUSH1 0x0 PUSH8 0xFFFFFFFFFFFFFFFF DUP3 AND SWAP1 POP SWAP2 SWAP1 POP JUMP JUMPDEST PUSH3 0x3E4 DUP2 PUSH3 0x3C5 JUMP JUMPDEST DUP2 EQ PUSH3 0x3F0 JUMPI PUSH1 0x0 DUP1 REVERT JUMPDEST POP JUMP JUMPDEST PUSH1 0x0 DUP2 MLOAD SWAP1 POP PUSH3 0x404 DUP2 PUSH3 0x3D9 JUMP JUMPDEST SWAP3 SWAP2 POP POP JUMP JUMPDEST PUSH1 0x0 PUSH1 0x20 DUP3 DUP5 SUB SLT ISZERO PUSH3 0x423 JUMPI PUSH3 0x422 PUSH3 0x3C0 JUMP JUMPDEST JUMPDEST PUSH1 0x0 PUSH3 0x433 DUP5 DUP3 DUP6 ADD PUSH3 0x3F3 JUMP JUMPDEST SWAP2 POP POP SWAP3 SWAP2 POP POP JUMP JUMPDEST PUSH1 0x0 DUP3 DUP3 MSTORE PUSH1 0x20 DUP3 ADD SWAP1 POP SWAP3 SWAP2 POP POP JUMP JUMPDEST PUSH32 0x43616E6E6F7420736574206F776E657220746F207A65726F0000000000000000 PUSH1 0x0 DUP3 ADD MSTORE POP JUMP JUMPDEST PUSH1 0x0 PUSH3 0x485 PUSH1 0x18 DUP4 PUSH3 0x43C JUMP JUMPDEST SWAP2 POP PUSH3 0x492 DUP3 PUSH3 0x44D JUMP JUMPDEST PUSH1 0x20 DUP3 ADD SWAP1 POP SWAP2 SWAP1 POP JUMP JUMPDEST PUSH1 0x0 PUSH1 0x20 DUP3 ADD SWAP1 POP DUP2 DUP2 SUB PUSH1 0x0 DUP4 ADD MSTORE PUSH3 0x4B8 DUP2 PUSH3 0x476 JUMP JUMPDEST SWAP1 POP SWAP2 SWAP1 POP JUMP JUMPDEST PUSH32 0x43616E6E6F74207472616E7366657220746F2073656C66000000000000000000 PUSH1 0x0 DUP3 ADD MSTORE POP JUMP JUMPDEST PUSH1 0x0 PUSH3 0x4F7 PUSH1 0x17 DUP4 PUSH3 0x43C JUMP JUMPDEST SWAP2 POP PUSH3 0x504 DUP3 PUSH3 0x4BF JUMP JUMPDEST PUSH1 0x20 DUP3 ADD SWAP1 POP SWAP2 SWAP1 POP JUMP JUMPDEST PUSH1 0x0 PUSH1 0x20 DUP3 ADD SWAP1 POP DUP2 DUP2 SUB PUSH1 0x0 DUP4 ADD MSTORE PUSH3 0x52A DUP2 PUSH3 0x4E8 JUMP JUMPDEST SWAP1 POP SWAP2 SWAP1 POP JUMP JUMPDEST PUSH1 0x80 MLOAD PUSH2 0x162E PUSH3 0x554 PUSH1 0x0 CODECOPY PUSH1 0x0 DUP2 DUP2 PUSH2 0x205 ADD MSTORE PUSH2 0x259 ADD MSTORE PUSH2 0x162E PUSH1 0x0 RETURN INVALID PUSH1 0x80 PUSH1 0x40 MSTORE CALLVALUE DUP1 ISZERO PUSH2 0x10 JUMPI PUSH1 0x0 DUP1 REVERT JUMPDEST POP PUSH1 0x4 CALLDATASIZE LT PUSH2 0x9E JUMPI PUSH1 0x0 CALLDATALOAD PUSH1 0xE0 SHR DUP1 PUSH4 0xA168FA89 GT PUSH2 0x66 JUMPI DUP1 PUSH4 0xA168FA89 EQ PUSH2 0x149 JUMPI DUP1 PUSH4 0xD8A4676F EQ PUSH2 0x17A JUMPI DUP1 PUSH4 0xE0C86289 EQ PUSH2 0x1AB JUMPI DUP1 PUSH4 0xF2FDE38B EQ PUSH2 0x1C9 JUMPI DUP1 PUSH4 0xFC2A88C3 EQ PUSH2 0x1E5 JUMPI PUSH2 0x9E JUMP JUMPDEST DUP1 PUSH4 0x1FE543E3 EQ PUSH2 0xA3 JUMPI DUP1 PUSH4 0x5787838B EQ PUSH2 0xBF JUMPI DUP1 PUSH4 0x79BA5097 EQ PUSH2 0xF1 JUMPI DUP1 PUSH4 0x8796BA8C EQ PUSH2 0xFB JUMPI DUP1 PUSH4 0x8DA5CB5B EQ PUSH2 0x12B JUMPI JUMPDEST PUSH1 0x0 DUP1 REVERT JUMPDEST PUSH2 0xBD PUSH1 0x4 DUP1 CALLDATASIZE SUB DUP2 ADD SWAP1 PUSH2 0xB8 SWAP2 SWAP1 PUSH2 0xEDC JUMP JUMPDEST PUSH2 0x203 JUMP JUMPDEST STOP JUMPDEST PUSH2 0xD9 PUSH1 0x4 DUP1 CALLDATASIZE SUB DUP2 ADD SWAP1 PUSH2 0xD4 SWAP2 SWAP1 PUSH2 0xF38 JUMP JUMPDEST PUSH2 0x2C3 JUMP JUMPDEST PUSH1 0x40 MLOAD PUSH2 0xE8 SWAP4 SWAP3 SWAP2 SWAP1 PUSH2 0xF74 JUMP JUMPDEST PUSH1 0x40 MLOAD DUP1 SWAP2 SUB SWAP1 RETURN JUMPDEST PUSH2 0xF9 PUSH2 0x45B JUMP JUMPDEST STOP JUMPDEST PUSH2 0x115 PUSH1 0x4 DUP1 CALLDATASIZE SUB DUP2 ADD SWAP1 PUSH2 0x110 SWAP2 SWAP1 PUSH2 0xF38 JUMP JUMPDEST PUSH2 0x5F0 JUMP JUMPDEST PUSH1 0x40 MLOAD PUSH2 0x122 SWAP2 SWAP1 PUSH2 0xFAB JUMP JUMPDEST PUSH1 0x40 MLOAD DUP1 SWAP2 SUB SWAP1 RETURN JUMPDEST PUSH2 0x133 PUSH2 0x614 JUMP JUMPDEST PUSH1 0x40 MLOAD PUSH2 0x140 SWAP2 SWAP1 PUSH2 0x1007 JUMP JUMPDEST PUSH1 0x40 MLOAD DUP1 SWAP2 SUB SWAP1 RETURN JUMPDEST PUSH2 0x163 PUSH1 0x4 DUP1 CALLDATASIZE SUB DUP2 ADD SWAP1 PUSH2 0x15E SWAP2 SWAP1 PUSH2 0xF38 JUMP JUMPDEST PUSH2 0x63D JUMP JUMPDEST PUSH1 0x40 MLOAD PUSH2 0x171 SWAP3 SWAP2 SWAP1 PUSH2 0x103D JUMP JUMPDEST PUSH1 0x40 MLOAD DUP1 SWAP2 SUB SWAP1 RETURN JUMPDEST PUSH2 0x194 PUSH1 0x4 DUP1 CALLDATASIZE SUB DUP2 ADD SWAP1 PUSH2 0x18F SWAP2 SWAP1 PUSH2 0xF38 JUMP JUMPDEST PUSH2 0x67B JUMP JUMPDEST PUSH1 0x40 MLOAD PUSH2 0x1A2 SWAP3 SWAP2 SWAP1 PUSH2 0x1124 JUMP JUMPDEST PUSH1 0x40 MLOAD DUP1 SWAP2 SUB SWAP1 RETURN JUMPDEST PUSH2 0x1B3 PUSH2 0x7A6 JUMP JUMPDEST PUSH1 0x40 MLOAD PUSH2 0x1C0 SWAP2 SWAP1 PUSH2 0xFAB JUMP JUMPDEST PUSH1 0x40 MLOAD DUP1 SWAP2 SUB SWAP1 RETURN JUMPDEST PUSH2 0x1E3 PUSH1 0x4 DUP1 CALLDATASIZE SUB DUP2 ADD SWAP1 PUSH2 0x1DE SWAP2 SWAP1 PUSH2 0x1180 JUMP JUMPDEST PUSH2 0x9FF JUMP JUMPDEST STOP JUMPDEST PUSH2 0x1ED PUSH2 0xA13 JUMP JUMPDEST PUSH1 0x40 MLOAD PUSH2 0x1FA SWAP2 SWAP1 PUSH2 0xFAB JUMP JUMPDEST PUSH1 0x40 MLOAD DUP1 SWAP2 SUB SWAP1 RETURN JUMPDEST PUSH32 0x0 PUSH20 0xFFFFFFFFFFFFFFFFFFFFFFFFFFFFFFFFFFFFFFFF AND CALLER PUSH20 0xFFFFFFFFFFFFFFFFFFFFFFFFFFFFFFFFFFFFFFFF AND EQ PUSH2 0x2B5 JUMPI CALLER PUSH32 0x0 PUSH1 0x40 MLOAD PUSH32 0x1CF993F400000000000000000000000000000000000000000000000000000000 DUP2 MSTORE PUSH1 0x4 ADD PUSH2 0x2AC SWAP3 SWAP2 SWAP1 PUSH2 0x11AD JUMP JUMPDEST PUSH1 0x40 MLOAD DUP1 SWAP2 SUB SWAP1 REVERT JUMPDEST PUSH2 0x2BF DUP3 DUP3 PUSH2 0xA19 JUMP JUMPDEST POP POP JUMP JUMPDEST PUSH1 0x0 DUP1 PUSH1 0x0 PUSH1 0x2 PUSH1 0x0 DUP6 DUP2 MSTORE PUSH1 0x20 ADD SWAP1 DUP2 MSTORE PUSH1 0x20 ADD PUSH1 0x0 KECCAK256 PUSH1 0x0 ADD PUSH1 0x1 SWAP1 SLOAD SWAP1 PUSH2 0x100 EXP SWAP1 DIV PUSH1 0xFF AND PUSH2 0x32B JUMPI PUSH1 0x40 MLOAD PUSH32 0x8C379A000000000000000000000000000000000000000000000000000000000 DUP2 MSTORE PUSH1 0x4 ADD PUSH2 0x322 SWAP1 PUSH2 0x1233 JUMP JUMPDEST PUSH1 0x40 MLOAD DUP1 SWAP2 SUB SWAP1 REVERT JUMPDEST PUSH1 0x2 PUSH1 0x0 DUP6 DUP2 MSTORE PUSH1 0x20 ADD SWAP1 DUP2 MSTORE PUSH1 0x20 ADD PUSH1 0x0 KECCAK256 PUSH1 0x0 ADD PUSH1 0x0 SWAP1 SLOAD SWAP1 PUSH2 0x100 EXP SWAP1 DIV PUSH1 0xFF AND PUSH2 0x38E JUMPI PUSH1 0x40 MLOAD PUSH32 0x8C379A000000000000000000000000000000000000000000000000000000000 DUP2 MSTORE PUSH1 0x4 ADD PUSH2 0x385 SWAP1 PUSH2 0x129F JUMP JUMPDEST PUSH1 0x40 MLOAD DUP1 SWAP2 SUB SWAP1 REVERT JUMPDEST PUSH1 0xD PUSH1 0x2 PUSH1 0x0 DUP7 DUP2 MSTORE PUSH1 0x20 ADD SWAP1 DUP2 MSTORE PUSH1 0x20 ADD PUSH1 0x0 KECCAK256 PUSH1 0x1 ADD PUSH1 0x0 DUP2 SLOAD DUP2 LT PUSH2 0x3B9 JUMPI PUSH2 0x3B8 PUSH2 0x12BF JUMP JUMPDEST JUMPDEST SWAP1 PUSH1 0x0 MSTORE PUSH1 0x20 PUSH1 0x0 KECCAK256 ADD SLOAD PUSH2 0x3CE SWAP2 SWAP1 PUSH2 0x131D JUMP JUMPDEST PUSH1 0xD PUSH1 0x2 PUSH1 0x0 DUP8 DUP2 MSTORE PUSH1 0x20 ADD SWAP1 DUP2 MSTORE PUSH1 0x20 ADD PUSH1 0x0 KECCAK256 PUSH1 0x1 ADD PUSH1 0x0 DUP2 SLOAD DUP2 LT PUSH2 0x3F9 JUMPI PUSH2 0x3F8 PUSH2 0x12BF JUMP JUMPDEST JUMPDEST SWAP1 PUSH1 0x0 MSTORE PUSH1 0x20 PUSH1 0x0 KECCAK256 ADD SLOAD PUSH2 0x40E SWAP2 SWAP1 PUSH2 0x131D JUMP JUMPDEST PUSH1 0xD PUSH1 0x2 PUSH1 0x0 DUP9 DUP2 MSTORE PUSH1 0x20 ADD SWAP1 DUP2 MSTORE PUSH1 0x20 ADD PUSH1 0x0 KECCAK256 PUSH1 0x1 ADD PUSH1 0x0 DUP2 SLOAD DUP2 LT PUSH2 0x439 JUMPI PUSH2 0x438 PUSH2 0x12BF JUMP JUMPDEST JUMPDEST SWAP1 PUSH1 0x0 MSTORE PUSH1 0x20 PUSH1 0x0 KECCAK256 ADD SLOAD PUSH2 0x44E SWAP2 SWAP1 PUSH2 0x131D JUMP JUMPDEST SWAP3 POP SWAP3 POP SWAP3 POP SWAP2 SWAP4 SWAP1 SWAP3 POP JUMP JUMPDEST PUSH1 0x1 PUSH1 0x0 SWAP1 SLOAD SWAP1 PUSH2 0x100 EXP SWAP1 DIV PUSH20 0xFFFFFFFFFFFFFFFFFFFFFFFFFFFFFFFFFFFFFFFF AND PUSH20 0xFFFFFFFFFFFFFFFFFFFFFFFFFFFFFFFFFFFFFFFF AND CALLER PUSH20 0xFFFFFFFFFFFFFFFFFFFFFFFFFFFFFFFFFFFFFFFF AND EQ PUSH2 0x4EB JUMPI PUSH1 0x40 MLOAD PUSH32 0x8C379A000000000000000000000000000000000000000000000000000000000 DUP2 MSTORE PUSH1 0x4 ADD PUSH2 0x4E2 SWAP1 PUSH2 0x139A JUMP JUMPDEST PUSH1 0x40 MLOAD DUP1 SWAP2 SUB SWAP1 REVERT JUMPDEST PUSH1 0x0 DUP1 PUSH1 0x0 SWAP1 SLOAD SWAP1 PUSH2 0x100 EXP SWAP1 DIV PUSH20 0xFFFFFFFFFFFFFFFFFFFFFFFFFFFFFFFFFFFFFFFF AND SWAP1 POP CALLER PUSH1 0x0 DUP1 PUSH2 0x100 EXP DUP2 SLOAD DUP2 PUSH20 0xFFFFFFFFFFFFFFFFFFFFFFFFFFFFFFFFFFFFFFFF MUL NOT AND SWAP1 DUP4 PUSH20 0xFFFFFFFFFFFFFFFFFFFFFFFFFFFFFFFFFFFFFFFF AND MUL OR SWAP1 SSTORE POP PUSH1 0x0 PUSH1 0x1 PUSH1 0x0 PUSH2 0x100 EXP DUP2 SLOAD DUP2 PUSH20 0xFFFFFFFFFFFFFFFFFFFFFFFFFFFFFFFFFFFFFFFF MUL NOT AND SWAP1 DUP4 PUSH20 0xFFFFFFFFFFFFFFFFFFFFFFFFFFFFFFFFFFFFFFFF AND MUL OR SWAP1 SSTORE POP CALLER PUSH20 0xFFFFFFFFFFFFFFFFFFFFFFFFFFFFFFFFFFFFFFFF AND DUP2 PUSH20 0xFFFFFFFFFFFFFFFFFFFFFFFFFFFFFFFFFFFFFFFF AND PUSH32 0x8BE0079C531659141344CD1FD0A4F28419497F9722A3DAAFE3B4186F6B6457E0 PUSH1 0x40 MLOAD PUSH1 0x40 MLOAD DUP1 SWAP2 SUB SWAP1 LOG3 POP JUMP JUMPDEST PUSH1 0x4 DUP2 DUP2 SLOAD DUP2 LT PUSH2 0x600 JUMPI PUSH1 0x0 DUP1 REVERT JUMPDEST SWAP1 PUSH1 0x0 MSTORE PUSH1 0x20 PUSH1 0x0 KECCAK256 ADD PUSH1 0x0 SWAP2 POP SWAP1 POP SLOAD DUP2 JUMP JUMPDEST PUSH1 0x0 DUP1 PUSH1 0x0 SWAP1 SLOAD SWAP1 PUSH2 0x100 EXP SWAP1 DIV PUSH20 0xFFFFFFFFFFFFFFFFFFFFFFFFFFFFFFFFFFFFFFFF AND SWAP1 POP SWAP1 JUMP JUMPDEST PUSH1 0x2 PUSH1 0x20 MSTORE DUP1 PUSH1 0x0 MSTORE PUSH1 0x40 PUSH1 0x0 KECCAK256 PUSH1 0x0 SWAP2 POP SWAP1 POP DUP1 PUSH1 0x0 ADD PUSH1 0x0 SWAP1 SLOAD SWAP1 PUSH2 0x100 EXP SWAP1 DIV PUSH1 0xFF AND SWAP1 DUP1 PUSH1 0x0 ADD PUSH1 0x1 SWAP1 SLOAD SWAP1 PUSH2 0x100 EXP SWAP1 DIV PUSH1 0xFF AND SWAP1 POP DUP3 JUMP JUMPDEST PUSH1 0x0 PUSH1 0x60 PUSH1 0x2 PUSH1 0x0 DUP5 DUP2 MSTORE PUSH1 0x20 ADD SWAP1 DUP2 MSTORE PUSH1 0x20 ADD PUSH1 0x0 KECCAK256 PUSH1 0x0 ADD PUSH1 0x1 SWAP1 SLOAD SWAP1 PUSH2 0x100 EXP SWAP1 DIV PUSH1 0xFF AND PUSH2 0x6E2 JUMPI PUSH1 0x40 MLOAD PUSH32 0x8C379A000000000000000000000000000000000000000000000000000000000 DUP2 MSTORE PUSH1 0x4 ADD PUSH2 0x6D9 SWAP1 PUSH2 0x1233 JUMP JUMPDEST PUSH1 0x40 MLOAD DUP1 SWAP2 SUB SWAP1 REVERT JUMPDEST PUSH1 0x0 PUSH1 0x2 PUSH1 0x0 DUP6 DUP2 MSTORE PUSH1 0x20 ADD SWAP1 DUP2 MSTORE PUSH1 0x20 ADD PUSH1 0x0 KECCAK256 PUSH1 0x40 MLOAD DUP1 PUSH1 0x60 ADD PUSH1 0x40 MSTORE SWAP1 DUP2 PUSH1 0x0 DUP3 ADD PUSH1 0x0 SWAP1 SLOAD SWAP1 PUSH2 0x100 EXP SWAP1 DIV PUSH1 0xFF AND ISZERO ISZERO ISZERO ISZERO DUP2 MSTORE PUSH1 0x20 ADD PUSH1 0x0 DUP3 ADD PUSH1 0x1 SWAP1 SLOAD SWAP1 PUSH2 0x100 EXP SWAP1 DIV PUSH1 0xFF AND ISZERO ISZERO ISZERO ISZERO DUP2 MSTORE PUSH1 0x20 ADD PUSH1 0x1 DUP3 ADD DUP1 SLOAD DUP1 PUSH1 0x20 MUL PUSH1 0x20 ADD PUSH1 0x40 MLOAD SWAP1 DUP2 ADD PUSH1 0x40 MSTORE DUP1 SWAP3 SWAP2 SWAP1 DUP2 DUP2 MSTORE PUSH1 0x20 ADD DUP3 DUP1 SLOAD DUP1 ISZERO PUSH2 0x787 JUMPI PUSH1 0x20 MUL DUP3 ADD SWAP2 SWAP1 PUSH1 0x0 MSTORE PUSH1 0x20 PUSH1 0x0 KECCAK256 SWAP1 JUMPDEST DUP2 SLOAD DUP2 MSTORE PUSH1 0x20 ADD SWAP1 PUSH1 0x1 ADD SWAP1 DUP1 DUP4 GT PUSH2 0x773 JUMPI JUMPDEST POP POP POP POP POP DUP2 MSTORE POP POP SWAP1 POP DUP1 PUSH1 0x0 ADD MLOAD DUP2 PUSH1 0x40 ADD MLOAD SWAP3 POP SWAP3 POP POP SWAP2 POP SWAP2 JUMP JUMPDEST PUSH1 0x0 PUSH2 0x7B0 PUSH2 0xB13 JUMP JUMPDEST PUSH1 0x3 PUSH1 0x0 SWAP1 SLOAD SWAP1 PUSH2 0x100 EXP SWAP1 DIV PUSH20 0xFFFFFFFFFFFFFFFFFFFFFFFFFFFFFFFFFFFFFFFF AND PUSH20 0xFFFFFFFFFFFFFFFFFFFFFFFFFFFFFFFFFFFFFFFF AND PUSH4 0x5D3B1D30 PUSH1 0x6 SLOAD PUSH1 0x3 PUSH1 0x14 SWAP1 SLOAD SWAP1 PUSH2 0x100 EXP SWAP1 DIV PUSH8 0xFFFFFFFFFFFFFFFF AND PUSH1 0x7 PUSH1 0x4 SWAP1 SLOAD SWAP1 PUSH2 0x100 EXP SWAP1 DIV PUSH2 0xFFFF AND PUSH1 0x7 PUSH1 0x0 SWAP1 SLOAD SWAP1 PUSH2 0x100 EXP SWAP1 DIV PUSH4 0xFFFFFFFF AND PUSH1 0x7 PUSH1 0x6 SWAP1 SLOAD SWAP1 PUSH2 0x100 EXP SWAP1 DIV PUSH4 0xFFFFFFFF AND PUSH1 0x40 MLOAD DUP7 PUSH4 0xFFFFFFFF AND PUSH1 0xE0 SHL DUP2 MSTORE PUSH1 0x4 ADD PUSH2 0x85F SWAP6 SWAP5 SWAP4 SWAP3 SWAP2 SWAP1 PUSH2 0x1432 JUMP JUMPDEST PUSH1 0x20 PUSH1 0x40 MLOAD DUP1 DUP4 SUB DUP2 PUSH1 0x0 DUP8 GAS CALL ISZERO DUP1 ISZERO PUSH2 0x87E JUMPI RETURNDATASIZE PUSH1 0x0 DUP1 RETURNDATACOPY RETURNDATASIZE PUSH1 0x0 REVERT JUMPDEST POP POP POP POP PUSH1 0x40 MLOAD RETURNDATASIZE PUSH1 0x1F NOT PUSH1 0x1F DUP3 ADD AND DUP3 ADD DUP1 PUSH1 0x40 MSTORE POP DUP2 ADD SWAP1 PUSH2 0x8A2 SWAP2 SWAP1 PUSH2 0x149A JUMP JUMPDEST SWAP1 POP PUSH1 0x40 MLOAD DUP1 PUSH1 0x60 ADD PUSH1 0x40 MSTORE DUP1 PUSH1 0x0 ISZERO ISZERO DUP2 MSTORE PUSH1 0x20 ADD PUSH1 0x1 ISZERO ISZERO DUP2 MSTORE PUSH1 0x20 ADD PUSH1 0x0 PUSH8 0xFFFFFFFFFFFFFFFF DUP2 GT ISZERO PUSH2 0x8DC JUMPI PUSH2 0x8DB PUSH2 0xD99 JUMP JUMPDEST JUMPDEST PUSH1 0x40 MLOAD SWAP1 DUP1 DUP3 MSTORE DUP1 PUSH1 0x20 MUL PUSH1 0x20 ADD DUP3 ADD PUSH1 0x40 MSTORE DUP1 ISZERO PUSH2 0x90A JUMPI DUP2 PUSH1 0x20 ADD PUSH1 0x20 DUP3 MUL DUP1 CALLDATASIZE DUP4 CALLDATACOPY DUP1 DUP3 ADD SWAP2 POP POP SWAP1 POP JUMPDEST POP DUP2 MSTORE POP PUSH1 0x2 PUSH1 0x0 DUP4 DUP2 MSTORE PUSH1 0x20 ADD SWAP1 DUP2 MSTORE PUSH1 0x20 ADD PUSH1 0x0 KECCAK256 PUSH1 0x0 DUP3 ADD MLOAD DUP2 PUSH1 0x0 ADD PUSH1 0x0 PUSH2 0x100 EXP DUP2 SLOAD DUP2 PUSH1 0xFF MUL NOT AND SWAP1 DUP4 ISZERO ISZERO MUL OR SWAP1 SSTORE POP PUSH1 0x20 DUP3 ADD MLOAD DUP2 PUSH1 0x0 ADD PUSH1 0x1 PUSH2 0x100 EXP DUP2 SLOAD DUP2 PUSH1 0xFF MUL NOT AND SWAP1 DUP4 ISZERO ISZERO MUL OR SWAP1 SSTORE POP PUSH1 0x40 DUP3 ADD MLOAD DUP2 PUSH1 0x1 ADD SWAP1 DUP1 MLOAD SWAP1 PUSH1 0x20 ADD SWAP1 PUSH2 0x97D SWAP3 SWAP2 SWAP1 PUSH2 0xCCF JUMP JUMPDEST POP SWAP1 POP POP PUSH1 0x4 DUP2 SWAP1 DUP1 PUSH1 0x1 DUP2 SLOAD ADD DUP1 DUP3 SSTORE DUP1 SWAP2 POP POP PUSH1 0x1 SWAP1 SUB SWAP1 PUSH1 0x0 MSTORE PUSH1 0x20 PUSH1 0x0 KECCAK256 ADD PUSH1 0x0 SWAP1 SWAP2 SWAP1 SWAP2 SWAP1 SWAP2 POP SSTORE DUP1 PUSH1 0x5 DUP2 SWAP1 SSTORE POP PUSH32 0xCC58B13AD3EAB50626C6A6300B1D139CD6EBB1688A7CCED9461C2F7E762665EE DUP2 PUSH1 0x7 PUSH1 0x6 SWAP1 SLOAD SWAP1 PUSH2 0x100 EXP SWAP1 DIV PUSH4 0xFFFFFFFF AND PUSH1 0x40 MLOAD PUSH2 0x9F4 SWAP3 SWAP2 SWAP1 PUSH2 0x14C7 JUMP JUMPDEST PUSH1 0x40 MLOAD DUP1 SWAP2 SUB SWAP1 LOG1 SWAP1 JUMP JUMPDEST PUSH2 0xA07 PUSH2 0xB13 JUMP JUMPDEST PUSH2 0xA10 DUP2 PUSH2 0xBA3 JUMP JUMPDEST POP JUMP JUMPDEST PUSH1 0x5 SLOAD DUP2 JUMP JUMPDEST PUSH1 0x2 PUSH1 0x0 DUP4 DUP2 MSTORE PUSH1 0x20 ADD SWAP1 DUP2 MSTORE PUSH1 0x20 ADD PUSH1 0x0 KECCAK256 PUSH1 0x0 ADD PUSH1 0x1 SWAP1 SLOAD SWAP1 PUSH2 0x100 EXP SWAP1 DIV PUSH1 0xFF AND PUSH2 0xA7C JUMPI PUSH1 0x40 MLOAD PUSH32 0x8C379A000000000000000000000000000000000000000000000000000000000 DUP2 MSTORE PUSH1 0x4 ADD PUSH2 0xA73 SWAP1 PUSH2 0x1233 JUMP JUMPDEST PUSH1 0x40 MLOAD DUP1 SWAP2 SUB SWAP1 REVERT JUMPDEST PUSH1 0x1 PUSH1 0x2 PUSH1 0x0 DUP5 DUP2 MSTORE PUSH1 0x20 ADD SWAP1 DUP2 MSTORE PUSH1 0x20 ADD PUSH1 0x0 KECCAK256 PUSH1 0x0 ADD PUSH1 0x0 PUSH2 0x100 EXP DUP2 SLOAD DUP2 PUSH1 0xFF MUL NOT AND SWAP1 DUP4 ISZERO ISZERO MUL OR SWAP1 SSTORE POP DUP1 PUSH1 0x2 PUSH1 0x0 DUP5 DUP2 MSTORE PUSH1 0x20 ADD SWAP1 DUP2 MSTORE PUSH1 0x20 ADD PUSH1 0x0 KECCAK256 PUSH1 0x1 ADD SWAP1 DUP1 MLOAD SWAP1 PUSH1 0x20 ADD SWAP1 PUSH2 0xAD5 SWAP3 SWAP2 SWAP1 PUSH2 0xCCF JUMP JUMPDEST POP PUSH32 0xFE2E2D779DBA245964D4E3EF9B994BE63856FD568BF7D3CA9E224755CB1BD54D DUP3 DUP3 PUSH1 0x40 MLOAD PUSH2 0xB07 SWAP3 SWAP2 SWAP1 PUSH2 0x14F0 JUMP JUMPDEST PUSH1 0x40 MLOAD DUP1 SWAP2 SUB SWAP1 LOG1 POP POP JUMP JUMPDEST PUSH1 0x0 DUP1 SLOAD SWAP1 PUSH2 0x100 EXP SWAP1 DIV PUSH20 0xFFFFFFFFFFFFFFFFFFFFFFFFFFFFFFFFFFFFFFFF AND PUSH20 0xFFFFFFFFFFFFFFFFFFFFFFFFFFFFFFFFFFFFFFFF AND CALLER PUSH20 0xFFFFFFFFFFFFFFFFFFFFFFFFFFFFFFFFFFFFFFFF AND EQ PUSH2 0xBA1 JUMPI PUSH1 0x40 MLOAD PUSH32 0x8C379A000000000000000000000000000000000000000000000000000000000 DUP2 MSTORE PUSH1 0x4 ADD PUSH2 0xB98 SWAP1 PUSH2 0x156C JUMP JUMPDEST PUSH1 0x40 MLOAD DUP1 SWAP2 SUB SWAP1 REVERT JUMPDEST JUMP JUMPDEST CALLER PUSH20 0xFFFFFFFFFFFFFFFFFFFFFFFFFFFFFFFFFFFFFFFF AND DUP2 PUSH20 0xFFFFFFFFFFFFFFFFFFFFFFFFFFFFFFFFFFFFFFFF AND SUB PUSH2 0xC11 JUMPI PUSH1 0x40 MLOAD PUSH32 0x8C379A000000000000000000000000000000000000000000000000000000000 DUP2 MSTORE PUSH1 0x4 ADD PUSH2 0xC08 SWAP1 PUSH2 0x15D8 JUMP JUMPDEST PUSH1 0x40 MLOAD DUP1 SWAP2 SUB SWAP1 REVERT JUMPDEST DUP1 PUSH1 0x1 PUSH1 0x0 PUSH2 0x100 EXP DUP2 SLOAD DUP2 PUSH20 0xFFFFFFFFFFFFFFFFFFFFFFFFFFFFFFFFFFFFFFFF MUL NOT AND SWAP1 DUP4 PUSH20 0xFFFFFFFFFFFFFFFFFFFFFFFFFFFFFFFFFFFFFFFF AND MUL OR SWAP1 SSTORE POP DUP1 PUSH20 0xFFFFFFFFFFFFFFFFFFFFFFFFFFFFFFFFFFFFFFFF AND PUSH1 0x0 DUP1 SLOAD SWAP1 PUSH2 0x100 EXP SWAP1 DIV PUSH20 0xFFFFFFFFFFFFFFFFFFFFFFFFFFFFFFFFFFFFFFFF AND PUSH20 0xFFFFFFFFFFFFFFFFFFFFFFFFFFFFFFFFFFFFFFFF AND PUSH32 0xED8889F560326EB138920D842192F0EB3DD22B4F139C87A2C57538E05BAE1278 PUSH1 0x40 MLOAD PUSH1 0x40 MLOAD DUP1 SWAP2 SUB SWAP1 LOG3 POP JUMP JUMPDEST DUP3 DUP1 SLOAD DUP3 DUP3 SSTORE SWAP1 PUSH1 0x0 MSTORE PUSH1 0x20 PUSH1 0x0 KECCAK256 SWAP1 DUP2 ADD SWAP3 DUP3 ISZERO PUSH2 0xD0B JUMPI SWAP2 PUSH1 0x20 MUL DUP3 ADD JUMPDEST DUP3 DUP2 GT ISZERO PUSH2 0xD0A JUMPI DUP3 MLOAD DUP3 SSTORE SWAP2 PUSH1 0x20 ADD SWAP2 SWAP1 PUSH1 0x1 ADD SWAP1 PUSH2 0xCEF JUMP JUMPDEST JUMPDEST POP SWAP1 POP PUSH2 0xD18 SWAP2 SWAP1 PUSH2 0xD1C JUMP JUMPDEST POP SWAP1 JUMP JUMPDEST JUMPDEST DUP1 DUP3 GT ISZERO PUSH2 0xD35 JUMPI PUSH1 0x0 DUP2 PUSH1 0x0 SWAP1 SSTORE POP PUSH1 0x1 ADD PUSH2 0xD1D JUMP JUMPDEST POP SWAP1 JUMP JUMPDEST PUSH1 0x0 PUSH1 0x40 MLOAD SWAP1 POP SWAP1 JUMP JUMPDEST PUSH1 0x0 DUP1 REVERT JUMPDEST PUSH1 0x0 DUP1 REVERT JUMPDEST PUSH1 0x0 DUP2 SWAP1 POP SWAP2 SWAP1 POP JUMP JUMPDEST PUSH2 0xD60 DUP2 PUSH2 0xD4D JUMP JUMPDEST DUP2 EQ PUSH2 0xD6B JUMPI PUSH1 0x0 DUP1 REVERT JUMPDEST POP JUMP JUMPDEST PUSH1 0x0 DUP2 CALLDATALOAD SWAP1 POP PUSH2 0xD7D DUP2 PUSH2 0xD57 JUMP JUMPDEST SWAP3 SWAP2 POP POP JUMP JUMPDEST PUSH1 0x0 DUP1 REVERT JUMPDEST PUSH1 0x0 PUSH1 0x1F NOT PUSH1 0x1F DUP4 ADD AND SWAP1 POP SWAP2 SWAP1 POP JUMP JUMPDEST PUSH32 0x4E487B7100000000000000000000000000000000000000000000000000000000 PUSH1 0x0 MSTORE PUSH1 0x41 PUSH1 0x4 MSTORE PUSH1 0x24 PUSH1 0x0 REVERT JUMPDEST PUSH2 0xDD1 DUP3 PUSH2 0xD88 JUMP JUMPDEST DUP2 ADD DUP2 DUP2 LT PUSH8 0xFFFFFFFFFFFFFFFF DUP3 GT OR ISZERO PUSH2 0xDF0 JUMPI PUSH2 0xDEF PUSH2 0xD99 JUMP JUMPDEST JUMPDEST DUP1 PUSH1 0x40 MSTORE POP POP POP JUMP JUMPDEST PUSH1 0x0 PUSH2 0xE03 PUSH2 0xD39 JUMP JUMPDEST SWAP1 POP PUSH2 0xE0F DUP3 DUP3 PUSH2 0xDC8 JUMP JUMPDEST SWAP2 SWAP1 POP JUMP JUMPDEST PUSH1 0x0 PUSH8 0xFFFFFFFFFFFFFFFF DUP3 GT ISZERO PUSH2 0xE2F JUMPI PUSH2 0xE2E PUSH2 0xD99 JUMP JUMPDEST JUMPDEST PUSH1 0x20 DUP3 MUL SWAP1 POP PUSH1 0x20 DUP2 ADD SWAP1 POP SWAP2 SWAP1 POP JUMP JUMPDEST PUSH1 0x0 DUP1 REVERT JUMPDEST PUSH1 0x0 PUSH2 0xE58 PUSH2 0xE53 DUP5 PUSH2 0xE14 JUMP JUMPDEST PUSH2 0xDF9 JUMP JUMPDEST SWAP1 POP DUP1 DUP4 DUP3 MSTORE PUSH1 0x20 DUP3 ADD SWAP1 POP PUSH1 0x20 DUP5 MUL DUP4 ADD DUP6 DUP2 GT ISZERO PUSH2 0xE7B JUMPI PUSH2 0xE7A PUSH2 0xE40 JUMP JUMPDEST JUMPDEST DUP4 JUMPDEST DUP2 DUP2 LT ISZERO PUSH2 0xEA4 JUMPI DUP1 PUSH2 0xE90 DUP9 DUP3 PUSH2 0xD6E JUMP JUMPDEST DUP5 MSTORE PUSH1 0x20 DUP5 ADD SWAP4 POP POP PUSH1 0x20 DUP2 ADD SWAP1 POP PUSH2 0xE7D JUMP JUMPDEST POP POP POP SWAP4 SWAP3 POP POP POP JUMP JUMPDEST PUSH1 0x0 DUP3 PUSH1 0x1F DUP4 ADD SLT PUSH2 0xEC3 JUMPI PUSH2 0xEC2 PUSH2 0xD83 JUMP JUMPDEST JUMPDEST DUP2 CALLDATALOAD PUSH2 0xED3 DUP5 DUP3 PUSH1 0x20 DUP7 ADD PUSH2 0xE45 JUMP JUMPDEST SWAP2 POP POP SWAP3 SWAP2 POP POP JUMP JUMPDEST PUSH1 0x0 DUP1 PUSH1 0x40 DUP4 DUP6 SUB SLT ISZERO PUSH2 0xEF3 JUMPI PUSH2 0xEF2 PUSH2 0xD43 JUMP JUMPDEST JUMPDEST PUSH1 0x0 PUSH2 0xF01 DUP6 DUP3 DUP7 ADD PUSH2 0xD6E JUMP JUMPDEST SWAP3 POP POP PUSH1 0x20 DUP4 ADD CALLDATALOAD PUSH8 0xFFFFFFFFFFFFFFFF DUP2 GT ISZERO PUSH2 0xF22 JUMPI PUSH2 0xF21 PUSH2 0xD48 JUMP JUMPDEST JUMPDEST PUSH2 0xF2E DUP6 DUP3 DUP7 ADD PUSH2 0xEAE JUMP JUMPDEST SWAP2 POP POP SWAP3 POP SWAP3 SWAP1 POP JUMP JUMPDEST PUSH1 0x0 PUSH1 0x20 DUP3 DUP5 SUB SLT ISZERO PUSH2 0xF4E JUMPI PUSH2 0xF4D PUSH2 0xD43 JUMP JUMPDEST JUMPDEST PUSH1 0x0 PUSH2 0xF5C DUP5 DUP3 DUP6 ADD PUSH2 0xD6E JUMP JUMPDEST SWAP2 POP POP SWAP3 SWAP2 POP POP JUMP JUMPDEST PUSH2 0xF6E DUP2 PUSH2 0xD4D JUMP JUMPDEST DUP3 MSTORE POP POP JUMP JUMPDEST PUSH1 0x0 PUSH1 0x60 DUP3 ADD SWAP1 POP PUSH2 0xF89 PUSH1 0x0 DUP4 ADD DUP7 PUSH2 0xF65 JUMP JUMPDEST PUSH2 0xF96 PUSH1 0x20 DUP4 ADD DUP6 PUSH2 0xF65 JUMP JUMPDEST PUSH2 0xFA3 PUSH1 0x40 DUP4 ADD DUP5 PUSH2 0xF65 JUMP JUMPDEST SWAP5 SWAP4 POP POP POP POP JUMP JUMPDEST PUSH1 0x0 PUSH1 0x20 DUP3 ADD SWAP1 POP PUSH2 0xFC0 PUSH1 0x0 DUP4 ADD DUP5 PUSH2 0xF65 JUMP JUMPDEST SWAP3 SWAP2 POP POP JUMP JUMPDEST PUSH1 0x0 PUSH20 0xFFFFFFFFFFFFFFFFFFFFFFFFFFFFFFFFFFFFFFFF DUP3 AND SWAP1 POP SWAP2 SWAP1 POP JUMP JUMPDEST PUSH1 0x0 PUSH2 0xFF1 DUP3 PUSH2 0xFC6 JUMP JUMPDEST SWAP1 POP SWAP2 SWAP1 POP JUMP JUMPDEST PUSH2 0x1001 DUP2 PUSH2 0xFE6 JUMP JUMPDEST DUP3 MSTORE POP POP JUMP JUMPDEST PUSH1 0x0 PUSH1 0x20 DUP3 ADD SWAP1 POP PUSH2 0x101C PUSH1 0x0 DUP4 ADD DUP5 PUSH2 0xFF8 JUMP JUMPDEST SWAP3 SWAP2 POP POP JUMP JUMPDEST PUSH1 0x0 DUP2 ISZERO ISZERO SWAP1 POP SWAP2 SWAP1 POP JUMP JUMPDEST PUSH2 0x1037 DUP2 PUSH2 0x1022 JUMP JUMPDEST DUP3 MSTORE POP POP JUMP JUMPDEST PUSH1 0x0 PUSH1 0x40 DUP3 ADD SWAP1 POP PUSH2 0x1052 PUSH1 0x0 DUP4 ADD DUP6 PUSH2 0x102E JUMP JUMPDEST PUSH2 0x105F PUSH1 0x20 DUP4 ADD DUP5 PUSH2 0x102E JUMP JUMPDEST SWAP4 SWAP3 POP POP POP JUMP JUMPDEST PUSH1 0x0 DUP2 MLOAD SWAP1 POP SWAP2 SWAP1 POP JUMP JUMPDEST PUSH1 0x0 DUP3 DUP3 MSTORE PUSH1 0x20 DUP3 ADD SWAP1 POP SWAP3 SWAP2 POP POP JUMP JUMPDEST PUSH1 0x0 DUP2 SWAP1 POP PUSH1 0x20 DUP3 ADD SWAP1 POP SWAP2 SWAP1 POP JUMP JUMPDEST PUSH2 0x109B DUP2 PUSH2 0xD4D JUMP JUMPDEST DUP3 MSTORE POP POP JUMP JUMPDEST PUSH1 0x0 PUSH2 0x10AD DUP4 DUP4 PUSH2 0x1092 JUMP JUMPDEST PUSH1 0x20 DUP4 ADD SWAP1 POP SWAP3 SWAP2 POP POP JUMP JUMPDEST PUSH1 0x0 PUSH1 0x20 DUP3 ADD SWAP1 POP SWAP2 SWAP1 POP JUMP JUMPDEST PUSH1 0x0 PUSH2 0x10D1 DUP3 PUSH2 0x1066 JUMP JUMPDEST PUSH2 0x10DB DUP2 DUP6 PUSH2 0x1071 JUMP JUMPDEST SWAP4 POP PUSH2 0x10E6 DUP4 PUSH2 0x1082 JUMP JUMPDEST DUP1 PUSH1 0x0 JUMPDEST DUP4 DUP2 LT ISZERO PUSH2 0x1117 JUMPI DUP2 MLOAD PUSH2 0x10FE DUP9 DUP3 PUSH2 0x10A1 JUMP JUMPDEST SWAP8 POP PUSH2 0x1109 DUP4 PUSH2 0x10B9 JUMP JUMPDEST SWAP3 POP POP PUSH1 0x1 DUP2 ADD SWAP1 POP PUSH2 0x10EA JUMP JUMPDEST POP DUP6 SWAP4 POP POP POP POP SWAP3 SWAP2 POP POP JUMP JUMPDEST PUSH1 0x0 PUSH1 0x40 DUP3 ADD SWAP1 POP PUSH2 0x1139 PUSH1 0x0 DUP4 ADD DUP6 PUSH2 0x102E JUMP JUMPDEST DUP2 DUP2 SUB PUSH1 0x20 DUP4 ADD MSTORE PUSH2 0x114B DUP2 DUP5 PUSH2 0x10C6 JUMP JUMPDEST SWAP1 POP SWAP4 SWAP3 POP POP POP JUMP JUMPDEST PUSH2 0x115D DUP2 PUSH2 0xFE6 JUMP JUMPDEST DUP2 EQ PUSH2 0x1168 JUMPI PUSH1 0x0 DUP1 REVERT JUMPDEST POP JUMP JUMPDEST PUSH1 0x0 DUP2 CALLDATALOAD SWAP1 POP PUSH2 0x117A DUP2 PUSH2 0x1154 JUMP JUMPDEST SWAP3 SWAP2 POP POP JUMP JUMPDEST PUSH1 0x0 PUSH1 0x20 DUP3 DUP5 SUB SLT ISZERO PUSH2 0x1196 JUMPI PUSH2 0x1195 PUSH2 0xD43 JUMP JUMPDEST JUMPDEST PUSH1 0x0 PUSH2 0x11A4 DUP5 DUP3 DUP6 ADD PUSH2 0x116B JUMP JUMPDEST SWAP2 POP POP SWAP3 SWAP2 POP POP JUMP JUMPDEST PUSH1 0x0 PUSH1 0x40 DUP3 ADD SWAP1 POP PUSH2 0x11C2 PUSH1 0x0 DUP4 ADD DUP6 PUSH2 0xFF8 JUMP JUMPDEST PUSH2 0x11CF PUSH1 0x20 DUP4 ADD DUP5 PUSH2 0xFF8 JUMP JUMPDEST SWAP4 SWAP3 POP POP POP JUMP JUMPDEST PUSH1 0x0 DUP3 DUP3 MSTORE PUSH1 0x20 DUP3 ADD SWAP1 POP SWAP3 SWAP2 POP POP JUMP JUMPDEST PUSH32 0x72657175657374206E6F7420666F756E64000000000000000000000000000000 PUSH1 0x0 DUP3 ADD MSTORE POP JUMP JUMPDEST PUSH1 0x0 PUSH2 0x121D PUSH1 0x11 DUP4 PUSH2 0x11D6 JUMP JUMPDEST SWAP2 POP PUSH2 0x1228 DUP3 PUSH2 0x11E7 JUMP JUMPDEST PUSH1 0x20 DUP3 ADD SWAP1 POP SWAP2 SWAP1 POP JUMP JUMPDEST PUSH1 0x0 PUSH1 0x20 DUP3 ADD SWAP1 POP DUP2 DUP2 SUB PUSH1 0x0 DUP4 ADD MSTORE PUSH2 0x124C DUP2 PUSH2 0x1210 JUMP JUMPDEST SWAP1 POP SWAP2 SWAP1 POP JUMP JUMPDEST PUSH32 0x4E6F74207965742066756C66696C6C6564000000000000000000000000000000 PUSH1 0x0 DUP3 ADD MSTORE POP JUMP JUMPDEST PUSH1 0x0 PUSH2 0x1289 PUSH1 0x11 DUP4 PUSH2 0x11D6 JUMP JUMPDEST SWAP2 POP PUSH2 0x1294 DUP3 PUSH2 0x1253 JUMP JUMPDEST PUSH1 0x20 DUP3 ADD SWAP1 POP SWAP2 SWAP1 POP JUMP JUMPDEST PUSH1 0x0 PUSH1 0x20 DUP3 ADD SWAP1 POP DUP2 DUP2 SUB PUSH1 0x0 DUP4 ADD MSTORE PUSH2 0x12B8 DUP2 PUSH2 0x127C JUMP JUMPDEST SWAP1 POP SWAP2 SWAP1 POP JUMP JUMPDEST PUSH32 0x4E487B7100000000000000000000000000000000000000000000000000000000 PUSH1 0x0 MSTORE PUSH1 0x32 PUSH1 0x4 MSTORE PUSH1 0x24 PUSH1 0x0 REVERT JUMPDEST PUSH32 0x4E487B7100000000000000000000000000000000000000000000000000000000 PUSH1 0x0 MSTORE PUSH1 0x12 PUSH1 0x4 MSTORE PUSH1 0x24 PUSH1 0x0 REVERT JUMPDEST PUSH1 0x0 PUSH2 0x1328 DUP3 PUSH2 0xD4D JUMP JUMPDEST SWAP2 POP PUSH2 0x1333 DUP4 PUSH2 0xD4D JUMP JUMPDEST SWAP3 POP DUP3 PUSH2 0x1343 JUMPI PUSH2 0x1342 PUSH2 0x12EE JUMP JUMPDEST JUMPDEST DUP3 DUP3 MOD SWAP1 POP SWAP3 SWAP2 POP POP JUMP JUMPDEST PUSH32 0x4D7573742062652070726F706F736564206F776E657200000000000000000000 PUSH1 0x0 DUP3 ADD MSTORE POP JUMP JUMPDEST PUSH1 0x0 PUSH2 0x1384 PUSH1 0x16 DUP4 PUSH2 0x11D6 JUMP JUMPDEST SWAP2 POP PUSH2 0x138F DUP3 PUSH2 0x134E JUMP JUMPDEST PUSH1 0x20 DUP3 ADD SWAP1 POP SWAP2 SWAP1 POP JUMP JUMPDEST PUSH1 0x0 PUSH1 0x20 DUP3 ADD SWAP1 POP DUP2 DUP2 SUB PUSH1 0x0 DUP4 ADD MSTORE PUSH2 0x13B3 DUP2 PUSH2 0x1377 JUMP JUMPDEST SWAP1 POP SWAP2 SWAP1 POP JUMP JUMPDEST PUSH1 0x0 DUP2 SWAP1 POP SWAP2 SWAP1 POP JUMP JUMPDEST PUSH2 0x13CD DUP2 PUSH2 0x13BA JUMP JUMPDEST DUP3 MSTORE POP POP JUMP JUMPDEST PUSH1 0x0 PUSH8 0xFFFFFFFFFFFFFFFF DUP3 AND SWAP1 POP SWAP2 SWAP1 POP JUMP JUMPDEST PUSH2 0x13F0 DUP2 PUSH2 0x13D3 JUMP JUMPDEST DUP3 MSTORE POP POP JUMP JUMPDEST PUSH1 0x0 PUSH2 0xFFFF DUP3 AND SWAP1 POP SWAP2 SWAP1 POP JUMP JUMPDEST PUSH2 0x140D DUP2 PUSH2 0x13F6 JUMP JUMPDEST DUP3 MSTORE POP POP JUMP JUMPDEST PUSH1 0x0 PUSH4 0xFFFFFFFF DUP3 AND SWAP1 POP SWAP2 SWAP1 POP JUMP JUMPDEST PUSH2 0x142C DUP2 PUSH2 0x1413 JUMP JUMPDEST DUP3 MSTORE POP POP JUMP JUMPDEST PUSH1 0x0 PUSH1 0xA0 DUP3 ADD SWAP1 POP PUSH2 0x1447 PUSH1 0x0 DUP4 ADD DUP9 PUSH2 0x13C4 JUMP JUMPDEST PUSH2 0x1454 PUSH1 0x20 DUP4 ADD DUP8 PUSH2 0x13E7 JUMP JUMPDEST PUSH2 0x1461 PUSH1 0x40 DUP4 ADD DUP7 PUSH2 0x1404 JUMP JUMPDEST PUSH2 0x146E PUSH1 0x60 DUP4 ADD DUP6 PUSH2 0x1423 JUMP JUMPDEST PUSH2 0x147B PUSH1 0x80 DUP4 ADD DUP5 PUSH2 0x1423 JUMP JUMPDEST SWAP7 SWAP6 POP POP POP POP POP POP JUMP JUMPDEST PUSH1 0x0 DUP2 MLOAD SWAP1 POP PUSH2 0x1494 DUP2 PUSH2 0xD57 JUMP JUMPDEST SWAP3 SWAP2 POP POP JUMP JUMPDEST PUSH1 0x0 PUSH1 0x20 DUP3 DUP5 SUB SLT ISZERO PUSH2 0x14B0 JUMPI PUSH2 0x14AF PUSH2 0xD43 JUMP JUMPDEST JUMPDEST PUSH1 0x0 PUSH2 0x14BE DUP5 DUP3 DUP6 ADD PUSH2 0x1485 JUMP JUMPDEST SWAP2 POP POP SWAP3 SWAP2 POP POP JUMP JUMPDEST PUSH1 0x0 PUSH1 0x40 DUP3 ADD SWAP1 POP PUSH2 0x14DC PUSH1 0x0 DUP4 ADD DUP6 PUSH2 0xF65 JUMP JUMPDEST PUSH2 0x14E9 PUSH1 0x20 DUP4 ADD DUP5 PUSH2 0x1423 JUMP JUMPDEST SWAP4 SWAP3 POP POP POP JUMP JUMPDEST PUSH1 0x0 PUSH1 0x40 DUP3 ADD SWAP1 POP PUSH2 0x1505 PUSH1 0x0 DUP4 ADD DUP6 PUSH2 0xF65 JUMP JUMPDEST DUP2 DUP2 SUB PUSH1 0x20 DUP4 ADD MSTORE PUSH2 0x1517 DUP2 DUP5 PUSH2 0x10C6 JUMP JUMPDEST SWAP1 POP SWAP4 SWAP3 POP POP POP JUMP JUMPDEST PUSH32 0x4F6E6C792063616C6C61626C65206279206F776E657200000000000000000000 PUSH1 0x0 DUP3 ADD MSTORE POP JUMP JUMPDEST PUSH1 0x0 PUSH2 0x1556 PUSH1 0x16 DUP4 PUSH2 0x11D6 JUMP JUMPDEST SWAP2 POP PUSH2 0x1561 DUP3 PUSH2 0x1520 JUMP JUMPDEST PUSH1 0x20 DUP3 ADD SWAP1 POP SWAP2 SWAP1 POP JUMP JUMPDEST PUSH1 0x0 PUSH1 0x20 DUP3 ADD SWAP1 POP DUP2 DUP2 SUB PUSH1 0x0 DUP4 ADD MSTORE PUSH2 0x1585 DUP2 PUSH2 0x1549 JUMP JUMPDEST SWAP1 POP SWAP2 SWAP1 POP JUMP JUMPDEST PUSH32 0x43616E6E6F74207472616E7366657220746F2073656C66000000000000000000 PUSH1 0x0 DUP3 ADD MSTORE POP JUMP JUMPDEST PUSH1 0x0 PUSH2 0x15C2 PUSH1 0x17 DUP4 PUSH2 0x11D6 JUMP JUMPDEST SWAP2 POP PUSH2 0x15CD DUP3 PUSH2 0x158C JUMP JUMPDEST PUSH1 0x20 DUP3 ADD SWAP1 POP SWAP2 SWAP1 POP JUMP JUMPDEST PUSH1 0x0 PUSH1 0x20 DUP3 ADD SWAP1 POP DUP2 DUP2 SUB PUSH1 0x0 DUP4 ADD MSTORE PUSH2 0x15F1 DUP2 PUSH2 0x15B5 JUMP JUMPDEST SWAP1 POP SWAP2 SWAP1 POP JUMP INVALID LOG2 PUSH5 0x6970667358 0x22 SLT KECCAK256 PUSH16 0x1916706231BEF2301130C2D7CC2C1B94 PUSH10 0xCB81B1FC3731003AB4BB 0xE4 ISZERO PUSH26 0x6564736F6C634300081200330000000000000000000000000000 "
				},
				"gasEstimates": {
					"creation": {
						"codeDepositCost": "1135600",
						"executionCost": "infinite",
						"totalCost": "infinite"
					},
					"external": {
						"acceptOwnership()": "54585",
						"getRandomThreeCards(uint256)": "infinite",
						"getRequestStatus(uint256)": "infinite",
						"lastRequestId()": "2517",
						"owner()": "2611",
						"rawFulfillRandomWords(uint256,uint256[])": "infinite",
						"requestIds(uint256)": "infinite",
						"requestRandomWords()": "infinite",
						"s_requests(uint256)": "infinite",
						"transferOwnership(address)": "30720"
					},
					"internal": {
						"fulfillRandomWords(uint256,uint256[] memory)": "infinite"
					}
				},
				"methodIdentifiers": {
					"acceptOwnership()": "79ba5097",
					"getRandomThreeCards(uint256)": "5787838b",
					"getRequestStatus(uint256)": "d8a4676f",
					"lastRequestId()": "fc2a88c3",
					"owner()": "8da5cb5b",
					"rawFulfillRandomWords(uint256,uint256[])": "1fe543e3",
					"requestIds(uint256)": "8796ba8c",
					"requestRandomWords()": "e0c86289",
					"s_requests(uint256)": "a168fa89",
					"transferOwnership(address)": "f2fde38b"
				}
			},
			"storageLayout": {
				"storage": [
					{
						"astId": 27,
						"contract": "docs.chain.link/samples/VRF/VRFv2Consumer.sol:VRFv2Consumer",
						"label": "s_owner",
						"offset": 0,
						"slot": "0",
						"type": "t_address"
					},
					{
						"astId": 29,
						"contract": "docs.chain.link/samples/VRF/VRFv2Consumer.sol:VRFv2Consumer",
						"label": "s_pendingOwner",
						"offset": 0,
						"slot": "1",
						"type": "t_address"
					},
					{
						"astId": 386,
						"contract": "docs.chain.link/samples/VRF/VRFv2Consumer.sol:VRFv2Consumer",
						"label": "s_requests",
						"offset": 0,
						"slot": "2",
						"type": "t_mapping(t_uint256,t_struct(RequestStatus)381_storage)"
					},
					{
						"astId": 389,
						"contract": "docs.chain.link/samples/VRF/VRFv2Consumer.sol:VRFv2Consumer",
						"label": "COORDINATOR",
						"offset": 0,
						"slot": "3",
						"type": "t_contract(VRFCoordinatorV2Interface)351"
					},
					{
						"astId": 391,
						"contract": "docs.chain.link/samples/VRF/VRFv2Consumer.sol:VRFv2Consumer",
						"label": "s_subscriptionId",
						"offset": 20,
						"slot": "3",
						"type": "t_uint64"
					},
					{
						"astId": 394,
						"contract": "docs.chain.link/samples/VRF/VRFv2Consumer.sol:VRFv2Consumer",
						"label": "requestIds",
						"offset": 0,
						"slot": "4",
						"type": "t_array(t_uint256)dyn_storage"
					},
					{
						"astId": 396,
						"contract": "docs.chain.link/samples/VRF/VRFv2Consumer.sol:VRFv2Consumer",
						"label": "lastRequestId",
						"offset": 0,
						"slot": "5",
						"type": "t_uint256"
					},
					{
						"astId": 399,
						"contract": "docs.chain.link/samples/VRF/VRFv2Consumer.sol:VRFv2Consumer",
						"label": "keyHash",
						"offset": 0,
						"slot": "6",
						"type": "t_bytes32"
					},
					{
						"astId": 402,
						"contract": "docs.chain.link/samples/VRF/VRFv2Consumer.sol:VRFv2Consumer",
						"label": "callbackGasLimit",
						"offset": 0,
						"slot": "7",
						"type": "t_uint32"
					},
					{
						"astId": 405,
						"contract": "docs.chain.link/samples/VRF/VRFv2Consumer.sol:VRFv2Consumer",
						"label": "requestConfirmations",
						"offset": 4,
						"slot": "7",
						"type": "t_uint16"
					},
					{
						"astId": 408,
						"contract": "docs.chain.link/samples/VRF/VRFv2Consumer.sol:VRFv2Consumer",
						"label": "numWords",
						"offset": 6,
						"slot": "7",
						"type": "t_uint32"
					}
				],
				"types": {
					"t_address": {
						"encoding": "inplace",
						"label": "address",
						"numberOfBytes": "20"
					},
					"t_array(t_uint256)dyn_storage": {
						"base": "t_uint256",
						"encoding": "dynamic_array",
						"label": "uint256[]",
						"numberOfBytes": "32"
					},
					"t_bool": {
						"encoding": "inplace",
						"label": "bool",
						"numberOfBytes": "1"
					},
					"t_bytes32": {
						"encoding": "inplace",
						"label": "bytes32",
						"numberOfBytes": "32"
					},
					"t_contract(VRFCoordinatorV2Interface)351": {
						"encoding": "inplace",
						"label": "contract VRFCoordinatorV2Interface",
						"numberOfBytes": "20"
					},
					"t_mapping(t_uint256,t_struct(RequestStatus)381_storage)": {
						"encoding": "mapping",
						"key": "t_uint256",
						"label": "mapping(uint256 => struct VRFv2Consumer.RequestStatus)",
						"numberOfBytes": "32",
						"value": "t_struct(RequestStatus)381_storage"
					},
					"t_struct(RequestStatus)381_storage": {
						"encoding": "inplace",
						"label": "struct VRFv2Consumer.RequestStatus",
						"members": [
							{
								"astId": 375,
								"contract": "docs.chain.link/samples/VRF/VRFv2Consumer.sol:VRFv2Consumer",
								"label": "fulfilled",
								"offset": 0,
								"slot": "0",
								"type": "t_bool"
							},
							{
								"astId": 377,
								"contract": "docs.chain.link/samples/VRF/VRFv2Consumer.sol:VRFv2Consumer",
								"label": "exists",
								"offset": 1,
								"slot": "0",
								"type": "t_bool"
							},
							{
								"astId": 380,
								"contract": "docs.chain.link/samples/VRF/VRFv2Consumer.sol:VRFv2Consumer",
								"label": "randomWords",
								"offset": 0,
								"slot": "1",
								"type": "t_array(t_uint256)dyn_storage"
							}
						],
						"numberOfBytes": "64"
					},
					"t_uint16": {
						"encoding": "inplace",
						"label": "uint16",
						"numberOfBytes": "2"
					},
					"t_uint256": {
						"encoding": "inplace",
						"label": "uint256",
						"numberOfBytes": "32"
					},
					"t_uint32": {
						"encoding": "inplace",
						"label": "uint32",
						"numberOfBytes": "4"
					},
					"t_uint64": {
						"encoding": "inplace",
						"label": "uint64",
						"numberOfBytes": "8"
					}
				}
			},
			"userdoc": {
				"kind": "user",
				"methods": {
					"acceptOwnership()": {
						"notice": "Allows an ownership transfer to be completed by the recipient."
					},
					"owner()": {
						"notice": "Get the current owner"
					},
					"transferOwnership(address)": {
						"notice": "Allows an owner to begin transferring ownership to a new address, pending."
					}
				},
				"version": 1
			}
		}
	}
}